{"abi":[{"type":"constructor","inputs":[],"stateMutability":"payable"},{"type":"function","name":"abort","inputs":[],"outputs":[],"stateMutability":"nonpayable"},{"type":"function","name":"buyer","inputs":[],"outputs":[{"name":"","type":"address","internalType":"address payable"}],"stateMutability":"view"},{"type":"function","name":"confirmPurchase","inputs":[],"outputs":[],"stateMutability":"payable"},{"type":"function","name":"confirmReceived","inputs":[],"outputs":[],"stateMutability":"nonpayable"},{"type":"function","name":"refundSeller","inputs":[],"outputs":[],"stateMutability":"nonpayable"},{"type":"function","name":"seller","inputs":[],"outputs":[{"name":"","type":"address","internalType":"address payable"}],"stateMutability":"view"},{"type":"function","name":"state","inputs":[],"outputs":[{"name":"","type":"uint8","internalType":"enum Purchase.State"}],"stateMutability":"view"},{"type":"function","name":"value","inputs":[],"outputs":[{"name":"","type":"uint256","internalType":"uint256"}],"stateMutability":"view"},{"type":"event","name":"Aborted","inputs":[],"anonymous":false},{"type":"event","name":"ItemReceived","inputs":[],"anonymous":false},{"type":"event","name":"PurchaseConfirmed","inputs":[],"anonymous":false},{"type":"event","name":"SellerRefunded","inputs":[],"anonymous":false},{"type":"error","name":"InvalidState","inputs":[]},{"type":"error","name":"OnlyBuyer","inputs":[]},{"type":"error","name":"OnlySeller","inputs":[]},{"type":"error","name":"ValueNotEven","inputs":[]}],"bytecode":{"object":"0x6080604052600180546001600160a01b03191633179055610021600234610056565b60008190553490610033906002610078565b1461005157604051635f1f262160e11b815260040160405180910390fd5b6100a3565b60008261007357634e487b7160e01b600052601260045260246000fd5b500490565b808202811582820484141761009d57634e487b7160e01b600052601160045260246000fd5b92915050565b61056d806100b26000396000f3fe60806040526004361061007b5760003560e01c806373fac6f01161004e57806373fac6f014610118578063c19d93fb1461012d578063c7981b1b1461015b578063d69606971461017057600080fd5b806308551a531461008057806335a063b4146100bd5780633fa4f245146100d45780637150d8ae146100f8575b600080fd5b34801561008c57600080fd5b506001546100a0906001600160a01b031681565b6040516001600160a01b0390911681526020015b60405180910390f35b3480156100c957600080fd5b506100d2610178565b005b3480156100e057600080fd5b506100ea60005481565b6040519081526020016100b4565b34801561010457600080fd5b506002546100a0906001600160a01b031681565b34801561012457600080fd5b506100d261025b565b34801561013957600080fd5b5060025461014e90600160a01b900460ff1681565b6040516100b491906104e4565b34801561016757600080fd5b506100d261033a565b6100d2610429565b6001546001600160a01b031633146101a3576040516342e8fb9360e11b815260040160405180910390fd5b600080600254600160a01b900460ff1660038111156101c4576101c46104ce565b146101e25760405163baf3f0f760e01b815260040160405180910390fd5b6040517f72c874aeff0b183a56e2b79c71b46e1aed4dee5e09862134b8821ba2fddbf8bf90600090a16002805460ff60a01b1916600360a01b1790556001546040516001600160a01b03909116904780156108fc02916000818181858888f19350505050158015610257573d6000803e3d6000fd5b5050565b6002546001600160a01b03163314610286576040516386efbb5560e01b815260040160405180910390fd5b600180600254600160a01b900460ff1660038111156102a7576102a76104ce565b146102c55760405163baf3f0f760e01b815260040160405180910390fd5b6040517fe89152acd703c9d8c7d28829d443260b411454d45394e7995815140c8cbcbcf790600090a160028054600160a11b60ff60a01b19821617909155600080546040516001600160a01b03909316926108fc82150292818181858888f19350505050158015610257573d6000803e3d6000fd5b6001546001600160a01b03163314610365576040516342e8fb9360e11b815260040160405180910390fd5b600280600254600160a01b900460ff166003811115610386576103866104ce565b146103a45760405163baf3f0f760e01b815260040160405180910390fd5b6040517ffda69c32bcfdba840a167777906b173b607eb8b4d8853b97a80d26e613d858db90600090a16002805460ff60a01b1916600360a01b1790556001546000546001600160a01b03909116906108fc9061040190600361050c565b6040518115909202916000818181858888f19350505050158015610257573d6000803e3d6000fd5b600080600254600160a01b900460ff16600381111561044a5761044a6104ce565b146104685760405163baf3f0f760e01b815260040160405180910390fd5b60005461047690600261050c565b34148061048257600080fd5b6040517fd5d55c8a68912e9a110618df8d5e2e83b8d83211c57a8ddd1203df92885dc88190600090a15050600280546001600160a81b0319163360ff60a01b191617600160a01b179055565b634e487b7160e01b600052602160045260246000fd5b602081016004831061050657634e487b7160e01b600052602160045260246000fd5b91905290565b808202811582820484141761053157634e487b7160e01b600052601160045260246000fd5b9291505056fea2646970667358221220c6315c36c93608e0c6fcdbfbd7dfce149cd2add67828a7eb3e94d99420e5bf4b64736f6c63430008130033","linkReferences":{}},"methodIdentifiers":{"abort()":"35a063b4","buyer()":"7150d8ae","confirmPurchase()":"d6960697","confirmReceived()":"73fac6f0","refundSeller()":"c7981b1b","seller()":"08551a53","state()":"c19d93fb","value()":"3fa4f245"},"id":21}