{"abi":[{"type":"constructor","inputs":[],"stateMutability":"nonpayable"},{"type":"function","name":"id","inputs":[],"outputs":[{"name":"","type":"bytes8","internalType":"bytes8"}],"stateMutability":"view"}],"bytecode":{"object":"0x6080604052348015600f57600080fd5b50608c8061001e6000396000f3fe6080604052348015600f57600080fd5b506004361060285760003560e01c8063af640d0f14602d575b600080fd5b60005460399060c01b81565b6040516001600160c01b0319909116815260200160405180910390f3fea26469706673582212205845734f1a41bc984367420eb42a95611b05a4885dfa6c1ed46fe6da0faf57e064736f6c63430008130033","linkReferences":{}},"methodIdentifiers":{"id()":"af640d0f"},"id":12}