{"abi":[{"type":"function","name":"check","inputs":[{"name":"value","type":"uint256","internalType":"uint256"},{"name":"shouldIncrement","type":"bool","internalType":"bool"}],"outputs":[{"name":"","type":"uint256","internalType":"uint256"}],"stateMutability":"nonpayable"}],"bytecode":{"object":"0x608060405234801561001057600080fd5b5061012c806100206000396000f3fe6080604052348015600f57600080fd5b506004361060285760003560e01c806332ba6e9214602d575b600080fd5b603c6038366004608d565b604e565b60405190815260200160405180910390f35b60008060648411156060575060036064565b5060025b8215607857607260018260d6565b90506084565b608160018260e6565b90505b90505b92915050565b60008060408385031215609f57600080fd5b823591506020830135801515811460b557600080fd5b809150509250929050565b634e487b7160e01b600052601160045260246000fd5b80820180821115608757608760c0565b81810381811115608757608760c056fea26469706673582212205a658066652d25994674cb16d56898887282112c275b1260bb828061f1c31dc964736f6c63430008130033","linkReferences":{}},"methodIdentifiers":{"check(uint256,bool)":"32ba6e92"},"id":0}