{"abi":[{"type":"function","name":"add","inputs":[{"name":"firstValue","type":"uint256","internalType":"uint256"},{"name":"secondValue","type":"uint256","internalType":"uint256"}],"outputs":[{"name":"","type":"uint256","internalType":"uint256"}],"stateMutability":"nonpayable"},{"type":"function","name":"isEnabled","inputs":[],"outputs":[{"name":"","type":"bool","internalType":"bool"}],"stateMutability":"view"},{"type":"function","name":"setIsEnabled","inputs":[{"name":"_isEnabled","type":"bool","internalType":"bool"}],"outputs":[],"stateMutability":"nonpayable"},{"type":"function","name":"subtract","inputs":[{"name":"firstValue","type":"uint256","internalType":"uint256"},{"name":"secondValue","type":"uint256","internalType":"uint256"}],"outputs":[{"name":"","type":"uint256","internalType":"uint256"}],"stateMutability":"nonpayable"}],"bytecode":{"object":"0x60806040526000805460ff1916600117905534801561001d57600080fd5b5061030c8061002d6000396000f3fe608060405234801561001057600080fd5b506004361061004c5760003560e01c80633ef5e445146100515780636aa633b614610077578063771602f714610094578063b6f97501146100a7575b600080fd5b61006461005f36600461024f565b6100ca565b6040519081526020015b60405180910390f35b6000546100849060ff1681565b604051901515815260200161006e565b6100646100a236600461024f565b6101e8565b6100c86100b5366004610271565b6000805460ff1916911515919091179055565b005b600082826000821161012d5760405162461bcd60e51b815260206004820152602160248201527f666972737456616c7565206d7573742062652067726561746572207468616e206044820152600360fc1b60648201526084015b60405180910390fd5b81811061018d5760405162461bcd60e51b815260206004820152602860248201527f7365636f6e6456616c7565206d757374206265206c657373207468616e20666960448201526772737456616c756560c01b6064820152608401610124565b60005460ff1615156001146101d55760405162461bcd60e51b815260206004820152600e60248201526d125d081a5cc8191a5cd8589b195960921b6044820152606401610124565b6101df84866102b0565b95945050505050565b6000805460ff161561020957600061020083856102c3565b91506102499050565b60005460ff1615801561021a575081155b156102345761022a6001846102c3565b9250829050610249565b600083156102425783610245565b60015b9150505b92915050565b6000806040838503121561026257600080fd5b50508035926020909101359150565b60006020828403121561028357600080fd5b8135801515811461029357600080fd5b9392505050565b634e487b7160e01b600052601160045260246000fd5b818103818111156102495761024961029a565b808201808211156102495761024961029a56fea2646970667358221220a5b2d533f74d251bd9ca8d97d9a15c96372588a7997576be288f9a49646e97fb64736f6c63430008130033","linkReferences":{}},"methodIdentifiers":{"add(uint256,uint256)":"771602f7","isEnabled()":"6aa633b6","setIsEnabled(bool)":"b6f97501","subtract(uint256,uint256)":"3ef5e445"},"id":0}