{"abi":[{"type":"constructor","inputs":[{"name":"_treasury","type":"address","internalType":"address"},{"name":"_owner","type":"address","internalType":"address"}],"stateMutability":"nonpayable"},{"type":"function","name":"allowance","inputs":[{"name":"owner","type":"address","internalType":"address"},{"name":"spender","type":"address","internalType":"address"}],"outputs":[{"name":"","type":"uint256","internalType":"uint256"}],"stateMutability":"view"},{"type":"function","name":"approve","inputs":[{"name":"spender","type":"address","internalType":"address"},{"name":"amount","type":"uint256","internalType":"uint256"}],"outputs":[{"name":"","type":"bool","internalType":"bool"}],"stateMutability":"nonpayable"},{"type":"function","name":"balanceOf","inputs":[{"name":"account","type":"address","internalType":"address"}],"outputs":[{"name":"","type":"uint256","internalType":"uint256"}],"stateMutability":"view"},{"type":"function","name":"decimals","inputs":[],"outputs":[{"name":"","type":"uint8","internalType":"uint8"}],"stateMutability":"view"},{"type":"function","name":"decreaseAllowance","inputs":[{"name":"spender","type":"address","internalType":"address"},{"name":"subtractedValue","type":"uint256","internalType":"uint256"}],"outputs":[{"name":"","type":"bool","internalType":"bool"}],"stateMutability":"nonpayable"},{"type":"function","name":"ico","inputs":[],"outputs":[{"name":"","type":"address","internalType":"contract Ico"}],"stateMutability":"view"},{"type":"function","name":"increaseAllowance","inputs":[{"name":"spender","type":"address","internalType":"address"},{"name":"addedValue","type":"uint256","internalType":"uint256"}],"outputs":[{"name":"","type":"bool","internalType":"bool"}],"stateMutability":"nonpayable"},{"type":"function","name":"name","inputs":[],"outputs":[{"name":"","type":"string","internalType":"string"}],"stateMutability":"view"},{"type":"function","name":"owner","inputs":[],"outputs":[{"name":"","type":"address","internalType":"address"}],"stateMutability":"view"},{"type":"function","name":"symbol","inputs":[],"outputs":[{"name":"","type":"string","internalType":"string"}],"stateMutability":"view"},{"type":"function","name":"taxEnabled","inputs":[],"outputs":[{"name":"","type":"bool","internalType":"bool"}],"stateMutability":"view"},{"type":"function","name":"toggleTax","inputs":[],"outputs":[],"stateMutability":"nonpayable"},{"type":"function","name":"totalSupply","inputs":[],"outputs":[{"name":"","type":"uint256","internalType":"uint256"}],"stateMutability":"view"},{"type":"function","name":"transfer","inputs":[{"name":"recipient","type":"address","internalType":"address"},{"name":"amount","type":"uint256","internalType":"uint256"}],"outputs":[{"name":"","type":"bool","internalType":"bool"}],"stateMutability":"nonpayable"},{"type":"function","name":"transferFrom","inputs":[{"name":"from","type":"address","internalType":"address"},{"name":"to","type":"address","internalType":"address"},{"name":"amount","type":"uint256","internalType":"uint256"}],"outputs":[{"name":"","type":"bool","internalType":"bool"}],"stateMutability":"nonpayable"},{"type":"function","name":"treasury","inputs":[],"outputs":[{"name":"","type":"address","internalType":"address"}],"stateMutability":"view"},{"type":"event","name":"Approval","inputs":[{"name":"owner","type":"address","indexed":true,"internalType":"address"},{"name":"spender","type":"address","indexed":true,"internalType":"address"},{"name":"value","type":"uint256","indexed":false,"internalType":"uint256"}],"anonymous":false},{"type":"event","name":"Transfer","inputs":[{"name":"from","type":"address","indexed":true,"internalType":"address"},{"name":"to","type":"address","indexed":true,"internalType":"address"},{"name":"value","type":"uint256","indexed":false,"internalType":"uint256"}],"anonymous":false}],"bytecode":{"object":"0x60806040526006805460ff60a01b1916600160a01b1790553480156200002457600080fd5b5060405162000dfe38038062000dfe833981016040819052620000479162000213565b6040518060400160405280601181526020017027b934b3b4b730b629b830b1b2a1b7b4b760791b8152506040518060400160405280600381526020016253504360e81b81525081600390816200009e9190620002ef565b506004620000ad8282620002ef565b5050600680546001600160a01b038085166001600160a01b031992831617909255600580549286169290911691909117905550620000f6620000ec3390565b620249f06200012b565b60055462000111906001600160a01b0316620557306200012b565b5050600780546001600160a01b03191633179055620003e3565b6001600160a01b038216620001865760405162461bcd60e51b815260206004820152601f60248201527f45524332303a206d696e7420746f20746865207a65726f206164647265737300604482015260640160405180910390fd5b80600260008282546200019a9190620003bb565b90915550506001600160a01b038216600081815260208181526040808320805486019055518481527fddf252ad1be2c89b69c2b068fc378daa952ba7f163c4a11628f55a4df523b3ef910160405180910390a35050565b505050565b80516001600160a01b03811681146200020e57600080fd5b919050565b600080604083850312156200022757600080fd5b6200023283620001f6565b91506200024260208401620001f6565b90509250929050565b634e487b7160e01b600052604160045260246000fd5b600181811c908216806200027657607f821691505b6020821081036200029757634e487b7160e01b600052602260045260246000fd5b50919050565b601f821115620001f157600081815260208120601f850160051c81016020861015620002c65750805b601f850160051c820191505b81811015620002e757828155600101620002d2565b505050505050565b81516001600160401b038111156200030b576200030b6200024b565b62000323816200031c845462000261565b846200029d565b602080601f8311600181146200035b5760008415620003425750858301515b600019600386901b1c1916600185901b178555620002e7565b600085815260208120601f198616915b828110156200038c578886015182559484019460019091019084016200036b565b5085821015620003ab5787850151600019600388901b60f8161c191681555b5050505050600190811b01905550565b80820180821115620003dd57634e487b7160e01b600052601160045260246000fd5b92915050565b610a0b80620003f36000396000f3fe608060405234801561001057600080fd5b50600436106101005760003560e01c806361d027b31161009757806395d89b411161006657806395d89b4114610225578063a457c2d71461022d578063a9059cbb14610240578063dd62ed3e1461025357600080fd5b806361d027b3146101c257806370a08231146101d5578063870bd30b146101fe5780638da5cb5b1461021257600080fd5b806323b872dd116100d357806323b872dd14610162578063313ce5671461017557806339509351146101845780635d4522011461019757600080fd5b806306fdde0314610105578063095ea7b31461012357806310bf60291461014657806318160ddd14610150575b600080fd5b61010d610266565b60405161011a919061083a565b60405180910390f35b6101366101313660046108a4565b6102f8565b604051901515815260200161011a565b61014e610312565b005b6002545b60405190815260200161011a565b6101366101703660046108ce565b61039c565b6040516012815260200161011a565b6101366101923660046108a4565b6103c0565b6007546101aa906001600160a01b031681565b6040516001600160a01b03909116815260200161011a565b6005546101aa906001600160a01b031681565b6101546101e336600461090a565b6001600160a01b031660009081526020819052604090205490565b60065461013690600160a01b900460ff1681565b6006546101aa906001600160a01b031681565b61010d6103e2565b61013661023b3660046108a4565b6103f1565b61013661024e3660046108a4565b61046c565b61015461026136600461092c565b6104cd565b6060600380546102759061095f565b80601f01602080910402602001604051908101604052809291908181526020018280546102a19061095f565b80156102ee5780601f106102c3576101008083540402835291602001916102ee565b820191906000526020600020905b8154815290600101906020018083116102d157829003601f168201915b5050505050905090565b6000336103068185856104f8565b60019150505b92915050565b6006546001600160a01b0316331461037b5760405162461bcd60e51b815260206004820152602160248201527f4f6e6c79206f776e65722063616e2063616c6c20746869732066756e6374696f6044820152603760f91b60648201526084015b60405180910390fd5b6006805460ff60a01b198116600160a01b9182900460ff1615909102179055565b6000336103aa85828561061c565b6103b5858585610696565b506001949350505050565b6000336103068185856103d383836104cd565b6103dd91906109af565b6104f8565b6060600480546102759061095f565b600033816103ff82866104cd565b90508381101561045f5760405162461bcd60e51b815260206004820152602560248201527f45524332303a2064656372656173656420616c6c6f77616e63652062656c6f77604482015264207a65726f60d81b6064820152608401610372565b6103b582868684036104f8565b600654600090600160a01b900460ff16156104b9576002600061048f82856109c2565b90506104a7336005546001600160a01b031684610696565b6104b2338683610696565b50506104c4565b6104c4338484610696565b50600192915050565b6001600160a01b03918216600090815260016020908152604080832093909416825291909152205490565b6001600160a01b03831661055a5760405162461bcd60e51b8152602060048201526024808201527f45524332303a20617070726f76652066726f6d20746865207a65726f206164646044820152637265737360e01b6064820152608401610372565b6001600160a01b0382166105bb5760405162461bcd60e51b815260206004820152602260248201527f45524332303a20617070726f766520746f20746865207a65726f206164647265604482015261737360f01b6064820152608401610372565b6001600160a01b0383811660008181526001602090815260408083209487168084529482529182902085905590518481527f8c5be1e5ebec7d5bd14f71427d1e84f3dd0314c0f7b2291e5b200ac8c7c3b925910160405180910390a3505050565b600061062884846104cd565b9050600019811461069057818110156106835760405162461bcd60e51b815260206004820152601d60248201527f45524332303a20696e73756666696369656e7420616c6c6f77616e63650000006044820152606401610372565b61069084848484036104f8565b50505050565b6001600160a01b0383166106fa5760405162461bcd60e51b815260206004820152602560248201527f45524332303a207472616e736665722066726f6d20746865207a65726f206164604482015264647265737360d81b6064820152608401610372565b6001600160a01b03821661075c5760405162461bcd60e51b815260206004820152602360248201527f45524332303a207472616e7366657220746f20746865207a65726f206164647260448201526265737360e81b6064820152608401610372565b6001600160a01b038316600090815260208190526040902054818110156107d45760405162461bcd60e51b815260206004820152602660248201527f45524332303a207472616e7366657220616d6f756e7420657863656564732062604482015265616c616e636560d01b6064820152608401610372565b6001600160a01b03848116600081815260208181526040808320878703905593871680835291849020805487019055925185815290927fddf252ad1be2c89b69c2b068fc378daa952ba7f163c4a11628f55a4df523b3ef910160405180910390a3610690565b600060208083528351808285015260005b818110156108675785810183015185820160400152820161084b565b506000604082860101526040601f19601f8301168501019250505092915050565b80356001600160a01b038116811461089f57600080fd5b919050565b600080604083850312156108b757600080fd5b6108c083610888565b946020939093013593505050565b6000806000606084860312156108e357600080fd5b6108ec84610888565b92506108fa60208501610888565b9150604084013590509250925092565b60006020828403121561091c57600080fd5b61092582610888565b9392505050565b6000806040838503121561093f57600080fd5b61094883610888565b915061095660208401610888565b90509250929050565b600181811c9082168061097357607f821691505b60208210810361099357634e487b7160e01b600052602260045260246000fd5b50919050565b634e487b7160e01b600052601160045260246000fd5b8082018082111561030c5761030c610999565b8181038181111561030c5761030c61099956fea2646970667358221220b1fbd87990436ae1da6ceb47bf0cfaf920599fe76b0bee566393cda9e9821b5664736f6c63430008130033","linkReferences":{}},"methodIdentifiers":{"allowance(address,address)":"dd62ed3e","approve(address,uint256)":"095ea7b3","balanceOf(address)":"70a08231","decimals()":"313ce567","decreaseAllowance(address,uint256)":"a457c2d7","ico()":"5d452201","increaseAllowance(address,uint256)":"39509351","name()":"06fdde03","owner()":"8da5cb5b","symbol()":"95d89b41","taxEnabled()":"870bd30b","toggleTax()":"10bf6029","totalSupply()":"18160ddd","transfer(address,uint256)":"a9059cbb","transferFrom(address,address,uint256)":"23b872dd","treasury()":"61d027b3"},"id":20}