{"abi":[{"type":"function","name":"count","inputs":[],"outputs":[{"name":"","type":"uint256","internalType":"uint256"}],"stateMutability":"view"},{"type":"function","name":"getCount","inputs":[],"outputs":[{"name":"","type":"uint256","internalType":"uint256"}],"stateMutability":"view"},{"type":"function","name":"increment","inputs":[],"outputs":[],"stateMutability":"nonpayable"},{"type":"function","name":"incrementNumber","inputs":[{"name":"number","type":"uint256","internalType":"uint256"}],"outputs":[],"stateMutability":"nonpayable"},{"type":"function","name":"name","inputs":[],"outputs":[{"name":"","type":"string","internalType":"string"}],"stateMutability":"view"},{"type":"function","name":"updateDetails","inputs":[{"name":"updatedCount","type":"uint256","internalType":"uint256"},{"name":"updatedName","type":"string","internalType":"string"}],"outputs":[{"name":"","type":"bool","internalType":"bool"}],"stateMutability":"nonpayable"}],"bytecode":{"object":"0x608060405234801561001057600080fd5b506104a7806100206000396000f3fe608060405234801561001057600080fd5b50600436106100625760003560e01c806306661abd1461006757806306fdde03146100835780638151b2f514610098578063957c5d9c146100ad578063a87d942c146100d0578063d09de08a146100d8575b600080fd5b61007060005481565b6040519081526020015b60405180910390f35b61008b6100e0565b60405161007a91906101cf565b6100ab6100a636600461021d565b61016e565b005b6100c06100bb36600461024c565b610187565b604051901515815260200161007a565b600054610070565b6100ab6101b6565b600180546100ed90610307565b80601f016020809104026020016040519081016040528092919081815260200182805461011990610307565b80156101665780601f1061013b57610100808354040283529160200191610166565b820191906000526020600020905b81548152906001019060200180831161014957829003601f168201915b505050505081565b8060008082825461017f9190610341565b909155505050565b6000600a8311156101ac57600161019e83826103b1565b5050600082905560016101b0565b5060005b92915050565b60016000808282546101c89190610341565b9091555050565b600060208083528351808285015260005b818110156101fc578581018301518582016040015282016101e0565b506000604082860101526040601f19601f8301168501019250505092915050565b60006020828403121561022f57600080fd5b5035919050565b634e487b7160e01b600052604160045260246000fd5b6000806040838503121561025f57600080fd5b82359150602083013567ffffffffffffffff8082111561027e57600080fd5b818501915085601f83011261029257600080fd5b8135818111156102a4576102a4610236565b604051601f8201601f19908116603f011681019083821181831017156102cc576102cc610236565b816040528281528860208487010111156102e557600080fd5b8260208601602083013760006020848301015280955050505050509250929050565b600181811c9082168061031b57607f821691505b60208210810361033b57634e487b7160e01b600052602260045260246000fd5b50919050565b808201808211156101b057634e487b7160e01b600052601160045260246000fd5b601f8211156103ac57600081815260208120601f850160051c810160208610156103895750805b601f850160051c820191505b818110156103a857828155600101610395565b5050505b505050565b815167ffffffffffffffff8111156103cb576103cb610236565b6103df816103d98454610307565b84610362565b602080601f83116001811461041457600084156103fc5750858301515b600019600386901b1c1916600185901b1785556103a8565b600085815260208120601f198616915b8281101561044357888601518255948401946001909101908401610424565b50858210156104615787850151600019600388901b60f8161c191681555b5050505050600190811b0190555056fea2646970667358221220262779d1cdb6f96d516b756a35a565c1c36c486ead91bf3227253a5fa04ee19a64736f6c63430008130033","linkReferences":{}},"methodIdentifiers":{"count()":"06661abd","getCount()":"a87d942c","increment()":"d09de08a","incrementNumber(uint256)":"8151b2f5","name()":"06fdde03","updateDetails(uint256,string)":"957c5d9c"},"id":5}