{"abi":[{"type":"constructor","inputs":[{"name":"_treasury","type":"address","internalType":"address"},{"name":"_owner","type":"address","internalType":"address"}],"stateMutability":"nonpayable"},{"type":"function","name":"allowance","inputs":[{"name":"owner","type":"address","internalType":"address"},{"name":"spender","type":"address","internalType":"address"}],"outputs":[{"name":"","type":"uint256","internalType":"uint256"}],"stateMutability":"view"},{"type":"function","name":"approve","inputs":[{"name":"spender","type":"address","internalType":"address"},{"name":"amount","type":"uint256","internalType":"uint256"}],"outputs":[{"name":"","type":"bool","internalType":"bool"}],"stateMutability":"nonpayable"},{"type":"function","name":"balanceOf","inputs":[{"name":"account","type":"address","internalType":"address"}],"outputs":[{"name":"","type":"uint256","internalType":"uint256"}],"stateMutability":"view"},{"type":"function","name":"decimals","inputs":[],"outputs":[{"name":"","type":"uint8","internalType":"uint8"}],"stateMutability":"view"},{"type":"function","name":"decreaseAllowance","inputs":[{"name":"spender","type":"address","internalType":"address"},{"name":"subtractedValue","type":"uint256","internalType":"uint256"}],"outputs":[{"name":"","type":"bool","internalType":"bool"}],"stateMutability":"nonpayable"},{"type":"function","name":"increaseAllowance","inputs":[{"name":"spender","type":"address","internalType":"address"},{"name":"addedValue","type":"uint256","internalType":"uint256"}],"outputs":[{"name":"","type":"bool","internalType":"bool"}],"stateMutability":"nonpayable"},{"type":"function","name":"name","inputs":[],"outputs":[{"name":"","type":"string","internalType":"string"}],"stateMutability":"view"},{"type":"function","name":"owner","inputs":[],"outputs":[{"name":"","type":"address","internalType":"address"}],"stateMutability":"view"},{"type":"function","name":"simpleTransfer","inputs":[{"name":"recipient","type":"address","internalType":"address"},{"name":"amount","type":"uint256","internalType":"uint256"}],"outputs":[{"name":"","type":"bool","internalType":"bool"}],"stateMutability":"nonpayable"},{"type":"function","name":"symbol","inputs":[],"outputs":[{"name":"","type":"string","internalType":"string"}],"stateMutability":"view"},{"type":"function","name":"totalSupply","inputs":[],"outputs":[{"name":"","type":"uint256","internalType":"uint256"}],"stateMutability":"view"},{"type":"function","name":"transfer","inputs":[{"name":"to","type":"address","internalType":"address"},{"name":"amount","type":"uint256","internalType":"uint256"}],"outputs":[{"name":"","type":"bool","internalType":"bool"}],"stateMutability":"nonpayable"},{"type":"function","name":"transferFrom","inputs":[{"name":"from","type":"address","internalType":"address"},{"name":"to","type":"address","internalType":"address"},{"name":"amount","type":"uint256","internalType":"uint256"}],"outputs":[{"name":"","type":"bool","internalType":"bool"}],"stateMutability":"nonpayable"},{"type":"function","name":"treasury","inputs":[],"outputs":[{"name":"","type":"address","internalType":"address"}],"stateMutability":"view"},{"type":"event","name":"Approval","inputs":[{"name":"owner","type":"address","indexed":true,"internalType":"address"},{"name":"spender","type":"address","indexed":true,"internalType":"address"},{"name":"value","type":"uint256","indexed":false,"internalType":"uint256"}],"anonymous":false},{"type":"event","name":"Transfer","inputs":[{"name":"from","type":"address","indexed":true,"internalType":"address"},{"name":"to","type":"address","indexed":true,"internalType":"address"},{"name":"value","type":"uint256","indexed":false,"internalType":"uint256"}],"anonymous":false}],"bytecode":{"object":"0x60806040523480156200001157600080fd5b5060405162000d5f38038062000d5f8339810160408190526200003491620001eb565b6040518060400160405280600e81526020016d29b4b6b83632aa3930b739b332b960911b8152506040518060400160405280600381526020016253504360e81b8152508160039081620000889190620002c7565b506004620000978282620002c7565b5050600680546001600160a01b038085166001600160a01b031992831617909255600580549286169290911691909117905550620000e0620000d63390565b620249f062000103565b600554620000fb906001600160a01b03166205573062000103565b5050620003bb565b6001600160a01b0382166200015e5760405162461bcd60e51b815260206004820152601f60248201527f45524332303a206d696e7420746f20746865207a65726f206164647265737300604482015260640160405180910390fd5b806002600082825462000172919062000393565b90915550506001600160a01b038216600081815260208181526040808320805486019055518481527fddf252ad1be2c89b69c2b068fc378daa952ba7f163c4a11628f55a4df523b3ef910160405180910390a35050565b505050565b80516001600160a01b0381168114620001e657600080fd5b919050565b60008060408385031215620001ff57600080fd5b6200020a83620001ce565b91506200021a60208401620001ce565b90509250929050565b634e487b7160e01b600052604160045260246000fd5b600181811c908216806200024e57607f821691505b6020821081036200026f57634e487b7160e01b600052602260045260246000fd5b50919050565b601f821115620001c957600081815260208120601f850160051c810160208610156200029e5750805b601f850160051c820191505b81811015620002bf57828155600101620002aa565b505050505050565b81516001600160401b03811115620002e357620002e362000223565b620002fb81620002f4845462000239565b8462000275565b602080601f8311600181146200033357600084156200031a5750858301515b600019600386901b1c1916600185901b178555620002bf565b600085815260208120601f198616915b82811015620003645788860151825594840194600190910190840162000343565b5085821015620003835787850151600019600388901b60f8161c191681555b5050505050600190811b01905550565b80820180821115620003b557634e487b7160e01b600052601160045260246000fd5b92915050565b61099480620003cb6000396000f3fe608060405234801561001057600080fd5b50600436106100ea5760003560e01c806361d027b31161008c57806395d89b411161006657806395d89b41146101f1578063a457c2d7146101f9578063a9059cbb1461020c578063dd62ed3e1461021f57600080fd5b806361d027b31461018a57806370a08231146101b55780638da5cb5b146101de57600080fd5b806323b872dd116100c857806323b872dd14610142578063313ce56714610155578063348f9d3e14610164578063395093511461017757600080fd5b806306fdde03146100ef578063095ea7b31461010d57806318160ddd14610130575b600080fd5b6100f7610232565b60405161010491906107c3565b60405180910390f35b61012061011b36600461082d565b6102c4565b6040519015158152602001610104565b6002545b604051908152602001610104565b610120610150366004610857565b6102de565b60405160128152602001610104565b61012061017236600461082d565b610302565b61012061018536600461082d565b61039c565b60055461019d906001600160a01b031681565b6040516001600160a01b039091168152602001610104565b6101346101c3366004610893565b6001600160a01b031660009081526020819052604090205490565b60065461019d906001600160a01b031681565b6100f76103be565b61012061020736600461082d565b6103cd565b61012061021a36600461082d565b610448565b61013461022d3660046108b5565b610456565b606060038054610241906108e8565b80601f016020809104026020016040519081016040528092919081815260200182805461026d906108e8565b80156102ba5780601f1061028f576101008083540402835291602001916102ba565b820191906000526020600020905b81548152906001019060200180831161029d57829003601f168201915b5050505050905090565b6000336102d2818585610481565b60019150505b92915050565b6000336102ec8582856105a5565b6102f785858561061f565b506001949350505050565b60006103e88211156103505760405162461bcd60e51b8152602060048201526012602482015271082dadeeadce840d2e640e8dede40d0d2ced60731b60448201526064015b60405180910390fd5b606482111561039157600260006103678285610938565b905061037f336005546001600160a01b03168461061f565b61038a33868361061f565b50506102d8565b6102d833848461061f565b6000336102d28185856103af8383610456565b6103b9919061094b565b610481565b606060048054610241906108e8565b600033816103db8286610456565b90508381101561043b5760405162461bcd60e51b815260206004820152602560248201527f45524332303a2064656372656173656420616c6c6f77616e63652062656c6f77604482015264207a65726f60d81b6064820152608401610347565b6102f78286868403610481565b6000336102d281858561061f565b6001600160a01b03918216600090815260016020908152604080832093909416825291909152205490565b6001600160a01b0383166104e35760405162461bcd60e51b8152602060048201526024808201527f45524332303a20617070726f76652066726f6d20746865207a65726f206164646044820152637265737360e01b6064820152608401610347565b6001600160a01b0382166105445760405162461bcd60e51b815260206004820152602260248201527f45524332303a20617070726f766520746f20746865207a65726f206164647265604482015261737360f01b6064820152608401610347565b6001600160a01b0383811660008181526001602090815260408083209487168084529482529182902085905590518481527f8c5be1e5ebec7d5bd14f71427d1e84f3dd0314c0f7b2291e5b200ac8c7c3b925910160405180910390a3505050565b60006105b18484610456565b90506000198114610619578181101561060c5760405162461bcd60e51b815260206004820152601d60248201527f45524332303a20696e73756666696369656e7420616c6c6f77616e63650000006044820152606401610347565b6106198484848403610481565b50505050565b6001600160a01b0383166106835760405162461bcd60e51b815260206004820152602560248201527f45524332303a207472616e736665722066726f6d20746865207a65726f206164604482015264647265737360d81b6064820152608401610347565b6001600160a01b0382166106e55760405162461bcd60e51b815260206004820152602360248201527f45524332303a207472616e7366657220746f20746865207a65726f206164647260448201526265737360e81b6064820152608401610347565b6001600160a01b0383166000908152602081905260409020548181101561075d5760405162461bcd60e51b815260206004820152602660248201527f45524332303a207472616e7366657220616d6f756e7420657863656564732062604482015265616c616e636560d01b6064820152608401610347565b6001600160a01b03848116600081815260208181526040808320878703905593871680835291849020805487019055925185815290927fddf252ad1be2c89b69c2b068fc378daa952ba7f163c4a11628f55a4df523b3ef910160405180910390a3610619565b600060208083528351808285015260005b818110156107f0578581018301518582016040015282016107d4565b506000604082860101526040601f19601f8301168501019250505092915050565b80356001600160a01b038116811461082857600080fd5b919050565b6000806040838503121561084057600080fd5b61084983610811565b946020939093013593505050565b60008060006060848603121561086c57600080fd5b61087584610811565b925061088360208501610811565b9150604084013590509250925092565b6000602082840312156108a557600080fd5b6108ae82610811565b9392505050565b600080604083850312156108c857600080fd5b6108d183610811565b91506108df60208401610811565b90509250929050565b600181811c908216806108fc57607f821691505b60208210810361091c57634e487b7160e01b600052602260045260246000fd5b50919050565b634e487b7160e01b600052601160045260246000fd5b818103818111156102d8576102d8610922565b808201808211156102d8576102d861092256fea264697066735822122011db8678f43dd6dbdf76557fe89d5c593c815e61fed532541a9d1b55a13e266064736f6c63430008130033","linkReferences":{}},"methodIdentifiers":{"allowance(address,address)":"dd62ed3e","approve(address,uint256)":"095ea7b3","balanceOf(address)":"70a08231","decimals()":"313ce567","decreaseAllowance(address,uint256)":"a457c2d7","increaseAllowance(address,uint256)":"39509351","name()":"06fdde03","owner()":"8da5cb5b","simpleTransfer(address,uint256)":"348f9d3e","symbol()":"95d89b41","totalSupply()":"18160ddd","transfer(address,uint256)":"a9059cbb","transferFrom(address,address,uint256)":"23b872dd","treasury()":"61d027b3"},"id":14}