{"abi":[{"type":"function","name":"currentMonarch","inputs":[],"outputs":[{"name":"ethAddr","type":"address","internalType":"address"},{"name":"name","type":"string","internalType":"string"},{"name":"claimPrice","type":"uint256","internalType":"uint256"},{"name":"coronationTimestamp","type":"uint256","internalType":"uint256"}],"stateMutability":"view"}],"bytecode":{"object":"0x608060405234801561001057600080fd5b506101da806100206000396000f3fe608060405234801561001057600080fd5b506004361061002b5760003560e01c8063e40d0ac314610030575b600080fd5b610038610051565b60405161004894939291906100fe565b60405180910390f35b60008054600180546001600160a01b03909216929161006f9061016a565b80601f016020809104026020016040519081016040528092919081815260200182805461009b9061016a565b80156100e85780601f106100bd576101008083540402835291602001916100e8565b820191906000526020600020905b8154815290600101906020018083116100cb57829003601f168201915b5050505050908060020154908060030154905084565b60018060a01b038516815260006020608081840152855180608085015260005b8181101561013a5787810183015185820160a00152820161011e565b50600060a0828601015260a0601f19601f8301168501019250505083604083015282606083015295945050505050565b600181811c9082168061017e57607f821691505b60208210810361019e57634e487b7160e01b600052602260045260246000fd5b5091905056fea26469706673582212203f76ea1be7ed042d47ab40b9f2173984b961a4cb099075efe2b27a2f4a7bc94064736f6c63430008130033","linkReferences":{}},"methodIdentifiers":{"currentMonarch()":"e40d0ac3"},"id":1}