{"abi":[{"type":"constructor","inputs":[{"name":"_owner","type":"address","internalType":"address"}],"stateMutability":"nonpayable"},{"type":"function","name":"allowance","inputs":[{"name":"owner","type":"address","internalType":"address"},{"name":"spender","type":"address","internalType":"address"}],"outputs":[{"name":"","type":"uint256","internalType":"uint256"}],"stateMutability":"view"},{"type":"function","name":"approve","inputs":[{"name":"spender","type":"address","internalType":"address"},{"name":"amount","type":"uint256","internalType":"uint256"}],"outputs":[{"name":"","type":"bool","internalType":"bool"}],"stateMutability":"nonpayable"},{"type":"function","name":"balanceOf","inputs":[{"name":"account","type":"address","internalType":"address"}],"outputs":[{"name":"","type":"uint256","internalType":"uint256"}],"stateMutability":"view"},{"type":"function","name":"decimals","inputs":[],"outputs":[{"name":"","type":"uint8","internalType":"uint8"}],"stateMutability":"view"},{"type":"function","name":"decreaseAllowance","inputs":[{"name":"spender","type":"address","internalType":"address"},{"name":"subtractedValue","type":"uint256","internalType":"uint256"}],"outputs":[{"name":"","type":"bool","internalType":"bool"}],"stateMutability":"nonpayable"},{"type":"function","name":"increaseAllowance","inputs":[{"name":"spender","type":"address","internalType":"address"},{"name":"addedValue","type":"uint256","internalType":"uint256"}],"outputs":[{"name":"","type":"bool","internalType":"bool"}],"stateMutability":"nonpayable"},{"type":"function","name":"name","inputs":[],"outputs":[{"name":"","type":"string","internalType":"string"}],"stateMutability":"view"},{"type":"function","name":"owner","inputs":[],"outputs":[{"name":"","type":"address","internalType":"address"}],"stateMutability":"view"},{"type":"function","name":"symbol","inputs":[],"outputs":[{"name":"","type":"string","internalType":"string"}],"stateMutability":"view"},{"type":"function","name":"totalSupply","inputs":[],"outputs":[{"name":"","type":"uint256","internalType":"uint256"}],"stateMutability":"view"},{"type":"function","name":"transfer","inputs":[{"name":"recipient","type":"address","internalType":"address"},{"name":"amount","type":"uint256","internalType":"uint256"},{"name":"maxTax","type":"uint256","internalType":"uint256"}],"outputs":[],"stateMutability":"nonpayable"},{"type":"function","name":"transfer","inputs":[{"name":"to","type":"address","internalType":"address"},{"name":"amount","type":"uint256","internalType":"uint256"}],"outputs":[{"name":"","type":"bool","internalType":"bool"}],"stateMutability":"nonpayable"},{"type":"function","name":"transferFrom","inputs":[{"name":"from","type":"address","internalType":"address"},{"name":"to","type":"address","internalType":"address"},{"name":"amount","type":"uint256","internalType":"uint256"}],"outputs":[{"name":"","type":"bool","internalType":"bool"}],"stateMutability":"nonpayable"},{"type":"event","name":"Approval","inputs":[{"name":"owner","type":"address","indexed":true,"internalType":"address"},{"name":"spender","type":"address","indexed":true,"internalType":"address"},{"name":"value","type":"uint256","indexed":false,"internalType":"uint256"}],"anonymous":false},{"type":"event","name":"Transfer","inputs":[{"name":"from","type":"address","indexed":true,"internalType":"address"},{"name":"to","type":"address","indexed":true,"internalType":"address"},{"name":"value","type":"uint256","indexed":false,"internalType":"uint256"}],"anonymous":false}],"bytecode":{"object":"0x60806040523480156200001157600080fd5b5060405162000e7e38038062000e7e83398101604081905262000034916200019e565b6040518060400160405280600a81526020016929b4b6b83632a1b7b4b760b11b8152506040518060400160405280600381526020016253504360e81b815250816003908162000084919062000274565b50600462000093828262000274565b5050600160055550600680546001600160a01b0319166001600160a01b038316179055620000cc620000c23390565b620249f0620000d3565b5062000368565b6001600160a01b0382166200012e5760405162461bcd60e51b815260206004820152601f60248201527f45524332303a206d696e7420746f20746865207a65726f206164647265737300604482015260640160405180910390fd5b806002600082825462000142919062000340565b90915550506001600160a01b038216600081815260208181526040808320805486019055518481527fddf252ad1be2c89b69c2b068fc378daa952ba7f163c4a11628f55a4df523b3ef910160405180910390a35050565b505050565b600060208284031215620001b157600080fd5b81516001600160a01b0381168114620001c957600080fd5b9392505050565b634e487b7160e01b600052604160045260246000fd5b600181811c90821680620001fb57607f821691505b6020821081036200021c57634e487b7160e01b600052602260045260246000fd5b50919050565b601f8211156200019957600081815260208120601f850160051c810160208610156200024b5750805b601f850160051c820191505b818110156200026c5782815560010162000257565b505050505050565b81516001600160401b03811115620002905762000290620001d0565b620002a881620002a18454620001e6565b8462000222565b602080601f831160018114620002e05760008415620002c75750858301515b600019600386901b1c1916600185901b1785556200026c565b600085815260208120601f198616915b828110156200031157888601518255948401946001909101908401620002f0565b5085821015620003305787850151600019600388901b60f8161c191681555b5050505050600190811b01905550565b808201808211156200036257634e487b7160e01b600052601160045260246000fd5b92915050565b610b0680620003786000396000f3fe608060405234801561001057600080fd5b50600436106100cf5760003560e01c8063395093511161008c57806395d89b411161006657806395d89b41146101c5578063a457c2d7146101cd578063a9059cbb146101e0578063dd62ed3e146101f357600080fd5b8063395093511461015e57806370a08231146101715780638da5cb5b1461019a57600080fd5b806306fdde03146100d4578063095bcdb6146100f2578063095ea7b31461010757806318160ddd1461012a57806323b872dd1461013c578063313ce5671461014f575b600080fd5b6100dc610206565b6040516100e99190610902565b60405180910390f35b61010561010036600461096c565b610298565b005b61011a61011536600461099f565b610448565b60405190151581526020016100e9565b6002545b6040519081526020016100e9565b61011a61014a3660046109c9565b610462565b604051601281526020016100e9565b61011a61016c36600461099f565b610486565b61012e61017f366004610a05565b6001600160a01b031660009081526020819052604090205490565b6006546101ad906001600160a01b031681565b6040516001600160a01b0390911681526020016100e9565b6100dc6104a8565b61011a6101db36600461099f565b6104b7565b61011a6101ee36600461099f565b610532565b61012e610201366004610a27565b610540565b60606003805461021590610a5a565b80601f016020809104026020016040519081016040528092919081815260200182805461024190610a5a565b801561028e5780601f106102635761010080835404028352916020019161028e565b820191906000526020600020905b81548152906001019060200180831161027157829003601f168201915b5050505050905090565b8181600082116102ef5760405162461bcd60e51b815260206004820152601d60248201527f416d6f756e74206d7573742062652067726561746572207468616e203000000060448201526064015b60405180910390fd5b6000811161033f5760405162461bcd60e51b815260206004820152601e60248201527f4d617820746178206d7573742062652067726561746572207468616e2030000060448201526064016102e6565b61034761056b565b60065485906001600160a01b03908116908216036103b65760405162461bcd60e51b815260206004820152602660248201527f526563697069656e74206d75737420626520646966666572656e742066726f6d6044820152651037bbb732b960d11b60648201526084016102e6565b6006546001600160a01b0316330361041c5760405162461bcd60e51b815260206004820152602360248201527f53656e646572206d75737420626520646966666572656e742066726f6d206f776044820152623732b960e91b60648201526084016102e6565b60006104288587610aaa565b90506104353388836105c4565b50506104416001600555565b5050505050565b60003361045681858561076a565b60019150505b92915050565b60003361047085828561088e565b61047b8585856105c4565b506001949350505050565b6000336104568185856104998383610540565b6104a39190610abd565b61076a565b60606004805461021590610a5a565b600033816104c58286610540565b9050838110156105255760405162461bcd60e51b815260206004820152602560248201527f45524332303a2064656372656173656420616c6c6f77616e63652062656c6f77604482015264207a65726f60d81b60648201526084016102e6565b61047b828686840361076a565b6000336104568185856105c4565b6001600160a01b03918216600090815260016020908152604080832093909416825291909152205490565b6002600554036105bd5760405162461bcd60e51b815260206004820152601f60248201527f5265656e7472616e637947756172643a207265656e7472616e742063616c6c0060448201526064016102e6565b6002600555565b6001600160a01b0383166106285760405162461bcd60e51b815260206004820152602560248201527f45524332303a207472616e736665722066726f6d20746865207a65726f206164604482015264647265737360d81b60648201526084016102e6565b6001600160a01b03821661068a5760405162461bcd60e51b815260206004820152602360248201527f45524332303a207472616e7366657220746f20746865207a65726f206164647260448201526265737360e81b60648201526084016102e6565b6001600160a01b038316600090815260208190526040902054818110156107025760405162461bcd60e51b815260206004820152602660248201527f45524332303a207472616e7366657220616d6f756e7420657863656564732062604482015265616c616e636560d01b60648201526084016102e6565b6001600160a01b03848116600081815260208181526040808320878703905593871680835291849020805487019055925185815290927fddf252ad1be2c89b69c2b068fc378daa952ba7f163c4a11628f55a4df523b3ef910160405180910390a35b50505050565b6001600160a01b0383166107cc5760405162461bcd60e51b8152602060048201526024808201527f45524332303a20617070726f76652066726f6d20746865207a65726f206164646044820152637265737360e01b60648201526084016102e6565b6001600160a01b03821661082d5760405162461bcd60e51b815260206004820152602260248201527f45524332303a20617070726f766520746f20746865207a65726f206164647265604482015261737360f01b60648201526084016102e6565b6001600160a01b0383811660008181526001602090815260408083209487168084529482529182902085905590518481527f8c5be1e5ebec7d5bd14f71427d1e84f3dd0314c0f7b2291e5b200ac8c7c3b925910160405180910390a3505050565b600061089a8484610540565b9050600019811461076457818110156108f55760405162461bcd60e51b815260206004820152601d60248201527f45524332303a20696e73756666696369656e7420616c6c6f77616e636500000060448201526064016102e6565b610764848484840361076a565b600060208083528351808285015260005b8181101561092f57858101830151858201604001528201610913565b506000604082860101526040601f19601f8301168501019250505092915050565b80356001600160a01b038116811461096757600080fd5b919050565b60008060006060848603121561098157600080fd5b61098a84610950565b95602085013595506040909401359392505050565b600080604083850312156109b257600080fd5b6109bb83610950565b946020939093013593505050565b6000806000606084860312156109de57600080fd5b6109e784610950565b92506109f560208501610950565b9150604084013590509250925092565b600060208284031215610a1757600080fd5b610a2082610950565b9392505050565b60008060408385031215610a3a57600080fd5b610a4383610950565b9150610a5160208401610950565b90509250929050565b600181811c90821680610a6e57607f821691505b602082108103610a8e57634e487b7160e01b600052602260045260246000fd5b50919050565b634e487b7160e01b600052601160045260246000fd5b8181038181111561045c5761045c610a94565b8082018082111561045c5761045c610a9456fea2646970667358221220928218e93cc8c1146cd8741d797f88a2c656a7f36aa3de049d3e026f2820296c64736f6c63430008130033","linkReferences":{}},"methodIdentifiers":{"allowance(address,address)":"dd62ed3e","approve(address,uint256)":"095ea7b3","balanceOf(address)":"70a08231","decimals()":"313ce567","decreaseAllowance(address,uint256)":"a457c2d7","increaseAllowance(address,uint256)":"39509351","name()":"06fdde03","owner()":"8da5cb5b","symbol()":"95d89b41","totalSupply()":"18160ddd","transfer(address,uint256)":"a9059cbb","transfer(address,uint256,uint256)":"095bcdb6","transferFrom(address,address,uint256)":"23b872dd"},"id":0}