{"abi":[{"type":"function","name":"add","inputs":[{"name":"firstValue","type":"uint256","internalType":"uint256"},{"name":"secondValue","type":"uint256","internalType":"uint256"}],"outputs":[{"name":"","type":"uint256","internalType":"uint256"}],"stateMutability":"nonpayable"},{"type":"function","name":"internalSubtractionVariableWithLogicalComparison","inputs":[{"name":"firstValue","type":"uint256","internalType":"uint256"},{"name":"secondValue","type":"uint256","internalType":"uint256"},{"name":"minValue","type":"uint256","internalType":"uint256"}],"outputs":[{"name":"","type":"uint256","internalType":"uint256"}],"stateMutability":"pure"},{"type":"function","name":"internalVariableAdd","inputs":[{"name":"firstValue","type":"uint256","internalType":"uint256"},{"name":"secondValue","type":"uint256","internalType":"uint256"},{"name":"minValue","type":"uint256","internalType":"uint256"}],"outputs":[{"name":"","type":"uint256","internalType":"uint256"}],"stateMutability":"pure"},{"type":"function","name":"internalVariableAndLogicalComparisonAdd","inputs":[{"name":"firstValue","type":"uint256","internalType":"uint256"},{"name":"secondValue","type":"uint256","internalType":"uint256"},{"name":"minValue","type":"uint256","internalType":"uint256"}],"outputs":[{"name":"","type":"uint256","internalType":"uint256"}],"stateMutability":"pure"},{"type":"function","name":"internalVariableWithLogicalComparison","inputs":[{"name":"firstValue","type":"uint256","internalType":"uint256"},{"name":"secondValue","type":"uint256","internalType":"uint256"},{"name":"minValue","type":"uint256","internalType":"uint256"}],"outputs":[{"name":"","type":"uint256","internalType":"uint256"}],"stateMutability":"pure"},{"type":"function","name":"logicalComparisonAdd","inputs":[{"name":"firstValue","type":"uint256","internalType":"uint256"},{"name":"secondValue","type":"uint256","internalType":"uint256"},{"name":"minValue","type":"uint256","internalType":"uint256"}],"outputs":[{"name":"","type":"uint256","internalType":"uint256"}],"stateMutability":"pure"},{"type":"function","name":"multipleLogicalComparisonAdd","inputs":[{"name":"firstValue","type":"uint256","internalType":"uint256"},{"name":"secondValue","type":"uint256","internalType":"uint256"},{"name":"minValue","type":"uint256","internalType":"uint256"}],"outputs":[{"name":"","type":"uint256","internalType":"uint256"}],"stateMutability":"pure"},{"type":"function","name":"multipleLogicalComparisonWithDifferentResult","inputs":[{"name":"firstValue","type":"uint256","internalType":"uint256"},{"name":"secondValue","type":"uint256","internalType":"uint256"},{"name":"minValue","type":"uint256","internalType":"uint256"}],"outputs":[{"name":"","type":"uint256","internalType":"uint256"}],"stateMutability":"pure"},{"type":"function","name":"sub","inputs":[{"name":"firstValue","type":"uint256","internalType":"uint256"},{"name":"secondValue","type":"uint256","internalType":"uint256"}],"outputs":[{"name":"","type":"uint256","internalType":"uint256"}],"stateMutability":"pure"}],"bytecode":{"object":"0x608060405234801561001057600080fd5b50610404806100206000396000f3fe608060405234801561001057600080fd5b50600436106100935760003560e01c80638b05b6d3116100665780638b05b6d3146100f6578063a7b536bd14610109578063b1df32bf1461011c578063b67d77c51461012f578063f0ca9b2e1461014257600080fd5b806301bdf3f0146100985780630d569c15146100bd57806361ec88ec146100d0578063771602f7146100e3575b600080fd5b6100ab6100a6366004610344565b610155565b60405190815260200160405180910390f35b6100ab6100cb366004610344565b6101b3565b6100ab6100de366004610344565b6101e5565b6100ab6100f1366004610370565b610205565b6100ab610104366004610344565b610230565b6100ab610117366004610344565b61025a565b6100ab61012a366004610344565b6102aa565b6100ab61013d366004610370565b6102d4565b6100ab610150366004610344565b6102f2565b600080838510801561016657508285115b1561017c5761017584866103a8565b9050610189565b61018683866103a8565b90505b848411801561019757508281115b156101a9576101a681856103a8565b90505b90505b9392505050565b6000806101c084866103a8565b905082811180156101d057508385115b156101de57829150506101ac565b90506101ac565b6000806101f284866103a8565b9050828110156101de57829150506101ac565b6000818311156102205761021982846103a8565b905061022a565b61021983806103a8565b92915050565b60008061023d84866103bb565b905082811080156101d05750828510156101de57829150506101ac565b600080838510801561026b57508285105b156102815761027a84866103a8565b905061028e565b61028b83866103a8565b90505b84841180156101975750828411156101a9576101a681856103a8565b600081841180156102bb5750828410155b156102ca576101de83856103a8565b6101de82856103a8565b6000818310156102e85761021983836103bb565b61021982846103bb565b6000806102ff84866103a8565b9050828111801561030f57508385115b156103255761031e84866103a8565b9050610332565b61032f85806103a8565b90505b828111156101a9576101a683826103a8565b60008060006060848603121561035957600080fd5b505081359360208301359350604090920135919050565b6000806040838503121561038357600080fd5b50508035926020909101359150565b634e487b7160e01b600052601160045260246000fd5b8082018082111561022a5761022a610392565b8181038181111561022a5761022a61039256fea264697066735822122010a6fcdaf81736405d95b767955a8827bea4e3c3bbbf81e510b895387e9061ec64736f6c63430008130033","linkReferences":{}},"methodIdentifiers":{"add(uint256,uint256)":"771602f7","internalSubtractionVariableWithLogicalComparison(uint256,uint256,uint256)":"8b05b6d3","internalVariableAdd(uint256,uint256,uint256)":"61ec88ec","internalVariableAndLogicalComparisonAdd(uint256,uint256,uint256)":"f0ca9b2e","internalVariableWithLogicalComparison(uint256,uint256,uint256)":"0d569c15","logicalComparisonAdd(uint256,uint256,uint256)":"b1df32bf","multipleLogicalComparisonAdd(uint256,uint256,uint256)":"a7b536bd","multipleLogicalComparisonWithDifferentResult(uint256,uint256,uint256)":"01bdf3f0","sub(uint256,uint256)":"b67d77c5"},"id":0}