{"abi":[{"type":"constructor","inputs":[{"name":"_treasury","type":"address","internalType":"address"},{"name":"_owner","type":"address","internalType":"address"}],"stateMutability":"nonpayable"},{"type":"function","name":"allowance","inputs":[{"name":"owner","type":"address","internalType":"address"},{"name":"spender","type":"address","internalType":"address"}],"outputs":[{"name":"","type":"uint256","internalType":"uint256"}],"stateMutability":"view"},{"type":"function","name":"approve","inputs":[{"name":"spender","type":"address","internalType":"address"},{"name":"amount","type":"uint256","internalType":"uint256"}],"outputs":[{"name":"","type":"bool","internalType":"bool"}],"stateMutability":"nonpayable"},{"type":"function","name":"balanceOf","inputs":[{"name":"account","type":"address","internalType":"address"}],"outputs":[{"name":"","type":"uint256","internalType":"uint256"}],"stateMutability":"view"},{"type":"function","name":"decimals","inputs":[],"outputs":[{"name":"","type":"uint8","internalType":"uint8"}],"stateMutability":"view"},{"type":"function","name":"decreaseAllowance","inputs":[{"name":"spender","type":"address","internalType":"address"},{"name":"subtractedValue","type":"uint256","internalType":"uint256"}],"outputs":[{"name":"","type":"bool","internalType":"bool"}],"stateMutability":"nonpayable"},{"type":"function","name":"increaseAllowance","inputs":[{"name":"spender","type":"address","internalType":"address"},{"name":"addedValue","type":"uint256","internalType":"uint256"}],"outputs":[{"name":"","type":"bool","internalType":"bool"}],"stateMutability":"nonpayable"},{"type":"function","name":"name","inputs":[],"outputs":[{"name":"","type":"string","internalType":"string"}],"stateMutability":"view"},{"type":"function","name":"owner","inputs":[],"outputs":[{"name":"","type":"address","internalType":"address"}],"stateMutability":"view"},{"type":"function","name":"symbol","inputs":[],"outputs":[{"name":"","type":"string","internalType":"string"}],"stateMutability":"view"},{"type":"function","name":"taxEnabled","inputs":[],"outputs":[{"name":"","type":"bool","internalType":"bool"}],"stateMutability":"view"},{"type":"function","name":"toggleTax","inputs":[],"outputs":[],"stateMutability":"nonpayable"},{"type":"function","name":"totalSupply","inputs":[],"outputs":[{"name":"","type":"uint256","internalType":"uint256"}],"stateMutability":"view"},{"type":"function","name":"transfer","inputs":[{"name":"recipient","type":"address","internalType":"address"},{"name":"amount","type":"uint256","internalType":"uint256"}],"outputs":[{"name":"","type":"bool","internalType":"bool"}],"stateMutability":"nonpayable"},{"type":"function","name":"transferFrom","inputs":[{"name":"from","type":"address","internalType":"address"},{"name":"to","type":"address","internalType":"address"},{"name":"amount","type":"uint256","internalType":"uint256"}],"outputs":[{"name":"","type":"bool","internalType":"bool"}],"stateMutability":"nonpayable"},{"type":"function","name":"treasury","inputs":[],"outputs":[{"name":"","type":"address","internalType":"address"}],"stateMutability":"view"},{"type":"event","name":"Approval","inputs":[{"name":"owner","type":"address","indexed":true,"internalType":"address"},{"name":"spender","type":"address","indexed":true,"internalType":"address"},{"name":"value","type":"uint256","indexed":false,"internalType":"uint256"}],"anonymous":false},{"type":"event","name":"Transfer","inputs":[{"name":"from","type":"address","indexed":true,"internalType":"address"},{"name":"to","type":"address","indexed":true,"internalType":"address"},{"name":"value","type":"uint256","indexed":false,"internalType":"uint256"}],"anonymous":false}],"bytecode":{"object":"0x60806040526006805460ff60a01b1916600160a01b1790553480156200002457600080fd5b5060405162000dc838038062000dc88339810160408190526200004791620001fb565b6040518060400160405280600b81526020016a27b63cb6b834bc21b7b4b760a91b8152506040518060400160405280600381526020016253504360e81b8152508160039081620000989190620002d7565b506004620000a78282620002d7565b5050600680546001600160a01b038085166001600160a01b031992831617909255600580549286169290911691909117905550620000f0620000e63390565b620249f062000113565b6005546200010b906001600160a01b03166205573062000113565b5050620003cb565b6001600160a01b0382166200016e5760405162461bcd60e51b815260206004820152601f60248201527f45524332303a206d696e7420746f20746865207a65726f206164647265737300604482015260640160405180910390fd5b8060026000828254620001829190620003a3565b90915550506001600160a01b038216600081815260208181526040808320805486019055518481527fddf252ad1be2c89b69c2b068fc378daa952ba7f163c4a11628f55a4df523b3ef910160405180910390a35050565b505050565b80516001600160a01b0381168114620001f657600080fd5b919050565b600080604083850312156200020f57600080fd5b6200021a83620001de565b91506200022a60208401620001de565b90509250929050565b634e487b7160e01b600052604160045260246000fd5b600181811c908216806200025e57607f821691505b6020821081036200027f57634e487b7160e01b600052602260045260246000fd5b50919050565b601f821115620001d957600081815260208120601f850160051c81016020861015620002ae5750805b601f850160051c820191505b81811015620002cf57828155600101620002ba565b505050505050565b81516001600160401b03811115620002f357620002f362000233565b6200030b8162000304845462000249565b8462000285565b602080601f8311600181146200034357600084156200032a5750858301515b600019600386901b1c1916600185901b178555620002cf565b600085815260208120601f198616915b82811015620003745788860151825594840194600190910190840162000353565b5085821015620003935787850151600019600388901b60f8161c191681555b5050505050600190811b01905550565b80820180821115620003c557634e487b7160e01b600052601160045260246000fd5b92915050565b6109ed80620003db6000396000f3fe608060405234801561001057600080fd5b50600436106100f55760003560e01c806361d027b31161009757806395d89b411161006657806395d89b4114610207578063a457c2d71461020f578063a9059cbb14610222578063dd62ed3e1461023557600080fd5b806361d027b31461018c57806370a08231146101b7578063870bd30b146101e05780638da5cb5b146101f457600080fd5b806318160ddd116100d357806318160ddd1461014557806323b872dd14610157578063313ce5671461016a578063395093511461017957600080fd5b806306fdde03146100fa578063095ea7b31461011857806310bf60291461013b575b600080fd5b610102610248565b60405161010f919061081c565b60405180910390f35b61012b610126366004610886565b6102da565b604051901515815260200161010f565b6101436102f4565b005b6002545b60405190815260200161010f565b61012b6101653660046108b0565b61037e565b6040516012815260200161010f565b61012b610187366004610886565b6103a2565b60055461019f906001600160a01b031681565b6040516001600160a01b03909116815260200161010f565b6101496101c53660046108ec565b6001600160a01b031660009081526020819052604090205490565b60065461012b90600160a01b900460ff1681565b60065461019f906001600160a01b031681565b6101026103c4565b61012b61021d366004610886565b6103d3565b61012b610230366004610886565b61044e565b61014961024336600461090e565b6104af565b60606003805461025790610941565b80601f016020809104026020016040519081016040528092919081815260200182805461028390610941565b80156102d05780601f106102a5576101008083540402835291602001916102d0565b820191906000526020600020905b8154815290600101906020018083116102b357829003601f168201915b5050505050905090565b6000336102e88185856104da565b60019150505b92915050565b6006546001600160a01b0316331461035d5760405162461bcd60e51b815260206004820152602160248201527f4f6e6c79206f776e65722063616e2063616c6c20746869732066756e6374696f6044820152603760f91b60648201526084015b60405180910390fd5b6006805460ff60a01b198116600160a01b9182900460ff1615909102179055565b60003361038c8582856105fe565b610397858585610678565b506001949350505050565b6000336102e88185856103b583836104af565b6103bf9190610991565b6104da565b60606004805461025790610941565b600033816103e182866104af565b9050838110156104415760405162461bcd60e51b815260206004820152602560248201527f45524332303a2064656372656173656420616c6c6f77616e63652062656c6f77604482015264207a65726f60d81b6064820152608401610354565b61039782868684036104da565b600654600090600160a01b900460ff161561049b576002600061047182856109a4565b9050610489336005546001600160a01b031684610678565b610494338683610678565b50506104a6565b6104a6338484610678565b50600192915050565b6001600160a01b03918216600090815260016020908152604080832093909416825291909152205490565b6001600160a01b03831661053c5760405162461bcd60e51b8152602060048201526024808201527f45524332303a20617070726f76652066726f6d20746865207a65726f206164646044820152637265737360e01b6064820152608401610354565b6001600160a01b03821661059d5760405162461bcd60e51b815260206004820152602260248201527f45524332303a20617070726f766520746f20746865207a65726f206164647265604482015261737360f01b6064820152608401610354565b6001600160a01b0383811660008181526001602090815260408083209487168084529482529182902085905590518481527f8c5be1e5ebec7d5bd14f71427d1e84f3dd0314c0f7b2291e5b200ac8c7c3b925910160405180910390a3505050565b600061060a84846104af565b9050600019811461067257818110156106655760405162461bcd60e51b815260206004820152601d60248201527f45524332303a20696e73756666696369656e7420616c6c6f77616e63650000006044820152606401610354565b61067284848484036104da565b50505050565b6001600160a01b0383166106dc5760405162461bcd60e51b815260206004820152602560248201527f45524332303a207472616e736665722066726f6d20746865207a65726f206164604482015264647265737360d81b6064820152608401610354565b6001600160a01b03821661073e5760405162461bcd60e51b815260206004820152602360248201527f45524332303a207472616e7366657220746f20746865207a65726f206164647260448201526265737360e81b6064820152608401610354565b6001600160a01b038316600090815260208190526040902054818110156107b65760405162461bcd60e51b815260206004820152602660248201527f45524332303a207472616e7366657220616d6f756e7420657863656564732062604482015265616c616e636560d01b6064820152608401610354565b6001600160a01b03848116600081815260208181526040808320878703905593871680835291849020805487019055925185815290927fddf252ad1be2c89b69c2b068fc378daa952ba7f163c4a11628f55a4df523b3ef910160405180910390a3610672565b600060208083528351808285015260005b818110156108495785810183015185820160400152820161082d565b506000604082860101526040601f19601f8301168501019250505092915050565b80356001600160a01b038116811461088157600080fd5b919050565b6000806040838503121561089957600080fd5b6108a28361086a565b946020939093013593505050565b6000806000606084860312156108c557600080fd5b6108ce8461086a565b92506108dc6020850161086a565b9150604084013590509250925092565b6000602082840312156108fe57600080fd5b6109078261086a565b9392505050565b6000806040838503121561092157600080fd5b61092a8361086a565b91506109386020840161086a565b90509250929050565b600181811c9082168061095557607f821691505b60208210810361097557634e487b7160e01b600052602260045260246000fd5b50919050565b634e487b7160e01b600052601160045260246000fd5b808201808211156102ee576102ee61097b565b818103818111156102ee576102ee61097b56fea2646970667358221220f50847b8e1b63d0a104eb9a3dc2370f3265acd782d5d26e5a048faa7cac86dea64736f6c63430008130033","linkReferences":{}},"methodIdentifiers":{"allowance(address,address)":"dd62ed3e","approve(address,uint256)":"095ea7b3","balanceOf(address)":"70a08231","decimals()":"313ce567","decreaseAllowance(address,uint256)":"a457c2d7","increaseAllowance(address,uint256)":"39509351","name()":"06fdde03","owner()":"8da5cb5b","symbol()":"95d89b41","taxEnabled()":"870bd30b","toggleTax()":"10bf6029","totalSupply()":"18160ddd","transfer(address,uint256)":"a9059cbb","transferFrom(address,address,uint256)":"23b872dd","treasury()":"61d027b3"},"id":9}