{"abi":[{"type":"function","name":"maxValue","inputs":[],"outputs":[{"name":"","type":"int256","internalType":"int256"}],"stateMutability":"view"}],"bytecode":{"object":"0x6080604052611388600055348015601557600080fd5b50607d806100246000396000f3fe6080604052348015600f57600080fd5b506004361060285760003560e01c806394a5c2e414602d575b600080fd5b603560005481565b60405190815260200160405180910390f3fea2646970667358221220fcbd03cf03bb5f0b8f6ac1630cb009e24809e54925ee6be1314260dbb41c372e64736f6c63430008130033","linkReferences":{}},"methodIdentifiers":{"maxValue()":"94a5c2e4"},"id":6}