{"abi":[{"type":"function","name":"balance","inputs":[],"outputs":[{"name":"","type":"uint256","internalType":"uint256"}],"stateMutability":"view"},{"type":"function","name":"isBalanceEnough","inputs":[{"name":"value","type":"uint256","internalType":"uint256"}],"outputs":[{"name":"","type":"bool","internalType":"bool"}],"stateMutability":"nonpayable"},{"type":"function","name":"isOwnerId","inputs":[{"name":"senderId","type":"bytes16","internalType":"bytes16"}],"outputs":[{"name":"","type":"bool","internalType":"bool"}],"stateMutability":"nonpayable"},{"type":"function","name":"maxValue","inputs":[],"outputs":[{"name":"","type":"int256","internalType":"int256"}],"stateMutability":"view"},{"type":"function","name":"owner","inputs":[],"outputs":[{"name":"","type":"address","internalType":"address"}],"stateMutability":"view"},{"type":"function","name":"ownerId","inputs":[],"outputs":[{"name":"","type":"bytes16","internalType":"bytes16"}],"stateMutability":"view"},{"type":"function","name":"validateMinValue","inputs":[{"name":"value","type":"int256","internalType":"int256"}],"outputs":[{"name":"","type":"bool","internalType":"bool"}],"stateMutability":"view"}],"bytecode":{"object":"0x6080604052611388600055600180546001600160801b0319166001600160801b031790556103e86002556064600355600480546001600160a01b031916610fff17905534801561004e57600080fd5b506102158061005e6000396000f3fe608060405234801561001057600080fd5b506004361061007d5760003560e01c806394a5c2e41161005b57806394a5c2e4146100fb578063b69ef8a814610112578063c1c3ee191461011b578063c587a7e91461012e57600080fd5b8063019c08f514610082578063727784fe146100ad5780638da5cb5b146100d0575b600080fd5b60015461008f9060801b81565b6040516001600160801b031990911681526020015b60405180910390f35b6100c06100bb366004610195565b610141565b60405190151581526020016100a4565b6004546100e3906001600160a01b031681565b6040516001600160a01b0390911681526020016100a4565b61010460005481565b6040519081526020016100a4565b61010460035481565b6100c0610129366004610195565b61015c565b6100c061013c3660046101ae565b610170565b6000600354821161015457506001919050565b506000919050565b600060025482131561015457506001919050565b60015460009060801b6001600160801b03199081169083160361015457506001919050565b6000602082840312156101a757600080fd5b5035919050565b6000602082840312156101c057600080fd5b81356001600160801b0319811681146101d857600080fd5b939250505056fea2646970667358221220402184e61b705422c4b0c86d4383af2e45d761f93749c7d2ba3f786eccea24e364736f6c63430008130033","linkReferences":{}},"methodIdentifiers":{"balance()":"b69ef8a8","isBalanceEnough(uint256)":"727784fe","isOwnerId(bytes16)":"c587a7e9","maxValue()":"94a5c2e4","owner()":"8da5cb5b","ownerId()":"019c08f5","validateMinValue(int256)":"c1c3ee19"},"id":6}