{"abi":[{"type":"function","name":"maxValue","inputs":[],"outputs":[{"name":"","type":"int256","internalType":"int256"}],"stateMutability":"view"},{"type":"function","name":"ownerId","inputs":[],"outputs":[{"name":"","type":"bytes16","internalType":"bytes16"}],"stateMutability":"view"},{"type":"function","name":"validateMinValue","inputs":[{"name":"value","type":"int256","internalType":"int256"}],"outputs":[{"name":"","type":"bool","internalType":"bool"}],"stateMutability":"view"}],"bytecode":{"object":"0x6080604052611388600055600180546001600160801b0319166001600160801b031790556103e860025534801561003557600080fd5b50610110806100456000396000f3fe6080604052348015600f57600080fd5b5060043610603c5760003560e01c8063019c08f514604157806394a5c2e4146074578063c1c3ee19146089575b600080fd5b600154604d9060801b81565b6040516fffffffffffffffffffffffffffffffff1990911681526020015b60405180910390f35b607c60005481565b604051908152602001606b565b6098609436600460c2565b60a7565b6040519015158152602001606b565b600060025482131560ba57506001919050565b506000919050565b60006020828403121560d357600080fd5b503591905056fea2646970667358221220972a05c64bc1bf027b203e77867a708b49b85ca307a8bd3230fa8d1d1fc92c5664736f6c63430008130033","linkReferences":{}},"methodIdentifiers":{"maxValue()":"94a5c2e4","ownerId()":"019c08f5","validateMinValue(int256)":"c1c3ee19"},"id":6}