{"abi":[{"type":"constructor","inputs":[{"name":"creatorId","type":"uint256","internalType":"uint256"},{"name":"creatorAddress","type":"address","internalType":"address"},{"name":"_externalContract","type":"address","internalType":"contract ExternalContract"}],"stateMutability":"nonpayable"},{"type":"function","name":"isOwnerByAddress","inputs":[{"name":"userAddress","type":"address","internalType":"address"}],"outputs":[{"name":"","type":"bool","internalType":"bool"}],"stateMutability":"view"},{"type":"function","name":"isOwnerById","inputs":[{"name":"id","type":"uint256","internalType":"uint256"}],"outputs":[{"name":"","type":"bool","internalType":"bool"}],"stateMutability":"view"}],"bytecode":{"object":"0x608060405234801561001057600080fd5b5060405161022538038061022583398101604081905261002f916100b4565b6040805180820182526001600160a01b039384168082526020918201869052600080546001600160a01b03199081168317909155600187905583518085019094528184529290910185905260028054831690911790556003939093556004805490931691161790556100f7565b6001600160a01b03811681146100b157600080fd5b50565b6000806000606084860312156100c957600080fd5b8351925060208401516100db8161009c565b60408501519092506100ec8161009c565b809150509250925092565b61011f806101066000396000f3fe6080604052348015600f57600080fd5b506004361060325760003560e01c806326bd2772146037578063e7b0c48314605a575b600080fd5b6046604236600460a3565b6069565b604051901515815260200160405180910390f35b6046606536600460bb565b6086565b60008160006001015403607e57506001919050565b506000919050565b600080546001600160a01b03808416911603607e57506001919050565b60006020828403121560b457600080fd5b5035919050565b60006020828403121560cc57600080fd5b81356001600160a01b038116811460e257600080fd5b939250505056fea264697066735822122012338c08ee2228614e230af4606272eb840ff83418522826388d6742e48af27764736f6c63430008130033","linkReferences":{}},"methodIdentifiers":{"isOwnerByAddress(address)":"e7b0c483","isOwnerById(uint256)":"26bd2772"},"id":0}