{"abi":[{"type":"constructor","inputs":[{"name":"productPrice","type":"uint256","internalType":"uint256"},{"name":"storageId","type":"bytes16","internalType":"bytes16"},{"name":"storageQuantity","type":"uint256","internalType":"uint256"}],"stateMutability":"nonpayable"},{"type":"function","name":"buyProduct","inputs":[{"name":"quantity","type":"uint256","internalType":"uint256"}],"outputs":[{"name":"","type":"bool","internalType":"bool"}],"stateMutability":"view"}],"bytecode":{"object":"0x608060405234801561001057600080fd5b506040516101c73803806101c783398101604081905261002f9161007e565b60408051808201825293845280518082019091526001600160801b0319928316815260208082019283528401819052925160005591516001805490921660809190911c179055516002556100c5565b60008060006060848603121561009357600080fd5b835160208501519093506001600160801b0319811681146100b357600080fd5b80925050604084015190509250925092565b60f4806100d36000396000f3fe6080604052348015600f57600080fd5b506004361060285760003560e01c80638642269e14602d575b600080fd5b603c603836600460a6565b6050565b604051901515815260200160405180910390f35b600254600090821115609e5760405162461bcd60e51b81526020600482015260136024820152724e6f7420656e6f756768207175616e7469747960681b604482015260640160405180910390fd5b506001919050565b60006020828403121560b757600080fd5b503591905056fea26469706673582212205ba3ba5865debbaca71981832f2f02a5823ebf6be36904db61991dafc1558ed864736f6c63430008130033","linkReferences":{}},"methodIdentifiers":{"buyProduct(uint256)":"8642269e"},"id":0}