{
  "abi": [
    {
      "inputs": [
        {
          "internalType": "address[]",
          "name": "_allowList",
          "type": "address[]"
        },
        {
          "internalType": "address",
          "name": "_treasury",
          "type": "address"
        }
      ],
      "stateMutability": "nonpayable",
      "type": "constructor"
    },
    {
      "inputs": [],
      "name": "GENERAL_MAX_INDIVIDUAL_CONTRIBUTION",
      "outputs": [
        {
          "internalType": "uint256",
          "name": "",
          "type": "uint256"
        }
      ],
      "stateMutability": "view",
      "type": "function"
    },
    {
      "inputs": [],
      "name": "GENERAL_MAX_TOTAL_CONTRIBUTION",
      "outputs": [
        {
          "internalType": "uint256",
          "name": "",
          "type": "uint256"
        }
      ],
      "stateMutability": "view",
      "type": "function"
    },
    {
      "inputs": [],
      "name": "OPEN_MAX_TOTAL_CONTRIBUTION",
      "outputs": [
        {
          "internalType": "uint256",
          "name": "",
          "type": "uint256"
        }
      ],
      "stateMutability": "view",
      "type": "function"
    },
    {
      "inputs": [],
      "name": "SEED_MAX_INDIVIDUAL_CONTRIBUTION",
      "outputs": [
        {
          "internalType": "uint256",
          "name": "",
          "type": "uint256"
        }
      ],
      "stateMutability": "view",
      "type": "function"
    },
    {
      "inputs": [],
      "name": "SEED_MAX_TOTAL_CONTRIBUTION",
      "outputs": [
        {
          "internalType": "uint256",
          "name": "",
          "type": "uint256"
        }
      ],
      "stateMutability": "view",
      "type": "function"
    },
    {
      "inputs": [],
      "name": "acceptingContributions",
      "outputs": [
        {
          "internalType": "bool",
          "name": "",
          "type": "bool"
        }
      ],
      "stateMutability": "view",
      "type": "function"
    },
    {
      "inputs": [],
      "name": "acceptingRedemptions",
      "outputs": [
        {
          "internalType": "bool",
          "name": "",
          "type": "bool"
        }
      ],
      "stateMutability": "view",
      "type": "function"
    },
    {
      "inputs": [
        {
          "internalType": "address",
          "name": "_address",
          "type": "address"
        }
      ],
      "name": "addressAllowed",
      "outputs": [
        {
          "internalType": "bool",
          "name": "",
          "type": "bool"
        }
      ],
      "stateMutability": "view",
      "type": "function"
    },
    {
      "inputs": [
        {
          "internalType": "string",
          "name": "_confirmation",
          "type": "string"
        }
      ],
      "name": "advancePhase",
      "outputs": [],
      "stateMutability": "nonpayable",
      "type": "function"
    },
    {
      "inputs": [
        {
          "internalType": "uint256",
          "name": "",
          "type": "uint256"
        }
      ],
      "name": "allowList",
      "outputs": [
        {
          "internalType": "address",
          "name": "",
          "type": "address"
        }
      ],
      "stateMutability": "view",
      "type": "function"
    },
    {
      "inputs": [],
      "name": "contribute",
      "outputs": [],
      "stateMutability": "payable",
      "type": "function"
    },
    {
      "inputs": [
        {
          "internalType": "address",
          "name": "",
          "type": "address"
        }
      ],
      "name": "contributions",
      "outputs": [
        {
          "internalType": "uint256",
          "name": "",
          "type": "uint256"
        }
      ],
      "stateMutability": "view",
      "type": "function"
    },
    {
      "inputs": [],
      "name": "freeMind",
      "outputs": [],
      "stateMutability": "nonpayable",
      "type": "function"
    },
    {
      "inputs": [],
      "name": "fundingPhase",
      "outputs": [
        {
          "internalType": "enum FundingPhase",
          "name": "",
          "type": "uint8"
        }
      ],
      "stateMutability": "view",
      "type": "function"
    },
    {
      "inputs": [],
      "name": "mostRecentAdvancePhaseBlock",
      "outputs": [
        {
          "internalType": "uint256",
          "name": "",
          "type": "uint256"
        }
      ],
      "stateMutability": "view",
      "type": "function"
    },
    {
      "inputs": [],
      "name": "owner",
      "outputs": [
        {
          "internalType": "address",
          "name": "",
          "type": "address"
        }
      ],
      "stateMutability": "view",
      "type": "function"
    },
    {
      "inputs": [],
      "name": "redeem",
      "outputs": [],
      "stateMutability": "nonpayable",
      "type": "function"
    },
    {
      "inputs": [
        {
          "internalType": "address",
          "name": "",
          "type": "address"
        }
      ],
      "name": "redeemed",
      "outputs": [
        {
          "internalType": "uint256",
          "name": "",
          "type": "uint256"
        }
      ],
      "stateMutability": "view",
      "type": "function"
    },
    {
      "inputs": [],
      "name": "toggleAcceptingContributions",
      "outputs": [],
      "stateMutability": "nonpayable",
      "type": "function"
    },
    {
      "inputs": [],
      "name": "toggleAcceptingRedemptions",
      "outputs": [],
      "stateMutability": "nonpayable",
      "type": "function"
    },
    {
      "inputs": [],
      "name": "token",
      "outputs": [
        {
          "internalType": "contract SpaceCoin",
          "name": "",
          "type": "address"
        }
      ],
      "stateMutability": "view",
      "type": "function"
    },
    {
      "inputs": [],
      "name": "totalContributions",
      "outputs": [
        {
          "internalType": "uint256",
          "name": "",
          "type": "uint256"
        }
      ],
      "stateMutability": "view",
      "type": "function"
    }
  ],
  "bytecode": {
    "object": "0x60806040523480156200001157600080fd5b5060405162002116380380620021168339810160408190526200003491620001ca565b81516200004990600690602085019062000108565b506000805462010000338102610100600160b01b031990921691909117918290556040518392919091046001600160a01b031690620000889062000172565b6001600160a01b03928316815291166020820152604001604051809103906000f080158015620000bc573d6000803e3d6000fd5b50600480546001600160a01b0319166001600160a01b039290921691909117905550506007805460ff1990811660019081179092556000805490911682178155905543600555620002b0565b82805482825590600052602060002090810192821562000160579160200282015b828111156200016057825182546001600160a01b0319166001600160a01b0390911617825560209092019160019091019062000129565b506200016e92915062000180565b5090565b610de3806200133383390190565b5b808211156200016e576000815560010162000181565b634e487b7160e01b600052604160045260246000fd5b80516001600160a01b0381168114620001c557600080fd5b919050565b60008060408385031215620001de57600080fd5b82516001600160401b0380821115620001f657600080fd5b818501915085601f8301126200020b57600080fd5b815160208282111562000222576200022262000197565b8160051b604051601f19603f830116810181811086821117156200024a576200024a62000197565b6040529283528183019350848101820192898411156200026957600080fd5b948201945b8386101562000292576200028286620001ad565b855294820194938201936200026e565b9650620002a39050878201620001ad565b9450505050509250929050565b61107380620002c06000396000f3fe6080604052600436106101355760003560e01c80638da5cb5b116100ab578063be040fb01161006f578063be040fb014610366578063c145e3a31461037b578063d7bb99ba14610398578063d9b6c8f11461030e578063ed55aed2146103a0578063fc0c546a146103b557600080fd5b80638da5cb5b146102bb5780639f4568ef146102e1578063a454bbb91461030e578063a62306e51461032c578063b37735841461034657600080fd5b806342e94c90116100fd57806342e94c90146101ec57806343757154146102195780635b311cc91461023757806362a6d1971461024e57806375a51f34146102865780638b0cf473146102a657600080fd5b80630c4ed7d61461013a5780631a7d5b9e1461016a5780631e7aa1f61461019457806320e3b5ac146101aa57806337c08923146101d6575b600080fd5b34801561014657600080fd5b50610157683635c9adc5dea0000081565b6040519081526020015b60405180910390f35b34801561017657600080fd5b506000546101849060ff1681565b6040519015158152602001610161565b3480156101a057600080fd5b5061015760055481565b3480156101b657600080fd5b506000546101c990610100900460ff1681565b6040516101619190610d8f565b3480156101e257600080fd5b5061015760015481565b3480156101f857600080fd5b50610157610207366004610db7565b60026020526000908152604090205481565b34801561022557600080fd5b5061015769032d26d12e980b60000081565b34801561024357600080fd5b5061024c6103d5565b005b34801561025a57600080fd5b5061026e610269366004610de7565b610422565b6040516001600160a01b039091168152602001610161565b34801561029257600080fd5b506101846102a1366004610db7565b61044c565b3480156102b257600080fd5b5061024c6104b5565b3480156102c757600080fd5b5060005461026e906201000090046001600160a01b031681565b3480156102ed57600080fd5b506101576102fc366004610db7565b60036020526000908152604090205481565b34801561031a57600080fd5b5061015769065a4da25d3016c0000081565b34801561033857600080fd5b506007546101849060ff1681565b34801561035257600080fd5b5061024c610361366004610e16565b6104f9565b34801561037257600080fd5b5061024c61082a565b34801561038757600080fd5b50610157685150ae84a8cdf0000081565b61024c6109b9565b3480156103ac57600080fd5b5061024c610a8d565b3480156103c157600080fd5b5060045461026e906001600160a01b031681565b6000546201000090046001600160a01b0316331461040e5760405162461bcd60e51b815260040161040590610ec7565b60405180910390fd5b6000805460ff19811660ff90911615179055565b6006818154811061043257600080fd5b6000918252602090912001546001600160a01b0316905081565b6000805b6006548110156104ac57826001600160a01b03166006828154811061047757610477610f08565b6000918252602090912001546001600160a01b03160361049a5750600192915050565b806104a481610f34565b915050610450565b50600092915050565b6000546201000090046001600160a01b031633146104e55760405162461bcd60e51b815260040161040590610ec7565b6007805460ff19811660ff90911615179055565b6000546201000090046001600160a01b031633146105295760405162461bcd60e51b815260040161040590610ec7565b60055443116105905760405162461bcd60e51b815260206004820152602d60248201527f43616e6e6f7420616476616e6365207068617365206d6f7265207468616e206f60448201526c6e63652070657220626c6f636b60981b6064820152608401610405565b4360055560008054610100900460ff1660028111156105b1576105b1610d79565b036106c6576040516611d1539154905360ca1b602082015260270160405160208183030381529060405280519060200120816040516020016105f39190610f4d565b60405160208183030381529060405280519060200120146106ac5760405162461bcd60e51b815260206004820152606160248201527f436f6e6669726d6174696f6e20737472696e6720646f6573206e6f74206d617460448201527f6368202d2d20696620796f752077616e7420746f20616476616e636520746f2060648201527f67656e6572616c2c207573652074686520737472696e67202747454e4552414c6084820152602760f81b60a482015260c401610405565b600080546001919061ff001916610100835b021790555050565b6001600054610100900460ff1660028111156106e4576106e4610d79565b036107e8576040516327a822a760e11b602082015260240160405160208183030381529060405280519060200120816040516020016107239190610f4d565b60405160208183030381529060405280519060200120146107d25760405162461bcd60e51b815260206004820152605b60248201527f436f6e6669726d6174696f6e20737472696e6720646f6573206e6f74206d617460448201527f6368202d2d20696620796f752077616e7420746f20616476616e636520746f2060648201527f6f70656e2c207573652074686520737472696e6720274f50454e270000000000608482015260a401610405565b600080546002919061ff001916610100836106be565b60405162461bcd60e51b815260206004820152601460248201527343616e6e6f7420616476616e636520706861736560601b6044820152606401610405565b50565b60005460ff1661087c5760405162461bcd60e51b815260206004820152601960248201527f4e6f7420616363657074696e6720726564656d7074696f6e73000000000000006044820152606401610405565b33600090815260036020908152604080832054600290925290912054116108e55760405162461bcd60e51b815260206004820152601a60248201527f4e6f20636f6e747269627574696f6e7320746f2072656465656d0000000000006044820152606401610405565b33600090815260036020908152604080832054600290925282205461090a9190610f7c565b610915906005610f95565b33600090815260036020526040812080549293508392909190610939908490610fac565b90915550506004805460405163a9059cbb60e01b81523392810192909252602482018390526001600160a01b03169063a9059cbb906044015b6020604051808303816000875af1158015610991573d6000803e3d6000fd5b505050506040513d601f19601f820116820180604052508101906109b59190610fbf565b5050565b60075460ff16610a0b5760405162461bcd60e51b815260206004820152601b60248201527f4e6f7420616363657074696e6720636f6e747269627574696f6e7300000000006044820152606401610405565b60008054610100900460ff166002811115610a2857610a28610d79565b03610a3757610a35610b73565b565b6001600054610100900460ff166002811115610a5557610a55610d79565b03610a6257610a35610ce7565b6002600054610100900460ff166002811115610a8057610a80610d79565b03610a3557610a35610d60565b600480546040516370a0823160e01b815230928101929092526001600160a01b03169063a9059cbb90339083906370a0823190602401602060405180830381865afa158015610ae0573d6000803e3d6000fd5b505050506040513d601f19601f82011682018060405250810190610b049190610fe1565b6040516001600160e01b031960e085901b1681526001600160a01b03909216600483015260248201526044016020604051808303816000875af1158015610b4f573d6000803e3d6000fd5b505050506040513d601f19601f820116820180604052508101906108279190610fbf565b610b7c3361044c565b610bd25760405162461bcd60e51b815260206004820152602160248201527f41646472657373206e6f7420616c6c6f77656420746f20636f6e7472696275746044820152606560f81b6064820152608401610405565b33600090815260026020526040902054685150ae84a8cdf0000090610bf8903490610fac565b10610c5f5760405162461bcd60e51b815260206004820152603160248201527f53656564207068617365206d617820636f6e747269627574696f6e20726561636044820152701a1959080b4b481a5b991a5d9a591d585b607a1b6064820152608401610405565b3360009081526002602052604081208054349290610c7e908490610fac565b925050819055503460016000828254610c979190610fac565b9091555060009050610caa346005610f95565b6004805460405163a9059cbb60e01b81523392810192909252602482018390529192506001600160a01b039091169063a9059cbb90604401610972565b69065a4da25d3016c0000034600154610d009190610fac565b10610d1d5760405162461bcd60e51b815260040161040590610ffa565b33600090815260026020526040902054683635c9adc5dea0000090610d43903490610fac565b10610c5f5760405162461bcd60e51b815260040161040590610ffa565b69065a4da25d3016c0000034600154610d439190610fac565b634e487b7160e01b600052602160045260246000fd5b6020810160038310610db157634e487b7160e01b600052602160045260246000fd5b91905290565b600060208284031215610dc957600080fd5b81356001600160a01b0381168114610de057600080fd5b9392505050565b600060208284031215610df957600080fd5b5035919050565b634e487b7160e01b600052604160045260246000fd5b600060208284031215610e2857600080fd5b813567ffffffffffffffff80821115610e4057600080fd5b818401915084601f830112610e5457600080fd5b813581811115610e6657610e66610e00565b604051601f8201601f19908116603f01168101908382118183101715610e8e57610e8e610e00565b81604052828152876020848701011115610ea757600080fd5b826020860160208301376000928101602001929092525095945050505050565b60208082526021908201527f4f6e6c79206f776e65722063616e2063616c6c20746869732066756e6374696f6040820152603760f91b606082015260800190565b634e487b7160e01b600052603260045260246000fd5b634e487b7160e01b600052601160045260246000fd5b600060018201610f4657610f46610f1e565b5060010190565b6000825160005b81811015610f6e5760208186018101518583015201610f54565b506000920191825250919050565b81810381811115610f8f57610f8f610f1e565b92915050565b8082028115828204841417610f8f57610f8f610f1e565b80820180821115610f8f57610f8f610f1e565b600060208284031215610fd157600080fd5b81518015158114610de057600080fd5b600060208284031215610ff357600080fd5b5051919050565b60208082526023908201527f53656564207068617365206d617820636f6e747269627574696f6e20726561636040820152621a195960ea1b60608201526080019056fea26469706673582212200fcdf4be0692cd647f5b38d9d7a44eaedf44e1b146e976462bc54718b45b3cb064736f6c6343000813003360806040526006805460ff60a01b1916600160a01b1790553480156200002457600080fd5b5060405162000de338038062000de383398101604081905262000047916200020b565b6040518060400160405280600981526020016829b830b1b2a1b7b4b760b91b8152506040518060400160405280600381526020016253504360e81b8152508160039081620000969190620002e7565b506004620000a58282620002e7565b5050600680546001600160a01b038085166001600160a01b031992831617909255600580549286169290911691909117905550620000ee620000e43390565b620249f062000123565b60055462000109906001600160a01b03166205573062000123565b5050600780546001600160a01b03191633179055620003db565b6001600160a01b0382166200017e5760405162461bcd60e51b815260206004820152601f60248201527f45524332303a206d696e7420746f20746865207a65726f206164647265737300604482015260640160405180910390fd5b8060026000828254620001929190620003b3565b90915550506001600160a01b038216600081815260208181526040808320805486019055518481527fddf252ad1be2c89b69c2b068fc378daa952ba7f163c4a11628f55a4df523b3ef910160405180910390a35050565b505050565b80516001600160a01b03811681146200020657600080fd5b919050565b600080604083850312156200021f57600080fd5b6200022a83620001ee565b91506200023a60208401620001ee565b90509250929050565b634e487b7160e01b600052604160045260246000fd5b600181811c908216806200026e57607f821691505b6020821081036200028f57634e487b7160e01b600052602260045260246000fd5b50919050565b601f821115620001e957600081815260208120601f850160051c81016020861015620002be5750805b601f850160051c820191505b81811015620002df57828155600101620002ca565b505050505050565b81516001600160401b0381111562000303576200030362000243565b6200031b8162000314845462000259565b8462000295565b602080601f8311600181146200035357600084156200033a5750858301515b600019600386901b1c1916600185901b178555620002df565b600085815260208120601f198616915b82811015620003845788860151825594840194600190910190840162000363565b5085821015620003a35787850151600019600388901b60f8161c191681555b5050505050600190811b01905550565b80820180821115620003d557634e487b7160e01b600052601160045260246000fd5b92915050565b6109f880620003eb6000396000f3fe608060405234801561001057600080fd5b50600436106101005760003560e01c806361d027b31161009757806395d89b411161006657806395d89b4114610225578063a457c2d71461022d578063a9059cbb14610240578063dd62ed3e1461025357600080fd5b806361d027b3146101c257806370a08231146101d5578063870bd30b146101fe5780638da5cb5b1461021257600080fd5b806323b872dd116100d357806323b872dd14610162578063313ce5671461017557806339509351146101845780635d4522011461019757600080fd5b806306fdde0314610105578063095ea7b31461012357806310bf60291461014657806318160ddd14610150575b600080fd5b61010d610266565b60405161011a9190610827565b60405180910390f35b610136610131366004610891565b6102f8565b604051901515815260200161011a565b61014e610312565b005b6002545b60405190815260200161011a565b6101366101703660046108bb565b61039c565b6040516012815260200161011a565b610136610192366004610891565b6103c0565b6007546101aa906001600160a01b031681565b6040516001600160a01b03909116815260200161011a565b6005546101aa906001600160a01b031681565b6101546101e33660046108f7565b6001600160a01b031660009081526020819052604090205490565b60065461013690600160a01b900460ff1681565b6006546101aa906001600160a01b031681565b61010d6103e2565b61013661023b366004610891565b6103f1565b61013661024e366004610891565b61046c565b610154610261366004610919565b6104ba565b6060600380546102759061094c565b80601f01602080910402602001604051908101604052809291908181526020018280546102a19061094c565b80156102ee5780601f106102c3576101008083540402835291602001916102ee565b820191906000526020600020905b8154815290600101906020018083116102d157829003601f168201915b5050505050905090565b6000336103068185856104e5565b60019150505b92915050565b6006546001600160a01b0316331461037b5760405162461bcd60e51b815260206004820152602160248201527f4f6e6c79206f776e65722063616e2063616c6c20746869732066756e6374696f6044820152603760f91b60648201526084015b60405180910390fd5b6006805460ff60a01b198116600160a01b9182900460ff1615909102179055565b6000336103aa858285610609565b6103b5858585610683565b506001949350505050565b6000336103068185856103d383836104ba565b6103dd919061099c565b6104e5565b6060600480546102759061094c565b600033816103ff82866104ba565b90508381101561045f5760405162461bcd60e51b815260206004820152602560248201527f45524332303a2064656372656173656420616c6c6f77616e63652062656c6f77604482015264207a65726f60d81b6064820152608401610372565b6103b582868684036104e5565b600060648211156104af576002600061048582856109af565b905061049d336005546001600160a01b031684610683565b6104a8338683610683565b505061030c565b61030c338484610683565b6001600160a01b03918216600090815260016020908152604080832093909416825291909152205490565b6001600160a01b0383166105475760405162461bcd60e51b8152602060048201526024808201527f45524332303a20617070726f76652066726f6d20746865207a65726f206164646044820152637265737360e01b6064820152608401610372565b6001600160a01b0382166105a85760405162461bcd60e51b815260206004820152602260248201527f45524332303a20617070726f766520746f20746865207a65726f206164647265604482015261737360f01b6064820152608401610372565b6001600160a01b0383811660008181526001602090815260408083209487168084529482529182902085905590518481527f8c5be1e5ebec7d5bd14f71427d1e84f3dd0314c0f7b2291e5b200ac8c7c3b925910160405180910390a3505050565b600061061584846104ba565b9050600019811461067d57818110156106705760405162461bcd60e51b815260206004820152601d60248201527f45524332303a20696e73756666696369656e7420616c6c6f77616e63650000006044820152606401610372565b61067d84848484036104e5565b50505050565b6001600160a01b0383166106e75760405162461bcd60e51b815260206004820152602560248201527f45524332303a207472616e736665722066726f6d20746865207a65726f206164604482015264647265737360d81b6064820152608401610372565b6001600160a01b0382166107495760405162461bcd60e51b815260206004820152602360248201527f45524332303a207472616e7366657220746f20746865207a65726f206164647260448201526265737360e81b6064820152608401610372565b6001600160a01b038316600090815260208190526040902054818110156107c15760405162461bcd60e51b815260206004820152602660248201527f45524332303a207472616e7366657220616d6f756e7420657863656564732062604482015265616c616e636560d01b6064820152608401610372565b6001600160a01b03848116600081815260208181526040808320878703905593871680835291849020805487019055925185815290927fddf252ad1be2c89b69c2b068fc378daa952ba7f163c4a11628f55a4df523b3ef910160405180910390a361067d565b600060208083528351808285015260005b8181101561085457858101830151858201604001528201610838565b506000604082860101526040601f19601f8301168501019250505092915050565b80356001600160a01b038116811461088c57600080fd5b919050565b600080604083850312156108a457600080fd5b6108ad83610875565b946020939093013593505050565b6000806000606084860312156108d057600080fd5b6108d984610875565b92506108e760208501610875565b9150604084013590509250925092565b60006020828403121561090957600080fd5b61091282610875565b9392505050565b6000806040838503121561092c57600080fd5b61093583610875565b915061094360208401610875565b90509250929050565b600181811c9082168061096057607f821691505b60208210810361098057634e487b7160e01b600052602260045260246000fd5b50919050565b634e487b7160e01b600052601160045260246000fd5b8082018082111561030c5761030c610986565b8181038181111561030c5761030c61098656fea26469706673582212200fef7ddabe898e68fc4d221903e6f0a705673695a152a9cd956ad49a044b578a64736f6c63430008130033",
    "linkReferences": {}
  },
  "methodIdentifiers": {
    "GENERAL_MAX_INDIVIDUAL_CONTRIBUTION()": "0c4ed7d6",
    "GENERAL_MAX_TOTAL_CONTRIBUTION()": "d9b6c8f1",
    "OPEN_MAX_TOTAL_CONTRIBUTION()": "a454bbb9",
    "SEED_MAX_INDIVIDUAL_CONTRIBUTION()": "c145e3a3",
    "SEED_MAX_TOTAL_CONTRIBUTION()": "43757154",
    "acceptingContributions()": "a62306e5",
    "acceptingRedemptions()": "1a7d5b9e",
    "addressAllowed(address)": "75a51f34",
    "advancePhase(string)": "b3773584",
    "allowList(uint256)": "62a6d197",
    "contribute()": "d7bb99ba",
    "contributions(address)": "42e94c90",
    "freeMind()": "ed55aed2",
    "fundingPhase()": "20e3b5ac",
    "mostRecentAdvancePhaseBlock()": "1e7aa1f6",
    "owner()": "8da5cb5b",
    "redeem()": "be040fb0",
    "redeemed(address)": "9f4568ef",
    "toggleAcceptingContributions()": "8b0cf473",
    "toggleAcceptingRedemptions()": "5b311cc9",
    "token()": "fc0c546a",
    "totalContributions()": "37c08923"
  },
  "id": 0
}