{"abi":[{"type":"constructor","inputs":[],"stateMutability":"nonpayable"},{"type":"function","name":"addressStateVariableComparison","inputs":[{"name":"owner","type":"address","internalType":"address"}],"outputs":[{"name":"","type":"uint256","internalType":"uint256"}],"stateMutability":"view"}],"bytecode":{"object":"0x608060405234801561001057600080fd5b50600080546001600160a01b031916610fff179055600180546001600160811b036001600160881b03199091161790556103e860025561010b806100556000396000f3fe6080604052348015600f57600080fd5b506004361060285760003560e01c806304b8eb1e14602d575b600080fd5b603c603836600460a7565b604e565b60405190815260200160405180910390f35b6000805482906001600160a01b03808316911614609d5760405162461bcd60e51b81526020600482015260096024820152682737ba1037bbb732b960b91b604482015260640160405180910390fd5b5050600254919050565b60006020828403121560b857600080fd5b81356001600160a01b038116811460ce57600080fd5b939250505056fea26469706673582212208d1cd8680b33e9af01de63e6555a20e68393026ab514c9da4e8330f6151c236264736f6c63430008130033","linkReferences":{}},"methodIdentifiers":{"addressStateVariableComparison(address)":"04b8eb1e"},"id":28}