{"abi":[{"type":"constructor","inputs":[{"name":"_ownerAddress","type":"address","internalType":"address"},{"name":"_ownerId","type":"bytes16","internalType":"bytes16"},{"name":"_paused","type":"bool","internalType":"bool"},{"name":"_totalBalance","type":"uint256","internalType":"uint256"}],"stateMutability":"nonpayable"},{"type":"function","name":"addressStateVariableComparison","inputs":[{"name":"owner","type":"address","internalType":"address"}],"outputs":[{"name":"","type":"uint256","internalType":"uint256"}],"stateMutability":"view"},{"type":"function","name":"boolStateVariableComparison","inputs":[],"outputs":[{"name":"","type":"uint256","internalType":"uint256"}],"stateMutability":"view"},{"type":"function","name":"bytesStateVariableComparison","inputs":[{"name":"id","type":"bytes16","internalType":"bytes16"}],"outputs":[{"name":"","type":"address","internalType":"address"}],"stateMutability":"view"},{"type":"function","name":"uintStateVariableComparison","inputs":[{"name":"amount","type":"uint256","internalType":"uint256"}],"outputs":[{"name":"","type":"bool","internalType":"bool"}],"stateMutability":"view"}],"bytecode":{"object":"0x608060405234801561001057600080fd5b5060405161037038038061037083398101604081905261002f9161007f565b600080546001600160a01b039095166001600160a01b03199095169490941790935560018054911515600160801b026001600160881b031990921660809390931c929092171790556002556100f0565b6000806000806080858703121561009557600080fd5b84516001600160a01b03811681146100ac57600080fd5b60208601519094506001600160801b0319811681146100ca57600080fd5b604086015190935080151581146100e057600080fd5b6060959095015193969295505050565b610271806100ff6000396000f3fe608060405234801561001057600080fd5b506004361061004c5760003560e01c806304b8eb1e146100515780633aab51d51461007757806346180ec31461007f57806383f4ee51146100aa575b600080fd5b61006461005f3660046101c8565b6100cd565b6040519081526020015b60405180910390f35b610064610128565b61009261008d3660046101f8565b610175565b6040516001600160a01b03909116815260200161006e565b6100bd6100b8366004610222565b6101ac565b604051901515815260200161006e565b6000805482906001600160a01b0380831691161461011e5760405162461bcd60e51b81526020600482015260096024820152682737ba1037bbb732b960b91b60448201526064015b60405180910390fd5b5050600254919050565b600154600090600160801b900460ff161561016e5760405162461bcd60e51b815260206004820152600660248201526514185d5cd95960d21b6044820152606401610115565b5060025490565b6001546000906001600160801b031980841660809290921b16036101a45750506000546001600160a01b031690565b506000919050565b60006002548211156101c057506000919050565b506001919050565b6000602082840312156101da57600080fd5b81356001600160a01b03811681146101f157600080fd5b9392505050565b60006020828403121561020a57600080fd5b81356001600160801b0319811681146101f157600080fd5b60006020828403121561023457600080fd5b503591905056fea2646970667358221220a9e35cdc8af7eba7639db1722d3778c2841f5b92ace440ad3673782472b8bd0a64736f6c63430008130033","linkReferences":{}},"methodIdentifiers":{"addressStateVariableComparison(address)":"04b8eb1e","boolStateVariableComparison()":"3aab51d5","bytesStateVariableComparison(bytes16)":"46180ec3","uintStateVariableComparison(uint256)":"83f4ee51"},"id":28}