{"abi":[{"type":"constructor","inputs":[{"name":"_owner","type":"tuple","internalType":"struct InheritanceContract2.User","components":[{"name":"id","type":"bytes16","internalType":"bytes16"},{"name":"_address","type":"address","internalType":"address"}]}],"stateMutability":"nonpayable"},{"type":"function","name":"structStateVariableComparison","inputs":[{"name":"user","type":"tuple","internalType":"struct InheritanceContract2.User","components":[{"name":"id","type":"bytes16","internalType":"bytes16"},{"name":"_address","type":"address","internalType":"address"}]}],"outputs":[{"name":"","type":"bool","internalType":"bool"}],"stateMutability":"view"}],"bytecode":{"object":"0x608060405234801561001057600080fd5b5060405161026838038061026883398101604081905261002f91610073565b8051600080546001600160801b03191660809290921c91909117905560200151600180546001600160a01b0319166001600160a01b039092169190911790556100f8565b60006040828403121561008557600080fd5b604080519081016001600160401b03811182821017156100b557634e487b7160e01b600052604160045260246000fd5b60405282516001600160801b0319811681146100d057600080fd5b815260208301516001600160a01b03811681146100ec57600080fd5b60208201529392505050565b610161806101076000396000f3fe608060405234801561001057600080fd5b506004361061002b5760003560e01c8063a9dcc64614610030575b600080fd5b61004361003e3660046100a5565b610057565b604051901515815260200160405180910390f35b80516000805490916001600160801b031990811660809290921b161480610090575060208201516001546001600160a01b039081169116145b1561009d57506001919050565b506000919050565b6000604082840312156100b757600080fd5b6040516040810181811067ffffffffffffffff821117156100e857634e487b7160e01b600052604160045260246000fd5b60405282356001600160801b03198116811461010357600080fd5b815260208301356001600160a01b038116811461011f57600080fd5b6020820152939250505056fea2646970667358221220f1e91f8bf1906c28576197062701ca0829af6561d0dfbe2aa4a24839f2acd58b64736f6c63430008130033","linkReferences":{}},"methodIdentifiers":{"structStateVariableComparison((bytes16,address))":"a9dcc646"},"id":28}