{"abi":[{"type":"function","name":"msgSenderEqualToStateVariable","inputs":[],"outputs":[{"name":"","type":"bool","internalType":"bool"}],"stateMutability":"view"}],"bytecode":{"object":"0x608060405234801561001057600080fd5b50600080546001600160a01b0319163317905560d7806100316000396000f3fe6080604052348015600f57600080fd5b506004361060285760003560e01c806329a46e2f14602d575b600080fd5b60336047565b604051901515815260200160405180910390f35b600080546001600160a01b03163314609b5760405162461bcd60e51b815260206004820152601360248201527229b2b73232b91034b9903737ba1037bbb732b960691b604482015260640160405180910390fd5b5060019056fea2646970667358221220b78a5011c603b0dc8e65574508e76d90fb69aee7d86b3fe731e7c5e2d55ea25764736f6c63430008130033","linkReferences":{}},"methodIdentifiers":{"msgSenderEqualToStateVariable()":"29a46e2f"},"id":28}