{"abi":[{"type":"function","name":"addressAssignmentLocalVariableBeforeComparison","inputs":[{"name":"receiver","type":"address","internalType":"address"}],"outputs":[{"name":"","type":"bool","internalType":"bool"}],"stateMutability":"view"},{"type":"function","name":"externalStructExternalContractUintComparison","inputs":[{"name":"externalMainStructExternalContract","type":"tuple","internalType":"struct ExternalStructExternalContract.MainStruct","components":[{"name":"internalStruct","type":"tuple","internalType":"struct ExternalStructExternalContract.InternalStruct","components":[{"name":"number","type":"uint256","internalType":"uint256"}]},{"name":"isEnabled","type":"bool","internalType":"bool"}]}],"outputs":[{"name":"","type":"bool","internalType":"bool"}],"stateMutability":"view"},{"type":"function","name":"externalStructExternalFileUintComparison","inputs":[{"name":"externalStructExternalFile","type":"tuple","internalType":"struct ExternalStructExternalFile","components":[{"name":"number","type":"uint256","internalType":"uint256"},{"name":"isEnabled","type":"bool","internalType":"bool"}]}],"outputs":[{"name":"","type":"bool","internalType":"bool"}],"stateMutability":"view"},{"type":"function","name":"externalStructUintComparison","inputs":[{"name":"externalStruct","type":"tuple","internalType":"struct ExternalStruct","components":[{"name":"number","type":"uint256","internalType":"uint256"}]}],"outputs":[{"name":"","type":"bool","internalType":"bool"}],"stateMutability":"view"},{"type":"function","name":"intDeclararionAndAssignmentSeparateVariableBeforeComparison","inputs":[{"name":"id","type":"int256","internalType":"int256"}],"outputs":[{"name":"","type":"bool","internalType":"bool"}],"stateMutability":"view"},{"type":"function","name":"internalStructUintComparison","inputs":[{"name":"internalStruct","type":"tuple","internalType":"struct StructComparison.InternalStruct","components":[{"name":"number","type":"uint256","internalType":"uint256"}]}],"outputs":[{"name":"","type":"bool","internalType":"bool"}],"stateMutability":"view"},{"type":"function","name":"msgValueLessThanParameter","inputs":[{"name":"valueToTransfer","type":"uint256","internalType":"uint256"}],"outputs":[{"name":"","type":"bool","internalType":"bool"}],"stateMutability":"payable"},{"type":"function","name":"sample","inputs":[{"name":"receiver","type":"address","internalType":"address"}],"outputs":[{"name":"","type":"bool","internalType":"bool"}],"stateMutability":"view"}],"bytecode":{"object":"0x608060405234801561001057600080fd5b506103f1806100206000396000f3fe60806040526004361061007b5760003560e01c8063a025c4221161004e578063a025c42214610114578063cb6fbce114610134578063e50de54514610154578063f4691c361461016f57600080fd5b80631939d3021461008057806332eeab65146100b457806340616467146100d457806363c3a4a4146100f4575b600080fd5b34801561008c57600080fd5b506100a061009b366004610257565b610182565b604051901515815260200160405180910390f35b3480156100c057600080fd5b506100a06100cf366004610257565b6101a7565b3480156100e057600080fd5b506100a06100ef366004610287565b6101cd565b34801561010057600080fd5b506100a061010f3660046102e7565b6101e0565b34801561012057600080fd5b506100a061012f36600461036d565b6101ff565b34801561014057600080fd5b506100a061014f36600461039f565b610222565b34801561016057600080fd5b506100a061010f36600461039f565b6100a061017d366004610287565b610238565b600081336001600160a01b0382160361019e5750600092915050565b50600192915050565b6000806101b383610182565b905080156101c45750600192915050565b50600092915050565b60008180820361019e5750600092915050565b600060c8826000015111156101f757506001919050565b506000919050565b80515160009060c8108015610215575081602001515b156101f757506001919050565b600060648260000151106101f757506001919050565b60008134101561024a57506000919050565b506001919050565b919050565b60006020828403121561026957600080fd5b81356001600160a01b038116811461028057600080fd5b9392505050565b60006020828403121561029957600080fd5b5035919050565b6040805190810167ffffffffffffffff811182821017156102d157634e487b7160e01b600052604160045260246000fd5b60405290565b8035801515811461025257600080fd5b6000604082840312156102f957600080fd5b6103016102a0565b82358152610311602084016102d7565b60208201529392505050565b60006020828403121561032f57600080fd5b6040516020810181811067ffffffffffffffff8211171561036057634e487b7160e01b600052604160045260246000fd5b6040529135825250919050565b60006040828403121561037f57600080fd5b6103876102a0565b610391848461031d565b8152610311602084016102d7565b6000602082840312156103b157600080fd5b610280838361031d56fea264697066735822122087182e8539672449d3fea5671d3d27b5f385e3a095ab2d97b9d97bf7db7cc8d264736f6c63430008130033","linkReferences":{}},"methodIdentifiers":{"addressAssignmentLocalVariableBeforeComparison(address)":"1939d302","externalStructExternalContractUintComparison(((uint256),bool))":"a025c422","externalStructExternalFileUintComparison((uint256,bool))":"63c3a4a4","externalStructUintComparison((uint256))":"cb6fbce1","intDeclararionAndAssignmentSeparateVariableBeforeComparison(int256)":"40616467","internalStructUintComparison((uint256))":"e50de545","msgValueLessThanParameter(uint256)":"f4691c36","sample(address)":"32eeab65"},"id":28}