{"abi":[{"type":"constructor","inputs":[{"name":"_owner","type":"address","internalType":"address"},{"name":"_isEnabled","type":"bool","internalType":"bool"}],"stateMutability":"nonpayable"},{"type":"function","name":"addressStateVariableComparison","inputs":[{"name":"receiver","type":"address","internalType":"address"},{"name":"owner","type":"address","internalType":"address"}],"outputs":[{"name":"","type":"uint256","internalType":"uint256"}],"stateMutability":"view"},{"type":"function","name":"boolStateVariableComparison","inputs":[],"outputs":[{"name":"","type":"uint256","internalType":"uint256"}],"stateMutability":"view"},{"type":"function","name":"bytesStateVariableComparison","inputs":[{"name":"_id","type":"bytes8","internalType":"bytes8"}],"outputs":[{"name":"","type":"bool","internalType":"bool"}],"stateMutability":"view"},{"type":"function","name":"id","inputs":[],"outputs":[{"name":"","type":"bytes8","internalType":"bytes8"}],"stateMutability":"view"},{"type":"function","name":"uintStateVariableComparison","inputs":[{"name":"amount","type":"uint256","internalType":"uint256"}],"outputs":[{"name":"","type":"bool","internalType":"bool"}],"stateMutability":"view"}],"bytecode":{"object":"0x60806040526103e860015534801561001657600080fd5b5060405161038138038061038183398101604081905261003591610072565b600080546001600160a01b039093166001600160a01b0319921515600160a01b02929092166001600160a81b0319909316929092171790556100bd565b6000806040838503121561008557600080fd5b82516001600160a01b038116811461009c57600080fd5b602084015190925080151581146100b257600080fd5b809150509250929050565b6102b5806100cc6000396000f3fe608060405234801561001057600080fd5b50600436106100575760003560e01c80633aab51d51461005c5780634691a9861461007757806383f4ee511461009a578063af640d0f146100ad578063cc5f6aa7146100d3575b600080fd5b6100646100e6565b6040519081526020015b60405180910390f35b61008a6100853660046101e6565b610140565b604051901515815260200161006e565b61008a6100a8366004610217565b61016d565b6002546100ba9060c01b81565b6040516001600160c01b0319909116815260200161006e565b6100646100e136600461024c565b610189565b60008054600160a01b900460ff166101395760405162461bcd60e51b8152602060048201526011602482015270125d081a5cc81b9bdd08195b98589b1959607a1b60448201526064015b60405180910390fd5b5060015490565b60025460009060c01b6001600160c01b03199081169083160361016557506001919050565b506000919050565b600060015482111561018157506000919050565b506001919050565b6000805482906001600160a01b038083169116146101db5760405162461bcd60e51b815260206004820152600f60248201526e24ba1034b9903737ba1037bbb732b960891b6044820152606401610130565b505060015492915050565b6000602082840312156101f857600080fd5b81356001600160c01b03198116811461021057600080fd5b9392505050565b60006020828403121561022957600080fd5b5035919050565b80356001600160a01b038116811461024757600080fd5b919050565b6000806040838503121561025f57600080fd5b61026883610230565b915061027660208401610230565b9050925092905056fea2646970667358221220ee2f9389664b4683bb4d0df4eaed8c52aa434655225d5b26484a43487c268b3c64736f6c63430008130033","linkReferences":{}},"methodIdentifiers":{"addressStateVariableComparison(address,address)":"cc5f6aa7","boolStateVariableComparison()":"3aab51d5","bytesStateVariableComparison(bytes8)":"4691a986","id()":"af640d0f","uintStateVariableComparison(uint256)":"83f4ee51"},"id":28}