{"abi":[{"type":"function","name":"addressConstantComparison","inputs":[{"name":"ownerCompanyAddress","type":"address","internalType":"address"}],"outputs":[{"name":"","type":"address","internalType":"address"}],"stateMutability":"view"},{"type":"function","name":"addressStateVariableComparison","inputs":[{"name":"_owner","type":"address","internalType":"address"}],"outputs":[{"name":"","type":"uint256","internalType":"uint256"}],"stateMutability":"view"},{"type":"function","name":"boolStateVariableComparison","inputs":[{"name":"shouldBypassPausedValidation","type":"bool","internalType":"bool"}],"outputs":[{"name":"","type":"uint256","internalType":"uint256"}],"stateMutability":"view"},{"type":"function","name":"bytesDifferentTo","inputs":[{"name":"senderId","type":"bytes2","internalType":"bytes2"},{"name":"receiverId","type":"bytes2","internalType":"bytes2"}],"outputs":[{"name":"","type":"bool","internalType":"bool"}],"stateMutability":"pure"},{"type":"function","name":"bytesDifferentToHardCodedValueWithDifferentBitSize","inputs":[{"name":"receiverId","type":"bytes16","internalType":"bytes16"}],"outputs":[{"name":"","type":"bool","internalType":"bool"}],"stateMutability":"pure"},{"type":"function","name":"bytesEqualToHardCodedValue","inputs":[{"name":"receiverId","type":"bytes8","internalType":"bytes8"}],"outputs":[{"name":"","type":"bool","internalType":"bool"}],"stateMutability":"pure"},{"type":"function","name":"bytesStateVariableComparison","inputs":[{"name":"_ownerId","type":"bytes16","internalType":"bytes16"}],"outputs":[{"name":"","type":"address","internalType":"address"}],"stateMutability":"view"},{"type":"function","name":"complexObject","inputs":[{"name":"person","type":"tuple","internalType":"struct Person","components":[{"name":"id","type":"uint256","internalType":"uint256"},{"name":"car","type":"tuple","internalType":"struct Car","components":[{"name":"id","type":"uint256","internalType":"uint256"},{"name":"name","type":"string","internalType":"string"}]}]}],"outputs":[{"name":"","type":"string","internalType":"string"}],"stateMutability":"view"},{"type":"function","name":"defaultUintStateVariableComparison","inputs":[{"name":"amount","type":"uint256","internalType":"uint256"}],"outputs":[{"name":"","type":"bool","internalType":"bool"}],"stateMutability":"view"},{"type":"function","name":"divideOperationBeforeComparison","inputs":[{"name":"first","type":"uint256","internalType":"uint256"},{"name":"second","type":"uint256","internalType":"uint256"},{"name":"maxValue","type":"uint256","internalType":"uint256"}],"outputs":[{"name":"","type":"bool","internalType":"bool"}],"stateMutability":"pure"},{"type":"function","name":"subtractOperationBeforeComparison","inputs":[{"name":"first","type":"int256","internalType":"int256"},{"name":"second","type":"int256","internalType":"int256"},{"name":"maxValue","type":"int256","internalType":"int256"}],"outputs":[{"name":"","type":"bool","internalType":"bool"}],"stateMutability":"pure"},{"type":"function","name":"uintStateVariableComparison","inputs":[{"name":"amount","type":"uint256","internalType":"uint256"}],"outputs":[{"name":"","type":"bool","internalType":"bool"}],"stateMutability":"view"}],"bytecode":{"object":"0x60806040526000805474010000000000000000000000000000000000000fff6001600160a81b03199091161790556103e8600155600280546001600160501b0319166001600160501b0317905534801561005857600080fd5b50610743806100686000396000f3fe608060405234801561001057600080fd5b50600436106100b45760003560e01c80636cb9a053116100715780636cb9a0531461017957806383f4ee511461018c578063c0d46f691461019f578063d1015cb5146101b2578063d74a5781146101c5578063f611565d146101d857600080fd5b806304b8eb1e146100b9578063065c3150146100df578063386cb8b71461010257806341e0c8761461012857806346180ec31461013b5780634a12a1d314610166575b600080fd5b6100cc6100c73660046103c9565b6101eb565b6040519081526020015b60405180910390f35b6100f26100ed3660046103f2565b610246565b60405190151581526020016100d6565b61011b61011036600461048c565b602090810151015190565b6040516100d6919061058c565b6100f26101363660046105da565b61026f565b61014e6101493660046105da565b610293565b6040516001600160a01b0390911681526020016100d6565b6100f2610174366004610604565b6102ca565b6100cc610187366004610630565b6102ef565b6100f261019a366004610652565b61033a565b6100f26101ad366004610604565b61034e565b61014e6101c03660046103c9565b610368565b6100f26101d3366004610683565b61038e565b6100f26101e6366004610652565b6103b6565b6000805482906001600160a01b0380831691161461023c5760405162461bcd60e51b81526020600482015260096024820152682737ba1037bbb732b960b91b60448201526064015b60405180910390fd5b5050600154919050565b60006001600160c01b0319808316900361026257506000919050565b506001919050565b919050565b60006001600160801b0319808316900361028b57506001919050565b506000919050565b6002546000906001600160801b0319831660b09190911b6001600160b01b0319160361028b5750506000546001600160a01b031690565b6000816102d784866106b6565b126102e4575060006102e8565b5060015b9392505050565b6000818061023c57600054600160a01b900460ff161561023c5760405162461bcd60e51b815260206004820152600660248201526514185d5cd95960d21b6044820152606401610233565b600060015482111561026257506000919050565b60008161035b84866106eb565b116102e4575060006102e8565b6000610122196001600160a01b0383160161028b5750506000546001600160a01b031690565b60006001600160f01b0319838116908316146103ac575060016103b0565b5060005b92915050565b6000600354820361026257506000919050565b6000602082840312156103db57600080fd5b81356001600160a01b03811681146102e857600080fd5b60006020828403121561040457600080fd5b81356001600160c01b0319811681146102e857600080fd5b634e487b7160e01b600052604160045260246000fd5b6040805190810167ffffffffffffffff811182821017156104555761045561041c565b60405290565b604051601f8201601f1916810167ffffffffffffffff811182821017156104845761048461041c565b604052919050565b6000602080838503121561049f57600080fd5b823567ffffffffffffffff808211156104b757600080fd5b90840190604082870312156104cb57600080fd5b6104d3610432565b8235815283830135828111156104e857600080fd5b9290920191604083880312156104fd57600080fd5b610505610432565b83358152848401358381111561051a57600080fd5b80850194505087601f85011261052f57600080fd5b8335838111156105415761054161041c565b610553601f8201601f1916870161045b565b9350808452888682870101111561056957600080fd5b808686018786013760009084018601528085019290925292830152509392505050565b600060208083528351808285015260005b818110156105b95785810183015185820160400152820161059d565b506000604082860101526040601f19601f8301168501019250505092915050565b6000602082840312156105ec57600080fd5b81356001600160801b0319811681146102e857600080fd5b60008060006060848603121561061957600080fd5b505081359360208301359350604090920135919050565b60006020828403121561064257600080fd5b813580151581146102e857600080fd5b60006020828403121561066457600080fd5b5035919050565b80356001600160f01b03198116811461026a57600080fd5b6000806040838503121561069657600080fd5b61069f8361066b565b91506106ad6020840161066b565b90509250929050565b81810360008312801583831316838312821617156106e457634e487b7160e01b600052601160045260246000fd5b5092915050565b60008261070857634e487b7160e01b600052601260045260246000fd5b50049056fea2646970667358221220056b7d5cd50bf4661d1277b5cf1dabec3ebdf13ac8c2285dd487c818ebe9cf5664736f6c63430008130033","linkReferences":{}},"methodIdentifiers":{"addressConstantComparison(address)":"d1015cb5","addressStateVariableComparison(address)":"04b8eb1e","boolStateVariableComparison(bool)":"6cb9a053","bytesDifferentTo(bytes2,bytes2)":"d74a5781","bytesDifferentToHardCodedValueWithDifferentBitSize(bytes16)":"41e0c876","bytesEqualToHardCodedValue(bytes8)":"065c3150","bytesStateVariableComparison(bytes16)":"46180ec3","complexObject((uint256,(uint256,string)))":"386cb8b7","defaultUintStateVariableComparison(uint256)":"f611565d","divideOperationBeforeComparison(uint256,uint256,uint256)":"c0d46f69","subtractOperationBeforeComparison(int256,int256,int256)":"4a12a1d3","uintStateVariableComparison(uint256)":"83f4ee51"},"id":28}