{"abi":[{"type":"constructor","inputs":[{"name":"biddingTime","type":"uint256","internalType":"uint256"},{"name":"revealTime","type":"uint256","internalType":"uint256"},{"name":"beneficiaryAddress","type":"address","internalType":"address payable"}],"stateMutability":"nonpayable"},{"type":"function","name":"auctionEnd","inputs":[],"outputs":[],"stateMutability":"nonpayable"},{"type":"function","name":"beneficiary","inputs":[],"outputs":[{"name":"","type":"address","internalType":"address payable"}],"stateMutability":"view"},{"type":"function","name":"bid","inputs":[{"name":"blindedBid","type":"bytes32","internalType":"bytes32"}],"outputs":[],"stateMutability":"payable"},{"type":"function","name":"biddingEnd","inputs":[],"outputs":[{"name":"","type":"uint256","internalType":"uint256"}],"stateMutability":"view"},{"type":"function","name":"bids","inputs":[{"name":"","type":"address","internalType":"address"},{"name":"","type":"uint256","internalType":"uint256"}],"outputs":[{"name":"blindedBid","type":"bytes32","internalType":"bytes32"},{"name":"deposit","type":"uint256","internalType":"uint256"}],"stateMutability":"view"},{"type":"function","name":"ended","inputs":[],"outputs":[{"name":"","type":"bool","internalType":"bool"}],"stateMutability":"view"},{"type":"function","name":"highestBid","inputs":[],"outputs":[{"name":"","type":"uint256","internalType":"uint256"}],"stateMutability":"view"},{"type":"function","name":"highestBidder","inputs":[],"outputs":[{"name":"","type":"address","internalType":"address"}],"stateMutability":"view"},{"type":"function","name":"reveal","inputs":[{"name":"values","type":"uint256[]","internalType":"uint256[]"},{"name":"fakes","type":"bool[]","internalType":"bool[]"},{"name":"secrets","type":"bytes32[]","internalType":"bytes32[]"}],"outputs":[],"stateMutability":"nonpayable"},{"type":"function","name":"revealEnd","inputs":[],"outputs":[{"name":"","type":"uint256","internalType":"uint256"}],"stateMutability":"view"},{"type":"function","name":"withdraw","inputs":[],"outputs":[],"stateMutability":"nonpayable"},{"type":"event","name":"AuctionEnded","inputs":[{"name":"winner","type":"address","indexed":false,"internalType":"address"},{"name":"highestBid","type":"uint256","indexed":false,"internalType":"uint256"}],"anonymous":false},{"type":"error","name":"AuctionEndAlreadyCalled","inputs":[]},{"type":"error","name":"TooEarly","inputs":[{"name":"time","type":"uint256","internalType":"uint256"}]},{"type":"error","name":"TooLate","inputs":[{"name":"time","type":"uint256","internalType":"uint256"}]}],"bytecode":{"object":"0x608060405234801561001057600080fd5b5060405161096938038061096983398101604081905261002f91610070565b600080546001600160a01b0319166001600160a01b03831617905561005483426100b6565b60018190556100649083906100b6565b600255506100dd915050565b60008060006060848603121561008557600080fd5b83516020850151604086015191945092506001600160a01b03811681146100ab57600080fd5b809150509250925092565b808201808211156100d757634e487b7160e01b600052601160045260246000fd5b92915050565b61087d806100ec6000396000f3fe60806040526004361061009c5760003560e01c8063423b217f11610064578063423b217f14610169578063900f080a1461018d57806391f90157146101ad578063957bb1e0146101cd578063a6e66477146101e0578063d57bde79146101f657600080fd5b806301495c1c146100a157806312fa6feb146100db5780632a24f46c1461010557806338af3eed1461011c5780633ccfd60b14610154575b600080fd5b3480156100ad57600080fd5b506100c16100bc36600461067c565b61020c565b604080519283526020830191909152015b60405180910390f35b3480156100e757600080fd5b506003546100f59060ff1681565b60405190151581526020016100d2565b34801561011157600080fd5b5061011a610248565b005b34801561012857600080fd5b5060005461013c906001600160a01b031681565b6040516001600160a01b0390911681526020016100d2565b34801561016057600080fd5b5061011a61032d565b34801561017557600080fd5b5061017f60015481565b6040519081526020016100d2565b34801561019957600080fd5b5061011a6101a8366004610700565b610381565b3480156101b957600080fd5b5060055461013c906001600160a01b031681565b61011a6101db36600461079a565b61058e565b3480156101ec57600080fd5b5061017f60025481565b34801561020257600080fd5b5061017f60065481565b6004602052816000526040600020818154811061022857600080fd5b600091825260209091206002909102018054600190910154909250905082565b60025480421161027357604051630a8d68c960e21b8152600481018290526024015b60405180910390fd5b60035460ff161561029757604051630c39fb9f60e31b815260040160405180910390fd5b600554600654604080516001600160a01b03909316835260208301919091527fdaec4582d5d9595688c8c98545fdd1c696d41c6aeaeb636737e84ed2f5c00eda910160405180910390a16003805460ff19166001179055600080546006546040516001600160a01b039092169281156108fc029290818181858888f19350505050158015610329573d6000803e3d6000fd5b5050565b33600090815260076020526040902054801561037e57336000818152600760205260408082208290555183156108fc0291849190818181858888f19350505050158015610329573d6000803e3d6000fd5b50565b6001548042116103a757604051630a8d68c960e21b81526004810182905260240161026a565b6002548042106103cd5760405163348f2b4160e11b81526004810182905260240161026a565b336000908152600460205260409020548781146103e957600080fd5b8581146103f557600080fd5b83811461040157600080fd5b6000805b828110156105535733600090815260046020526040812080548390811061042e5761042e6107b3565b9060005260206000209060020201905060008060008e8e86818110610455576104556107b3565b905060200201358d8d8781811061046e5761046e6107b3565b905060200201602081019061048391906107c9565b8c8c88818110610495576104956107b3565b905060200201359250925092508282826040516020016104cb9392919092835290151560f81b6020830152602182015260410190565b604051602081830303815290604052805190602001208460000154146104f45750505050610541565b60018401546105039087610808565b955081158015610517575082846001015410155b156105385761052633846105fb565b1561053857610535838761081b565b95505b50506000909155505b8061054b8161082e565b915050610405565b50604051339082156108fc029083906000818181858888f19350505050158015610581573d6000803e3d6000fd5b5050505050505050505050565b6001548042106105b45760405163348f2b4160e11b81526004810182905260240161026a565b503360009081526004602090815260408083208151808301909252938152348183019081528454600181810187559585529290932090516002909202019081559051910155565b6000600654821161060e57506000610676565b6005546001600160a01b031615610652576006546005546001600160a01b03166000908152600760205260408120805490919061064c908490610808565b90915550505b506006819055600580546001600160a01b0319166001600160a01b03841617905560015b92915050565b6000806040838503121561068f57600080fd5b82356001600160a01b03811681146106a657600080fd5b946020939093013593505050565b60008083601f8401126106c657600080fd5b50813567ffffffffffffffff8111156106de57600080fd5b6020830191508360208260051b85010111156106f957600080fd5b9250929050565b6000806000806000806060878903121561071957600080fd5b863567ffffffffffffffff8082111561073157600080fd5b61073d8a838b016106b4565b9098509650602089013591508082111561075657600080fd5b6107628a838b016106b4565b9096509450604089013591508082111561077b57600080fd5b5061078889828a016106b4565b979a9699509497509295939492505050565b6000602082840312156107ac57600080fd5b5035919050565b634e487b7160e01b600052603260045260246000fd5b6000602082840312156107db57600080fd5b813580151581146107eb57600080fd5b9392505050565b634e487b7160e01b600052601160045260246000fd5b80820180821115610676576106766107f2565b81810381811115610676576106766107f2565b600060018201610840576108406107f2565b506001019056fea26469706673582212208716cb87914990246ddca6eee6a14e5dc290fafacfd8641913506aecbcaeb43164736f6c63430008130033","linkReferences":{}},"methodIdentifiers":{"auctionEnd()":"2a24f46c","beneficiary()":"38af3eed","bid(bytes32)":"957bb1e0","biddingEnd()":"423b217f","bids(address,uint256)":"01495c1c","ended()":"12fa6feb","highestBid()":"d57bde79","highestBidder()":"91f90157","reveal(uint256[],bool[],bytes32[])":"900f080a","revealEnd()":"a6e66477","withdraw()":"3ccfd60b"},"id":2}