{
  "abi": [
    {
      "inputs": [
        {
          "internalType": "address[]",
          "name": "c_0",
          "type": "address[]"
        },
        {
          "internalType": "address",
          "name": "c_1",
          "type": "address"
        }
      ],
      "name": "check_advancePhase",
      "outputs": [],
      "stateMutability": "nonpayable",
      "type": "function"
    },
    {
      "inputs": [
        {
          "internalType": "address[]",
          "name": "c_0",
          "type": "address[]"
        },
        {
          "internalType": "address",
          "name": "c_1",
          "type": "address"
        }
      ],
      "name": "check_contribute",
      "outputs": [],
      "stateMutability": "nonpayable",
      "type": "function"
    },
    {
      "inputs": [
        {
          "internalType": "address[]",
          "name": "c_0",
          "type": "address[]"
        },
        {
          "internalType": "address",
          "name": "c_1",
          "type": "address"
        }
      ],
      "name": "check_redeem",
      "outputs": [],
      "stateMutability": "nonpayable",
      "type": "function"
    },
    {
      "inputs": [
        {
          "internalType": "address[]",
          "name": "c_0",
          "type": "address[]"
        },
        {
          "internalType": "address",
          "name": "c_1",
          "type": "address"
        }
      ],
      "name": "check_toggleAcceptingContributions_function",
      "outputs": [],
      "stateMutability": "nonpayable",
      "type": "function"
    },
    {
      "inputs": [
        {
          "internalType": "address[]",
          "name": "c_0",
          "type": "address[]"
        },
        {
          "internalType": "address",
          "name": "c_1",
          "type": "address"
        }
      ],
      "name": "check_toggleAcceptingRedemptions_function",
      "outputs": [],
      "stateMutability": "nonpayable",
      "type": "function"
    }
  ],
  "bytecode": {
    "object": "0x608060405234801561001057600080fd5b50612954806100206000396000f3fe60806040523480156200001157600080fd5b50600436106200005e5760003560e01c80637a41c1321462000063578063b434b568146200007c578063b527c9931462000093578063c6482ff514620000aa578063ea21a7d114620000c1575b600080fd5b6200007a62000074366004620005d6565b620000d8565b005b6200007a6200008d366004620005d6565b6200032f565b6200007a620000a4366004620005d6565b620003c8565b6200007a620000bb366004620005d6565b6200046b565b6200007a620000d2366004620005d6565b620004e6565b604051636e0bb65960e01b81526020600482015260016024820152603f60f81b604482015260609073f3993a62377bcd56ae39d773740a5390411e8bc990636e0bb659906064016020604051808303816000875af11580156200013f573d6000803e3d6000fd5b505050506040513d601f19601f82011682018060405250810190620001659190620006a4565b15620001f75760405163eef5311d60e01b815273f3993a62377bcd56ae39d773740a5390411e8bc99063eef5311d90620001a590600790600401620006cf565b6000604051808303816000875af1158015620001c5573d6000803e3d6000fd5b505050506040513d6000823e601f3d908101601f19168201604052620001ef919081019062000729565b90506200027d565b60405163eef5311d60e01b815273f3993a62377bcd56ae39d773740a5390411e8bc99063eef5311d9062000230906004908101620006cf565b6000604051808303816000875af115801562000250573d6000803e3d6000fd5b505050506040513d6000823e601f3d908101601f191682016040526200027a919081019062000729565b90505b600083836040516200028f9062000561565b6200029c929190620007c8565b604051809103906000f080158015620002b9573d6000803e3d6000fd5b50604051632cddcd6160e21b81529091506001600160a01b0382169063b377358490620002eb90859060040162000827565b600060405180830381600087803b1580156200030657600080fd5b505af11580156200031b573d6000803e3d6000fd5b50505050620003296200085c565b50505050565b60008282604051620003419062000561565b6200034e929190620007c8565b604051809103906000f0801580156200036b573d6000803e3d6000fd5b509050806001600160a01b031663be040fb06040518163ffffffff1660e01b8152600401600060405180830381600087803b158015620003aa57600080fd5b505af1158015620003bf573d6000803e3d6000fd5b50505050505050565b60008282604051620003da9062000561565b620003e7929190620007c8565b604051809103906000f08015801562000404573d6000803e3d6000fd5b509050806001600160a01b0316635b311cc96040518163ffffffff1660e01b8152600401600060405180830381600087803b1580156200044357600080fd5b505af115801562000458573d6000803e3d6000fd5b50505050620004666200085c565b505050565b600082826040516200047d9062000561565b6200048a929190620007c8565b604051809103906000f080158015620004a7573d6000803e3d6000fd5b509050806001600160a01b031663d7bb99ba6040518163ffffffff1660e01b8152600401600060405180830381600087803b1580156200044357600080fd5b60008282604051620004f89062000561565b62000505929190620007c8565b604051809103906000f08015801562000522573d6000803e3d6000fd5b509050806001600160a01b0316638b0cf4736040518163ffffffff1660e01b8152600401600060405180830381600087803b1580156200044357600080fd5b6120ac806200087383390190565b634e487b7160e01b600052604160045260246000fd5b604051601f8201601f1916810167ffffffffffffffff81118282101715620005b157620005b16200056f565b604052919050565b80356001600160a01b0381168114620005d157600080fd5b919050565b60008060408385031215620005ea57600080fd5b823567ffffffffffffffff808211156200060357600080fd5b818501915085601f8301126200061857600080fd5b81356020828211156200062f576200062f6200056f565b8160051b92506200064281840162000585565b82815292840181019281810190898511156200065d57600080fd5b948201945b8486101562000686576200067686620005b9565b8252948201949082019062000662565b9650620006979050878201620005b9565b9450505050509250929050565b600060208284031215620006b757600080fd5b81518015158114620006c857600080fd5b9392505050565b818152604060208201526000620006c860408301600d81526c2fb1b7b73334b936b0ba34b7b760991b602082015260400190565b60005b838110156200072057818101518382015260200162000706565b50506000910152565b6000602082840312156200073c57600080fd5b815167ffffffffffffffff808211156200075557600080fd5b818401915084601f8301126200076a57600080fd5b8151818111156200077f576200077f6200056f565b62000794601f8201601f191660200162000585565b9150808252856020828501011115620007ac57600080fd5b620007bf81602084016020860162000703565b50949350505050565b604080825283519082018190526000906020906060840190828701845b828110156200080c5781516001600160a01b031684529284019290840190600101620007e5565b5050506001600160a01b039490941692019190915250919050565b60208152600082518060208401526200084881604085016020870162000703565b601f01601f19169190910160400192915050565b634e487b7160e01b600052600160045260246000fdfe60806040523480156200001157600080fd5b50604051620020ac380380620020ac8339810160408190526200003491620001c5565b81516200004990600690602085019062000103565b506000805462010000338102610100600160b01b031990921691909117918290556040518392919091046001600160a01b03169062000088906200016d565b6001600160a01b03928316815291166020820152604001604051809103906000f080158015620000bc573d6000803e3d6000fd5b50600480546001600160a01b0319166001600160a01b039290921691909117905550506007805460ff199081166001908117909255600080549091169091179055620002ab565b8280548282559060005260206000209081019282156200015b579160200282015b828111156200015b57825182546001600160a01b0319166001600160a01b0390911617825560209092019160019091019062000124565b50620001699291506200017b565b5090565b610e25806200128783390190565b5b808211156200016957600081556001016200017c565b634e487b7160e01b600052604160045260246000fd5b80516001600160a01b0381168114620001c057600080fd5b919050565b60008060408385031215620001d957600080fd5b82516001600160401b0380821115620001f157600080fd5b818501915085601f8301126200020657600080fd5b81516020828211156200021d576200021d62000192565b8160051b604051601f19603f8301168101818110868211171562000245576200024562000192565b6040529283528183019350848101820192898411156200026457600080fd5b948201945b838610156200028d576200027d86620001a8565b8552948201949382019362000269565b96506200029e9050878201620001a8565b9450505050509250929050565b610fcc80620002bb6000396000f3fe60806040526004361061012a5760003560e01c80638b0cf473116100ab578063b37735841161006f578063b37735841461033b578063be040fb01461035b578063c145e3a314610370578063d7bb99ba1461038d578063d9b6c8f114610303578063fc0c546a1461039557600080fd5b80638b0cf4731461029b5780638da5cb5b146102b05780639f4568ef146102d6578063a454bbb914610303578063a62306e51461032157600080fd5b806342e94c90116100f257806342e94c90146101e1578063437571541461020e5780635b311cc91461022c57806362a6d1971461024357806375a51f341461027b57600080fd5b80630c4ed7d61461012f5780631a7d5b9e1461015f5780631e7aa1f61461018957806320e3b5ac1461019f57806337c08923146101cb575b600080fd5b34801561013b57600080fd5b5061014c683635c9adc5dea0000081565b6040519081526020015b60405180910390f35b34801561016b57600080fd5b506000546101799060ff1681565b6040519015158152602001610156565b34801561019557600080fd5b5061014c60055481565b3480156101ab57600080fd5b506000546101be90610100900460ff1681565b6040516101569190610d01565b3480156101d757600080fd5b5061014c60015481565b3480156101ed57600080fd5b5061014c6101fc366004610d29565b60026020526000908152604090205481565b34801561021a57600080fd5b5061014c69032d26d12e980b60000081565b34801561023857600080fd5b506102416103b5565b005b34801561024f57600080fd5b5061026361025e366004610d59565b610402565b6040516001600160a01b039091168152602001610156565b34801561028757600080fd5b50610179610296366004610d29565b61042c565b3480156102a757600080fd5b50610241610495565b3480156102bc57600080fd5b50600054610263906201000090046001600160a01b031681565b3480156102e257600080fd5b5061014c6102f1366004610d29565b60036020526000908152604090205481565b34801561030f57600080fd5b5061014c69065a4da25d3016c0000081565b34801561032d57600080fd5b506007546101799060ff1681565b34801561034757600080fd5b50610241610356366004610d88565b6104d9565b34801561036757600080fd5b50610241610807565b34801561037c57600080fd5b5061014c685150ae84a8cdf0000081565b610241610996565b3480156103a157600080fd5b50600454610263906001600160a01b031681565b6000546201000090046001600160a01b031633146103ee5760405162461bcd60e51b81526004016103e590610e39565b60405180910390fd5b6000805460ff19811660ff90911615179055565b6006818154811061041257600080fd5b6000918252602090912001546001600160a01b0316905081565b6000805b60065481101561048c57826001600160a01b03166006828154811061045757610457610e7a565b6000918252602090912001546001600160a01b03160361047a5750600192915050565b8061048481610ea6565b915050610430565b50600092915050565b6000546201000090046001600160a01b031633146104c55760405162461bcd60e51b81526004016103e590610e39565b6007805460ff19811660ff90911615179055565b6000546201000090046001600160a01b031633146105095760405162461bcd60e51b81526004016103e590610e39565b60055443116105705760405162461bcd60e51b815260206004820152602d60248201527f43616e6e6f7420616476616e6365207068617365206d6f7265207468616e206f60448201526c6e63652070657220626c6f636b60981b60648201526084016103e5565b4360055560008054610100900460ff16600281111561059157610591610ceb565b036106a6576040516611d1539154905360ca1b602082015260270160405160208183030381529060405280519060200120816040516020016105d39190610ebf565b604051602081830303815290604052805190602001201461068c5760405162461bcd60e51b815260206004820152606160248201527f436f6e6669726d6174696f6e20737472696e6720646f6573206e6f74206d617460448201527f6368202d2d20696620796f752077616e7420746f20616476616e636520746f2060648201527f67656e6572616c2c207573652074686520737472696e67202747454e4552414c6084820152602760f81b60a482015260c4016103e5565b600080546001919061ff001916610100835b021790555050565b6001600054610100900460ff1660028111156106c4576106c4610ceb565b036107c8576040516327a822a760e11b602082015260240160405160208183030381529060405280519060200120816040516020016107039190610ebf565b60405160208183030381529060405280519060200120146107b25760405162461bcd60e51b815260206004820152605b60248201527f436f6e6669726d6174696f6e20737472696e6720646f6573206e6f74206d617460448201527f6368202d2d20696620796f752077616e7420746f20616476616e636520746f2060648201527f6f70656e2c207573652074686520737472696e6720274f50454e270000000000608482015260a4016103e5565b600080546002919061ff0019166101008361069e565b60405162461bcd60e51b815260206004820152601460248201527343616e6e6f7420616476616e636520706861736560601b60448201526064016103e5565b60005460ff166108595760405162461bcd60e51b815260206004820152601960248201527f4e6f7420616363657074696e6720726564656d7074696f6e730000000000000060448201526064016103e5565b33600090815260036020908152604080832054600290925290912054116108c25760405162461bcd60e51b815260206004820152601a60248201527f4e6f20636f6e747269627574696f6e7320746f2072656465656d00000000000060448201526064016103e5565b3360009081526003602090815260408083205460029092528220546108e79190610eee565b6108f2906005610f07565b33600090815260036020526040812080549293508392909190610916908490610f1e565b90915550506004805460405163a9059cbb60e01b81523392810192909252602482018390526001600160a01b03169063a9059cbb906044015b6020604051808303816000875af115801561096e573d6000803e3d6000fd5b505050506040513d601f19601f820116820180604052508101906109929190610f31565b5050565b60075460ff166109e85760405162461bcd60e51b815260206004820152601b60248201527f4e6f7420616363657074696e6720636f6e747269627574696f6e73000000000060448201526064016103e5565b60008054610100900460ff166002811115610a0557610a05610ceb565b03610a1457610a12610a6a565b565b6001600054610100900460ff166002811115610a3257610a32610ceb565b03610a3f57610a12610c59565b6002600054610100900460ff166002811115610a5d57610a5d610ceb565b03610a1257610a12610cd2565b610a733361042c565b610ac95760405162461bcd60e51b815260206004820152602160248201527f41646472657373206e6f7420616c6c6f77656420746f20636f6e7472696275746044820152606560f81b60648201526084016103e5565b69032d26d12e980b60000034600154610ae29190610f1e565b10610b445760405162461bcd60e51b815260206004820152602c60248201527f53656564207068617365206d617820636f6e747269627574696f6e207265616360448201526b1a1959080b4b481d1bdd185b60a21b60648201526084016103e5565b33600090815260026020526040902054685150ae84a8cdf0000090610b6a903490610f1e565b10610bd15760405162461bcd60e51b815260206004820152603160248201527f53656564207068617365206d617820636f6e747269627574696f6e20726561636044820152701a1959080b4b481a5b991a5d9a591d585b607a1b60648201526084016103e5565b3360009081526002602052604081208054349290610bf0908490610f1e565b925050819055503460016000828254610c099190610f1e565b9091555060009050610c1c346005610f07565b6004805460405163a9059cbb60e01b81523392810192909252602482018390529192506001600160a01b039091169063a9059cbb9060440161094f565b69065a4da25d3016c0000034600154610c729190610f1e565b10610c8f5760405162461bcd60e51b81526004016103e590610f53565b33600090815260026020526040902054683635c9adc5dea0000090610cb5903490610f1e565b10610bd15760405162461bcd60e51b81526004016103e590610f53565b69065a4da25d3016c0000034600154610cb59190610f1e565b634e487b7160e01b600052602160045260246000fd5b6020810160038310610d2357634e487b7160e01b600052602160045260246000fd5b91905290565b600060208284031215610d3b57600080fd5b81356001600160a01b0381168114610d5257600080fd5b9392505050565b600060208284031215610d6b57600080fd5b5035919050565b634e487b7160e01b600052604160045260246000fd5b600060208284031215610d9a57600080fd5b813567ffffffffffffffff80821115610db257600080fd5b818401915084601f830112610dc657600080fd5b813581811115610dd857610dd8610d72565b604051601f8201601f19908116603f01168101908382118183101715610e0057610e00610d72565b81604052828152876020848701011115610e1957600080fd5b826020860160208301376000928101602001929092525095945050505050565b60208082526021908201527f4f6e6c79206f776e65722063616e2063616c6c20746869732066756e6374696f6040820152603760f91b606082015260800190565b634e487b7160e01b600052603260045260246000fd5b634e487b7160e01b600052601160045260246000fd5b600060018201610eb857610eb8610e90565b5060010190565b6000825160005b81811015610ee05760208186018101518583015201610ec6565b506000920191825250919050565b81810381811115610f0157610f01610e90565b92915050565b8082028115828204841417610f0157610f01610e90565b80820180821115610f0157610f01610e90565b600060208284031215610f4357600080fd5b81518015158114610d5257600080fd5b60208082526023908201527f53656564207068617365206d617820636f6e747269627574696f6e20726561636040820152621a195960ea1b60608201526080019056fea2646970667358221220dd4c05032e6beed425d63735324463d610f53ccdffff2771b590216d8d761db364736f6c6343000813003360806040526006805460ff60a01b1916600160a01b1790553480156200002457600080fd5b5060405162000e2538038062000e2583398101604081905262000047916200020b565b6040518060400160405280600981526020016829b830b1b2a1b7b4b760b91b8152506040518060400160405280600381526020016253504360e81b8152508160039081620000969190620002e7565b506004620000a58282620002e7565b5050600680546001600160a01b038085166001600160a01b031992831617909255600580549286169290911691909117905550620000ee620000e43390565b620249f062000123565b60055462000109906001600160a01b03166205573062000123565b5050600780546001600160a01b03191633179055620003db565b6001600160a01b0382166200017e5760405162461bcd60e51b815260206004820152601f60248201527f45524332303a206d696e7420746f20746865207a65726f206164647265737300604482015260640160405180910390fd5b8060026000828254620001929190620003b3565b90915550506001600160a01b038216600081815260208181526040808320805486019055518481527fddf252ad1be2c89b69c2b068fc378daa952ba7f163c4a11628f55a4df523b3ef910160405180910390a35050565b505050565b80516001600160a01b03811681146200020657600080fd5b919050565b600080604083850312156200021f57600080fd5b6200022a83620001ee565b91506200023a60208401620001ee565b90509250929050565b634e487b7160e01b600052604160045260246000fd5b600181811c908216806200026e57607f821691505b6020821081036200028f57634e487b7160e01b600052602260045260246000fd5b50919050565b601f821115620001e957600081815260208120601f850160051c81016020861015620002be5750805b601f850160051c820191505b81811015620002df57828155600101620002ca565b505050505050565b81516001600160401b0381111562000303576200030362000243565b6200031b8162000314845462000259565b8462000295565b602080601f8311600181146200035357600084156200033a5750858301515b600019600386901b1c1916600185901b178555620002df565b600085815260208120601f198616915b82811015620003845788860151825594840194600190910190840162000363565b5085821015620003a35787850151600019600388901b60f8161c191681555b5050505050600190811b01905550565b80820180821115620003d557634e487b7160e01b600052601160045260246000fd5b92915050565b610a3a80620003eb6000396000f3fe608060405234801561001057600080fd5b50600436106101005760003560e01c806361d027b31161009757806395d89b411161006657806395d89b4114610225578063a457c2d71461022d578063a9059cbb14610240578063dd62ed3e1461025357600080fd5b806361d027b3146101c257806370a08231146101d5578063870bd30b146101fe5780638da5cb5b1461021257600080fd5b806323b872dd116100d357806323b872dd14610162578063313ce5671461017557806339509351146101845780635d4522011461019757600080fd5b806306fdde0314610105578063095ea7b31461012357806310bf60291461014657806318160ddd14610150575b600080fd5b61010d610266565b60405161011a9190610847565b60405180910390f35b6101366101313660046108b1565b6102f8565b604051901515815260200161011a565b61014e610312565b005b6002545b60405190815260200161011a565b6101366101703660046108db565b61039c565b6040516012815260200161011a565b6101366101923660046108b1565b6103c0565b6007546101aa906001600160a01b031681565b6040516001600160a01b03909116815260200161011a565b6005546101aa906001600160a01b031681565b6101546101e3366004610917565b6001600160a01b031660009081526020819052604090205490565b60065461013690600160a01b900460ff1681565b6006546101aa906001600160a01b031681565b61010d6103e2565b61013661023b3660046108b1565b6103f1565b61013661024e3660046108b1565b61046c565b610154610261366004610939565b6104da565b6060600380546102759061096c565b80601f01602080910402602001604051908101604052809291908181526020018280546102a19061096c565b80156102ee5780601f106102c3576101008083540402835291602001916102ee565b820191906000526020600020905b8154815290600101906020018083116102d157829003601f168201915b5050505050905090565b600033610306818585610505565b60019150505b92915050565b6006546001600160a01b0316331461037b5760405162461bcd60e51b815260206004820152602160248201527f4f6e6c79206f776e65722063616e2063616c6c20746869732066756e6374696f6044820152603760f91b60648201526084015b60405180910390fd5b6006805460ff60a01b198116600160a01b9182900460ff1615909102179055565b6000336103aa858285610629565b6103b58585856106a3565b506001949350505050565b6000336103068185856103d383836104da565b6103dd91906109bc565b610505565b6060600480546102759061096c565b600033816103ff82866104da565b90508381101561045f5760405162461bcd60e51b815260206004820152602560248201527f45524332303a2064656372656173656420616c6c6f77616e63652062656c6f77604482015264207a65726f60d81b6064820152608401610372565b6103b58286868403610505565b600654600090600160a01b900460ff16156104c657600061048e6032846109cf565b9050600061049c82856109f1565b90506104b4336005546001600160a01b0316846106a3565b6104bf3386836106a3565b50506104d1565b6104d13384846106a3565b50600192915050565b6001600160a01b03918216600090815260016020908152604080832093909416825291909152205490565b6001600160a01b0383166105675760405162461bcd60e51b8152602060048201526024808201527f45524332303a20617070726f76652066726f6d20746865207a65726f206164646044820152637265737360e01b6064820152608401610372565b6001600160a01b0382166105c85760405162461bcd60e51b815260206004820152602260248201527f45524332303a20617070726f766520746f20746865207a65726f206164647265604482015261737360f01b6064820152608401610372565b6001600160a01b0383811660008181526001602090815260408083209487168084529482529182902085905590518481527f8c5be1e5ebec7d5bd14f71427d1e84f3dd0314c0f7b2291e5b200ac8c7c3b925910160405180910390a3505050565b600061063584846104da565b9050600019811461069d57818110156106905760405162461bcd60e51b815260206004820152601d60248201527f45524332303a20696e73756666696369656e7420616c6c6f77616e63650000006044820152606401610372565b61069d8484848403610505565b50505050565b6001600160a01b0383166107075760405162461bcd60e51b815260206004820152602560248201527f45524332303a207472616e736665722066726f6d20746865207a65726f206164604482015264647265737360d81b6064820152608401610372565b6001600160a01b0382166107695760405162461bcd60e51b815260206004820152602360248201527f45524332303a207472616e7366657220746f20746865207a65726f206164647260448201526265737360e81b6064820152608401610372565b6001600160a01b038316600090815260208190526040902054818110156107e15760405162461bcd60e51b815260206004820152602660248201527f45524332303a207472616e7366657220616d6f756e7420657863656564732062604482015265616c616e636560d01b6064820152608401610372565b6001600160a01b03848116600081815260208181526040808320878703905593871680835291849020805487019055925185815290927fddf252ad1be2c89b69c2b068fc378daa952ba7f163c4a11628f55a4df523b3ef910160405180910390a361069d565b600060208083528351808285015260005b8181101561087457858101830151858201604001528201610858565b506000604082860101526040601f19601f8301168501019250505092915050565b80356001600160a01b03811681146108ac57600080fd5b919050565b600080604083850312156108c457600080fd5b6108cd83610895565b946020939093013593505050565b6000806000606084860312156108f057600080fd5b6108f984610895565b925061090760208501610895565b9150604084013590509250925092565b60006020828403121561092957600080fd5b61093282610895565b9392505050565b6000806040838503121561094c57600080fd5b61095583610895565b915061096360208401610895565b90509250929050565b600181811c9082168061098057607f821691505b6020821081036109a057634e487b7160e01b600052602260045260246000fd5b50919050565b634e487b7160e01b600052601160045260246000fd5b8082018082111561030c5761030c6109a6565b6000826109ec57634e487b7160e01b600052601260045260246000fd5b500490565b8181038181111561030c5761030c6109a656fea26469706673582212204ef3946185011d2b969877a3758db2ba9be301a9215f53682b0c6a5f57e6300264736f6c63430008130033a26469706673582212205b83834693f13a7fe18707ef89303931ee37eb98a94cd48929beae85d06be6b464736f6c63430008130033",
    "linkReferences": {}
  },
  "methodIdentifiers": {
    "check_advancePhase(address[],address)": "7a41c132",
    "check_contribute(address[],address)": "c6482ff5",
    "check_redeem(address[],address)": "b434b568",
    "check_toggleAcceptingContributions_function(address[],address)": "ea21a7d1",
    "check_toggleAcceptingRedemptions_function(address[],address)": "b527c993"
  },
  "id": 27
}