{"abi":[{"type":"constructor","inputs":[],"stateMutability":"nonpayable"},{"type":"function","name":"callingExternalFunctionComparingInheritedStateVariable","inputs":[{"name":"senderId","type":"bytes16","internalType":"bytes16"}],"outputs":[{"name":"","type":"bool","internalType":"bool"}],"stateMutability":"nonpayable"},{"type":"function","name":"callingExternalFunctionComparingStateVariable","inputs":[{"name":"value","type":"uint256","internalType":"uint256"}],"outputs":[{"name":"","type":"bool","internalType":"bool"}],"stateMutability":"nonpayable"},{"type":"function","name":"greaterThanExternalField","inputs":[{"name":"value","type":"uint256","internalType":"uint256"}],"outputs":[{"name":"","type":"bool","internalType":"bool"}],"stateMutability":"view"},{"type":"function","name":"senderIdIsInheritedOwnerIdComparison","inputs":[{"name":"senderId","type":"bytes16","internalType":"bytes16"}],"outputs":[{"name":"","type":"bool","internalType":"bool"}],"stateMutability":"view"},{"type":"function","name":"senderIsOwnerComparison","inputs":[],"outputs":[{"name":"","type":"bool","internalType":"bool"}],"stateMutability":"view"},{"type":"function","name":"validateMaxValue","inputs":[{"name":"value","type":"int256","internalType":"int256"}],"outputs":[{"name":"","type":"bool","internalType":"bool"}],"stateMutability":"nonpayable"},{"type":"function","name":"validateMinValue","inputs":[{"name":"value","type":"int256","internalType":"int256"}],"outputs":[{"name":"","type":"bool","internalType":"bool"}],"stateMutability":"nonpayable"}],"bytecode":{"object":"0x608060405234801561001057600080fd5b5060405161001d9061005f565b604051809103906000f080158015610039573d6000803e3d6000fd5b50600080546001600160a01b0319166001600160a01b039290921691909117905561006c565b610273806105d183390190565b6105568061007b6000396000f3fe608060405234801561001057600080fd5b506004361061007d5760003560e01c8063c1c3ee191161005b578063c1c3ee19146100cf578063d8f7da66146100e2578063ee86fa5f146100f5578063f7f664a0146100fd57600080fd5b80631ff3b35c146100825780633d97ba02146100a95780634a002c11146100bc575b600080fd5b610095610090366004610450565b610110565b604051901515815260200160405180910390f35b6100956100b7366004610482565b610188565b6100956100ca366004610482565b6101c3565b6100956100dd366004610450565b610265565b6100956100f0366004610450565b6102af565b610095610336565b61009561010b366004610450565b6103c9565b6000805460405163393bc27f60e11b81526004810184905282916001600160a01b03169063727784fe906024015b6020604051808303816000875af115801561015d573d6000803e3d6000fd5b505050506040513d601f19601f82011682018060405250810190610181919061049f565b9392505050565b6000805460405163c587a7e960e01b81526001600160801b03198416600482015282916001600160a01b03169063c587a7e99060240161013e565b60008060009054906101000a90046001600160a01b03166001600160a01b031663019c08f56040518163ffffffff1660e01b8152600401602060405180830381865afa158015610217573d6000803e3d6000fd5b505050506040513d601f19601f8201168201806040525081019061023b91906104c1565b6001600160801b031916826001600160801b0319160361025d57506001919050565b506000919050565b6000805460405163c1c3ee1960e01b81526004810184905282916001600160a01b03169063c1c3ee1990602401602060405180830381865afa15801561015d573d6000803e3d6000fd5b60008060009054906101000a90046001600160a01b03166001600160a01b03166394a5c2e46040518163ffffffff1660e01b8152600401602060405180830381865afa158015610303573d6000803e3d6000fd5b505050506040513d601f19601f8201168201806040525081019061032791906104de565b82131561025d57506001919050565b60008060009054906101000a90046001600160a01b03166001600160a01b0316638da5cb5b6040518163ffffffff1660e01b8152600401602060405180830381865afa15801561038a573d6000803e3d6000fd5b505050506040513d601f19601f820116820180604052508101906103ae91906104f7565b6001600160a01b031633036103c35750600190565b50600090565b60008060009054906101000a90046001600160a01b03166001600160a01b031663b69ef8a86040518163ffffffff1660e01b8152600401602060405180830381865afa15801561041d573d6000803e3d6000fd5b505050506040513d601f19601f8201168201806040525081019061044191906104de565b82111561025d57506001919050565b60006020828403121561046257600080fd5b5035919050565b6001600160801b03198116811461047f57600080fd5b50565b60006020828403121561049457600080fd5b813561018181610469565b6000602082840312156104b157600080fd5b8151801515811461018157600080fd5b6000602082840312156104d357600080fd5b815161018181610469565b6000602082840312156104f057600080fd5b5051919050565b60006020828403121561050957600080fd5b81516001600160a01b038116811461018157600080fdfea2646970667358221220a1e7794d793c03515efe21439f13721848be8a511194d344efb1afb285fa977264736f6c634300081300336080604052611388600055600180546001600160801b0319166001600160801b031790556103e86002556064600355600480546001600160a01b031916610fff17905534801561004e57600080fd5b506102158061005e6000396000f3fe608060405234801561001057600080fd5b506004361061007d5760003560e01c806394a5c2e41161005b57806394a5c2e4146100fb578063b69ef8a814610112578063c1c3ee191461011b578063c587a7e91461012e57600080fd5b8063019c08f514610082578063727784fe146100ad5780638da5cb5b146100d0575b600080fd5b60015461008f9060801b81565b6040516001600160801b031990911681526020015b60405180910390f35b6100c06100bb366004610195565b610141565b60405190151581526020016100a4565b6004546100e3906001600160a01b031681565b6040516001600160a01b0390911681526020016100a4565b61010460005481565b6040519081526020016100a4565b61010460035481565b6100c0610129366004610195565b61015c565b6100c061013c3660046101ae565b610170565b6000600354821161015457506001919050565b506000919050565b600060025482131561015457506001919050565b60015460009060801b6001600160801b03199081169083160361015457506001919050565b6000602082840312156101a757600080fd5b5035919050565b6000602082840312156101c057600080fd5b81356001600160801b0319811681146101d857600080fd5b939250505056fea2646970667358221220402184e61b705422c4b0c86d4383af2e45d761f93749c7d2ba3f786eccea24e364736f6c63430008130033","linkReferences":{}},"methodIdentifiers":{"callingExternalFunctionComparingInheritedStateVariable(bytes16)":"3d97ba02","callingExternalFunctionComparingStateVariable(uint256)":"1ff3b35c","greaterThanExternalField(uint256)":"f7f664a0","senderIdIsInheritedOwnerIdComparison(bytes16)":"4a002c11","senderIsOwnerComparison()":"ee86fa5f","validateMaxValue(int256)":"d8f7da66","validateMinValue(int256)":"c1c3ee19"},"id":7}