{"abi":[{"type":"constructor","inputs":[{"name":"_treasury","type":"address","internalType":"address"},{"name":"_owner","type":"address","internalType":"address"}],"stateMutability":"nonpayable"},{"type":"function","name":"allowance","inputs":[{"name":"owner","type":"address","internalType":"address"},{"name":"spender","type":"address","internalType":"address"}],"outputs":[{"name":"","type":"uint256","internalType":"uint256"}],"stateMutability":"view"},{"type":"function","name":"approve","inputs":[{"name":"spender","type":"address","internalType":"address"},{"name":"amount","type":"uint256","internalType":"uint256"}],"outputs":[{"name":"","type":"bool","internalType":"bool"}],"stateMutability":"nonpayable"},{"type":"function","name":"balanceOf","inputs":[{"name":"account","type":"address","internalType":"address"}],"outputs":[{"name":"","type":"uint256","internalType":"uint256"}],"stateMutability":"view"},{"type":"function","name":"complexTransfer","inputs":[{"name":"recipient","type":"address","internalType":"address"},{"name":"amount","type":"uint256","internalType":"uint256"}],"outputs":[{"name":"","type":"bool","internalType":"bool"}],"stateMutability":"nonpayable"},{"type":"function","name":"decimals","inputs":[],"outputs":[{"name":"","type":"uint8","internalType":"uint8"}],"stateMutability":"view"},{"type":"function","name":"decreaseAllowance","inputs":[{"name":"spender","type":"address","internalType":"address"},{"name":"subtractedValue","type":"uint256","internalType":"uint256"}],"outputs":[{"name":"","type":"bool","internalType":"bool"}],"stateMutability":"nonpayable"},{"type":"function","name":"increaseAllowance","inputs":[{"name":"spender","type":"address","internalType":"address"},{"name":"addedValue","type":"uint256","internalType":"uint256"}],"outputs":[{"name":"","type":"bool","internalType":"bool"}],"stateMutability":"nonpayable"},{"type":"function","name":"name","inputs":[],"outputs":[{"name":"","type":"string","internalType":"string"}],"stateMutability":"view"},{"type":"function","name":"owner","inputs":[],"outputs":[{"name":"","type":"address","internalType":"address"}],"stateMutability":"view"},{"type":"function","name":"symbol","inputs":[],"outputs":[{"name":"","type":"string","internalType":"string"}],"stateMutability":"view"},{"type":"function","name":"totalSupply","inputs":[],"outputs":[{"name":"","type":"uint256","internalType":"uint256"}],"stateMutability":"view"},{"type":"function","name":"transfer","inputs":[{"name":"to","type":"address","internalType":"address"},{"name":"amount","type":"uint256","internalType":"uint256"}],"outputs":[{"name":"","type":"bool","internalType":"bool"}],"stateMutability":"nonpayable"},{"type":"function","name":"transferFrom","inputs":[{"name":"from","type":"address","internalType":"address"},{"name":"to","type":"address","internalType":"address"},{"name":"amount","type":"uint256","internalType":"uint256"}],"outputs":[{"name":"","type":"bool","internalType":"bool"}],"stateMutability":"nonpayable"},{"type":"function","name":"treasury","inputs":[],"outputs":[{"name":"","type":"address","internalType":"address"}],"stateMutability":"view"},{"type":"event","name":"Approval","inputs":[{"name":"owner","type":"address","indexed":true,"internalType":"address"},{"name":"spender","type":"address","indexed":true,"internalType":"address"},{"name":"value","type":"uint256","indexed":false,"internalType":"uint256"}],"anonymous":false},{"type":"event","name":"Transfer","inputs":[{"name":"from","type":"address","indexed":true,"internalType":"address"},{"name":"to","type":"address","indexed":true,"internalType":"address"},{"name":"value","type":"uint256","indexed":false,"internalType":"uint256"}],"anonymous":false}],"bytecode":{"object":"0x60806040523480156200001157600080fd5b5060405162000d7838038062000d788339810160408190526200003491620001ec565b6040518060400160405280600f81526020016e21b7b6b83632bc2a3930b739b332b960891b8152506040518060400160405280600381526020016253504360e81b8152508160039081620000899190620002c8565b506004620000988282620002c8565b5050600680546001600160a01b038085166001600160a01b031992831617909255600580549286169290911691909117905550620000e1620000d73390565b620249f062000104565b600554620000fc906001600160a01b03166205573062000104565b5050620003bc565b6001600160a01b0382166200015f5760405162461bcd60e51b815260206004820152601f60248201527f45524332303a206d696e7420746f20746865207a65726f206164647265737300604482015260640160405180910390fd5b806002600082825462000173919062000394565b90915550506001600160a01b038216600081815260208181526040808320805486019055518481527fddf252ad1be2c89b69c2b068fc378daa952ba7f163c4a11628f55a4df523b3ef910160405180910390a35050565b505050565b80516001600160a01b0381168114620001e757600080fd5b919050565b600080604083850312156200020057600080fd5b6200020b83620001cf565b91506200021b60208401620001cf565b90509250929050565b634e487b7160e01b600052604160045260246000fd5b600181811c908216806200024f57607f821691505b6020821081036200027057634e487b7160e01b600052602260045260246000fd5b50919050565b601f821115620001ca57600081815260208120601f850160051c810160208610156200029f5750805b601f850160051c820191505b81811015620002c057828155600101620002ab565b505050505050565b81516001600160401b03811115620002e457620002e462000224565b620002fc81620002f584546200023a565b8462000276565b602080601f8311600181146200033457600084156200031b5750858301515b600019600386901b1c1916600185901b178555620002c0565b600085815260208120601f198616915b82811015620003655788860151825594840194600190910190840162000344565b5085821015620003845787850151600019600388901b60f8161c191681555b5050505050600190811b01905550565b80820180821115620003b657634e487b7160e01b600052601160045260246000fd5b92915050565b6109ac80620003cc6000396000f3fe608060405234801561001057600080fd5b50600436106100ea5760003560e01c806370a082311161008c578063a457c2d711610066578063a457c2d7146101e6578063a9059cbb146101f9578063aee198091461020c578063dd62ed3e1461021f57600080fd5b806370a08231146101a25780638da5cb5b146101cb57806395d89b41146101de57600080fd5b806323b872dd116100c857806323b872dd14610142578063313ce56714610155578063395093511461016457806361d027b31461017757600080fd5b806306fdde03146100ef578063095ea7b31461010d57806318160ddd14610130575b600080fd5b6100f7610232565b60405161010491906107db565b60405180910390f35b61012061011b366004610845565b6102c4565b6040519015158152602001610104565b6002545b604051908152602001610104565b61012061015036600461086f565b6102de565b60405160128152602001610104565b610120610172366004610845565b610302565b60055461018a906001600160a01b031681565b6040516001600160a01b039091168152602001610104565b6101346101b03660046108ab565b6001600160a01b031660009081526020819052604090205490565b60065461018a906001600160a01b031681565b6100f7610324565b6101206101f4366004610845565b610333565b610120610207366004610845565b6103b3565b61012061021a366004610845565b6103c1565b61013461022d3660046108cd565b61046e565b60606003805461024190610900565b80601f016020809104026020016040519081016040528092919081815260200182805461026d90610900565b80156102ba5780601f1061028f576101008083540402835291602001916102ba565b820191906000526020600020905b81548152906001019060200180831161029d57829003601f168201915b5050505050905090565b6000336102d2818585610499565b60019150505b92915050565b6000336102ec8582856105bd565b6102f7858585610637565b506001949350505050565b6000336102d2818585610315838361046e565b61031f9190610950565b610499565b60606004805461024190610900565b60003381610341828661046e565b9050838110156103a65760405162461bcd60e51b815260206004820152602560248201527f45524332303a2064656372656173656420616c6c6f77616e63652062656c6f77604482015264207a65726f60d81b60648201526084015b60405180910390fd5b6102f78286868403610499565b6000336102d2818585610637565b60008060648311156103d55750600661043f565b60508311156103e65750600561043f565b603c8311156103f75750600461043f565b60288311156104085750600361043f565b60148311156104195750600261043f565b600a83111561042a5750600161043f565b610435338585610637565b60019150506102d8565b600061044b8285610963565b9050610463336005546001600160a01b031684610637565b6102f7338683610637565b6001600160a01b03918216600090815260016020908152604080832093909416825291909152205490565b6001600160a01b0383166104fb5760405162461bcd60e51b8152602060048201526024808201527f45524332303a20617070726f76652066726f6d20746865207a65726f206164646044820152637265737360e01b606482015260840161039d565b6001600160a01b03821661055c5760405162461bcd60e51b815260206004820152602260248201527f45524332303a20617070726f766520746f20746865207a65726f206164647265604482015261737360f01b606482015260840161039d565b6001600160a01b0383811660008181526001602090815260408083209487168084529482529182902085905590518481527f8c5be1e5ebec7d5bd14f71427d1e84f3dd0314c0f7b2291e5b200ac8c7c3b925910160405180910390a3505050565b60006105c9848461046e565b9050600019811461063157818110156106245760405162461bcd60e51b815260206004820152601d60248201527f45524332303a20696e73756666696369656e7420616c6c6f77616e6365000000604482015260640161039d565b6106318484848403610499565b50505050565b6001600160a01b03831661069b5760405162461bcd60e51b815260206004820152602560248201527f45524332303a207472616e736665722066726f6d20746865207a65726f206164604482015264647265737360d81b606482015260840161039d565b6001600160a01b0382166106fd5760405162461bcd60e51b815260206004820152602360248201527f45524332303a207472616e7366657220746f20746865207a65726f206164647260448201526265737360e81b606482015260840161039d565b6001600160a01b038316600090815260208190526040902054818110156107755760405162461bcd60e51b815260206004820152602660248201527f45524332303a207472616e7366657220616d6f756e7420657863656564732062604482015265616c616e636560d01b606482015260840161039d565b6001600160a01b03848116600081815260208181526040808320878703905593871680835291849020805487019055925185815290927fddf252ad1be2c89b69c2b068fc378daa952ba7f163c4a11628f55a4df523b3ef910160405180910390a3610631565b600060208083528351808285015260005b81811015610808578581018301518582016040015282016107ec565b506000604082860101526040601f19601f8301168501019250505092915050565b80356001600160a01b038116811461084057600080fd5b919050565b6000806040838503121561085857600080fd5b61086183610829565b946020939093013593505050565b60008060006060848603121561088457600080fd5b61088d84610829565b925061089b60208501610829565b9150604084013590509250925092565b6000602082840312156108bd57600080fd5b6108c682610829565b9392505050565b600080604083850312156108e057600080fd5b6108e983610829565b91506108f760208401610829565b90509250929050565b600181811c9082168061091457607f821691505b60208210810361093457634e487b7160e01b600052602260045260246000fd5b50919050565b634e487b7160e01b600052601160045260246000fd5b808201808211156102d8576102d861093a565b818103818111156102d8576102d861093a56fea2646970667358221220e8175aea42ee5bda3a1d149c7207a5ca35888de58a307fe456aed56a2ce15b0364736f6c63430008130033","linkReferences":{}},"methodIdentifiers":{"allowance(address,address)":"dd62ed3e","approve(address,uint256)":"095ea7b3","balanceOf(address)":"70a08231","complexTransfer(address,uint256)":"aee19809","decimals()":"313ce567","decreaseAllowance(address,uint256)":"a457c2d7","increaseAllowance(address,uint256)":"39509351","name()":"06fdde03","owner()":"8da5cb5b","symbol()":"95d89b41","totalSupply()":"18160ddd","transfer(address,uint256)":"a9059cbb","transferFrom(address,address,uint256)":"23b872dd","treasury()":"61d027b3"},"id":4}