{"abi":[{"type":"function","name":"addToA","inputs":[{"name":"amount","type":"uint256","internalType":"uint256"}],"outputs":[],"stateMutability":"nonpayable"},{"type":"function","name":"addToB","inputs":[{"name":"amount","type":"uint256","internalType":"uint256"}],"outputs":[],"stateMutability":"nonpayable"},{"type":"function","name":"val1","inputs":[],"outputs":[{"name":"","type":"uint256","internalType":"uint256"}],"stateMutability":"view"},{"type":"function","name":"val2","inputs":[],"outputs":[{"name":"","type":"uint256","internalType":"uint256"}],"stateMutability":"view"},{"type":"function","name":"val3","inputs":[],"outputs":[{"name":"","type":"uint256","internalType":"uint256"}],"stateMutability":"view"}],"bytecode":{"object":"0x608060405234801561001057600080fd5b5061016b806100206000396000f3fe608060405234801561001057600080fd5b50600436106100575760003560e01c8063585baa971461005c57806395cacbe014610071578063bf9e206d1461008c578063c82fdf3614610095578063d116a4391461009e575b600080fd5b61006f61006a3660046100f5565b6100b1565b005b61007a60015481565b60405190815260200160405180910390f35b61007a60025481565b61007a60005481565b61006f6100ac3660046100f5565b6100e4565b80600160008282546100c3919061010e565b9250508190555080600260008282546100dc919061010e565b909155505050565b806000808282546100c3919061010e565b60006020828403121561010757600080fd5b5035919050565b8082018082111561012f57634e487b7160e01b600052601160045260246000fd5b9291505056fea26469706673582212202d0789508570dec8978e9403cf7c1fd46fc93aee67164b05b38c4938bf10904864736f6c63430008130033","linkReferences":{}},"methodIdentifiers":{"addToA(uint256)":"d116a439","addToB(uint256)":"585baa97","val1()":"c82fdf36","val2()":"95cacbe0","val3()":"bf9e206d"},"id":8}