{"abi":[{"type":"constructor","inputs":[{"name":"initialBalance","type":"uint256","internalType":"uint256"},{"name":"_isActive","type":"bool","internalType":"bool"}],"stateMutability":"nonpayable"},{"type":"function","name":"callingInnerFunctioFromAnotherContract","inputs":[{"name":"firstValue","type":"uint256","internalType":"uint256"},{"name":"secondValue","type":"uint256","internalType":"uint256"}],"outputs":[{"name":"","type":"bool","internalType":"bool"}],"stateMutability":"view"}],"bytecode":{"object":"0x608060405234801561001057600080fd5b506040516103a23803806103a283398101604081905261002f91610116565b610039828261008e565b6040516100459061010a565b604051809103906000f080158015610061573d6000803e3d6000fd5b506001806101000a8154816001600160a01b0302191690836001600160a01b03160217905550505061014b565b600082116100f15760405162461bcd60e51b815260206004820152602660248201527f496e697469616c2062616c616e6365206d75737420626520677265617465722060448201526507468616e20360d41b606482015260840160405180910390fd5b6000919091556001805460ff1916911515919091179055565b60eb806102b783390190565b6000806040838503121561012957600080fd5b825191506020830151801515811461014057600080fd5b809150509250929050565b61015d8061015a6000396000f3fe608060405234801561001057600080fd5b506004361061002b5760003560e01c806343f92cb714610030575b600080fd5b61004361003e3660046100dc565b610057565b604051901515815260200160405180910390f35b600154604051636b5c908360e11b8152600481018490526024810183905260009182916101009091046001600160a01b03169063d6b9210690604401602060405180830381865afa1580156100b0573d6000803e3d6000fd5b505050506040513d601f19601f820116820180604052508101906100d491906100fe565b949350505050565b600080604083850312156100ef57600080fd5b50508035926020909101359150565b60006020828403121561011057600080fd5b8151801515811461012057600080fd5b939250505056fea26469706673582212200906aa9606db3c7a509f06d3fe29259ae91e32cde9483d7ff4491de4cb532e3e64736f6c63430008130033608060405234801561001057600080fd5b5060cc8061001f6000396000f3fe6080604052348015600f57600080fd5b506004361060285760003560e01c8063d6b9210614602d575b600080fd5b603c60383660046075565b6050565b604051901515815260200160405180910390f35b6000606483118060605750606482115b15606b57506001606f565b5060005b92915050565b60008060408385031215608757600080fd5b5050803592602090910135915056fea2646970667358221220e33c030d2bcb03b46f3ffe1839cac0449833859803a8a27d0d5fc18faad62bbe64736f6c63430008130033","linkReferences":{}},"methodIdentifiers":{"callingInnerFunctioFromAnotherContract(uint256,uint256)":"43f92cb7"},"id":15}