{"abi":[{"type":"function","name":"innerExternalFunction","inputs":[{"name":"value","type":"uint256","internalType":"uint256"},{"name":"anotherValue","type":"uint256","internalType":"uint256"}],"outputs":[{"name":"","type":"bool","internalType":"bool"}],"stateMutability":"pure"}],"bytecode":{"object":"0x608060405234801561001057600080fd5b5060cc8061001f6000396000f3fe6080604052348015600f57600080fd5b506004361060285760003560e01c8063d6b9210614602d575b600080fd5b603c60383660046075565b6050565b604051901515815260200160405180910390f35b6000606483118060605750606482115b15606b57506001606f565b5060005b92915050565b60008060408385031215608757600080fd5b5050803592602090910135915056fea2646970667358221220e33c030d2bcb03b46f3ffe1839cac0449833859803a8a27d0d5fc18faad62bbe64736f6c63430008130033","linkReferences":{}},"methodIdentifiers":{"innerExternalFunction(uint256,uint256)":"d6b92106"},"id":14}