{"abi":[{"type":"function","name":"logText","inputs":[{"name":"text","type":"string","internalType":"string"}],"outputs":[],"stateMutability":"nonpayable"},{"type":"event","name":"SomethingHappened","inputs":[{"name":"sender","type":"address","indexed":false,"internalType":"address"},{"name":"text","type":"string","indexed":false,"internalType":"string"}],"anonymous":false}],"bytecode":{"object":"0x608060405234801561001057600080fd5b506101dc806100206000396000f3fe608060405234801561001057600080fd5b506004361061002b5760003560e01c8063837e835814610030575b600080fd5b61004361003e366004610097565b610045565b005b7fd465f619a60f5573290992233abcfb5e88ee3ca1737ee3be736b95e5828f3f283382604051610076929190610148565b60405180910390a150565b634e487b7160e01b600052604160045260246000fd5b6000602082840312156100a957600080fd5b813567ffffffffffffffff808211156100c157600080fd5b818401915084601f8301126100d557600080fd5b8135818111156100e7576100e7610081565b604051601f8201601f19908116603f0116810190838211818310171561010f5761010f610081565b8160405282815287602084870101111561012857600080fd5b826020860160208301376000928101602001929092525095945050505050565b60018060a01b038316815260006020604081840152835180604085015260005b8181101561018457858101830151858201606001528201610168565b506000606082860101526060601f19601f83011685010192505050939250505056fea26469706673582212200cd6dd4d447b84e32ddca0df62180dc77f9e812122d74808ff9e1a201d253f0564736f6c63430008130033","linkReferences":{}},"methodIdentifiers":{"logText(string)":"837e8358"},"id":22}