{"abi":[{"type":"constructor","inputs":[{"name":"_ownerId","type":"bytes16","internalType":"bytes16"}],"stateMutability":"nonpayable"},{"type":"function","name":"ownerId","inputs":[],"outputs":[{"name":"","type":"bytes16","internalType":"bytes16"}],"stateMutability":"view"}],"bytecode":{"object":"0x608060405234801561001057600080fd5b5060405161012238038061012283398101604081905261002f9161004e565b600080546001600160801b03191660809290921c91909117905561007f565b60006020828403121561006057600080fd5b81516001600160801b03198116811461007857600080fd5b9392505050565b60958061008d6000396000f3fe6080604052348015600f57600080fd5b506004361060285760003560e01c8063019c08f514602d575b600080fd5b60005460399060801b81565b6040516fffffffffffffffffffffffffffffffff19909116815260200160405180910390f3fea2646970667358221220e581fc6548e60dab14897e0359fd81a6d2cfc1a720f4362b7bdc208c4812200664736f6c63430008130033","linkReferences":{}},"methodIdentifiers":{"ownerId()":"019c08f5"},"id":31}