{"abi":[{"type":"constructor","inputs":[{"name":"_isEnabled","type":"bool","internalType":"bool"}],"stateMutability":"nonpayable"},{"type":"function","name":"isEnabled","inputs":[],"outputs":[{"name":"","type":"bool","internalType":"bool"}],"stateMutability":"view"}],"bytecode":{"object":"0x608060405234801561001057600080fd5b506040516100ff3803806100ff83398101604081905261002f91610045565b6000805460ff191691151591909117905561006e565b60006020828403121561005757600080fd5b8151801515811461006757600080fd5b9392505050565b60838061007c6000396000f3fe6080604052348015600f57600080fd5b506004361060285760003560e01c80636aa633b614602d575b600080fd5b60005460399060ff1681565b604051901515815260200160405180910390f3fea264697066735822122085ffa21a1f4eb3e185e88dbf4aba537d6bc9721b80b802404eb2c2bf027e589264736f6c63430008130033","linkReferences":{}},"methodIdentifiers":{"isEnabled()":"6aa633b6"},"id":31}