{"abi":[{"type":"constructor","inputs":[{"name":"_isEnabled","type":"bool","internalType":"bool"},{"name":"_owner","type":"address","internalType":"address"}],"stateMutability":"nonpayable"},{"type":"function","name":"isEnabled","inputs":[],"outputs":[{"name":"","type":"bool","internalType":"bool"}],"stateMutability":"view"},{"type":"function","name":"owner","inputs":[],"outputs":[{"name":"","type":"address","internalType":"address"}],"stateMutability":"view"}],"bytecode":{"object":"0x608060405234801561001057600080fd5b5060405161017f38038061017f83398101604081905261002f9161006a565b600080546001600160a81b031916921515610100600160a81b031916929092176101006001600160a01b0392909216919091021790556100b5565b6000806040838503121561007d57600080fd5b8251801515811461008d57600080fd5b60208401519092506001600160a01b03811681146100aa57600080fd5b809150509250929050565b60bc806100c36000396000f3fe6080604052348015600f57600080fd5b506004361060325760003560e01c80636aa633b61460375780638da5cb5b146058575b600080fd5b60005460439060ff1681565b60405190151581526020015b60405180910390f35b600054606f9061010090046001600160a01b031681565b6040516001600160a01b039091168152602001604f56fea2646970667358221220d0794604768e9f6e77205631b74813c681814e2e0db9bfafdcbeed22944090c864736f6c63430008130033","linkReferences":{}},"methodIdentifiers":{"isEnabled()":"6aa633b6","owner()":"8da5cb5b"},"id":31}