{"abi":[{"type":"function","name":"innerFunctionResultComparison","inputs":[{"name":"firstValue","type":"uint256","internalType":"uint256"},{"name":"secondValue","type":"uint256","internalType":"uint256"}],"outputs":[{"name":"","type":"bool","internalType":"bool"}],"stateMutability":"pure"}],"bytecode":{"object":"0x608060405234801561001057600080fd5b50610102806100206000396000f3fe6080604052348015600f57600080fd5b506004361060285760003560e01c80633a4e4ffc14602d575b600080fd5b603c6038366004608b565b6050565b604051901515815260200160405180910390f35b600080605b8484607a565b90506064811115606e5760019150506074565b60009150505b92915050565b60006084828460ac565b9392505050565b60008060408385031215609d57600080fd5b50508035926020909101359150565b80820180821115607457634e487b7160e01b600052601160045260246000fdfea2646970667358221220b806ea830775fc2b3b51565edc8097f3f7cd7b6cd50c2f4ab17af196bdccb3f364736f6c63430008130033","linkReferences":{}},"methodIdentifiers":{"innerFunctionResultComparison(uint256,uint256)":"3a4e4ffc"},"id":31}