{"abi":[{"type":"constructor","inputs":[{"name":"_owner","type":"address","internalType":"address"},{"name":"ownerId","type":"bytes16","internalType":"bytes16"},{"name":"_isEnabled","type":"bool","internalType":"bool"}],"stateMutability":"nonpayable"},{"type":"function","name":"addressOnInheritanceContract","inputs":[{"name":"user","type":"address","internalType":"address"}],"outputs":[{"name":"","type":"bool","internalType":"bool"}],"stateMutability":"view"},{"type":"function","name":"boolInDeepInheritanceContract","inputs":[],"outputs":[{"name":"","type":"bool","internalType":"bool"}],"stateMutability":"view"},{"type":"function","name":"bytesOnNextInheritanceContract","inputs":[{"name":"userId","type":"bytes16","internalType":"bytes16"}],"outputs":[{"name":"","type":"bool","internalType":"bool"}],"stateMutability":"view"},{"type":"function","name":"isEnabled","inputs":[],"outputs":[{"name":"","type":"bool","internalType":"bool"}],"stateMutability":"view"},{"type":"function","name":"owner","inputs":[],"outputs":[{"name":"","type":"address","internalType":"address"}],"stateMutability":"view"},{"type":"function","name":"ownerId","inputs":[],"outputs":[{"name":"","type":"bytes16","internalType":"bytes16"}],"stateMutability":"view"}],"bytecode":{"object":"0x608060405234801561001057600080fd5b5060405161031438038061031483398101604081905261002f91610088565b600080546001600160a01b0390941661010002610100600160a81b0319921515929092166001600160a81b031990941693909317179091556001805460809290921c6001600160801b03199092169190911790556100f3565b60008060006060848603121561009d57600080fd5b83516001600160a01b03811681146100b457600080fd5b60208501519093506001600160801b0319811681146100d257600080fd5b604085015190925080151581146100e857600080fd5b809150509250925092565b610212806101026000396000f3fe608060405234801561001057600080fd5b50600436106100625760003560e01c8063019c08f51461006757806304c80e6a14610092578063129aa45d146100b55780636aa633b6146100bd5780636c733f74146100ca5780638da5cb5b146100dd575b600080fd5b6001546100749060801b81565b6040516001600160801b031990911681526020015b60405180910390f35b6100a56100a0366004610182565b61010d565b6040519015158152602001610089565b6100a561013a565b6000546100a59060ff1681565b6100a56100d83660046101b3565b610156565b6000546100f59061010090046001600160a01b031681565b6040516001600160a01b039091168152602001610089565b60015460009060801b6001600160801b03199081169083161461013257506000919050565b506001919050565b6000805460ff161561014c5750600190565b5060005460ff1690565b600080546001600160a01b0361010090910481169083160361017a57506001919050565b506000919050565b60006020828403121561019457600080fd5b81356001600160801b0319811681146101ac57600080fd5b9392505050565b6000602082840312156101c557600080fd5b81356001600160a01b03811681146101ac57600080fdfea2646970667358221220c9201eba4a9c6beea8a92ea5d43ac03796d467ab2629126264127997ca1e8c5064736f6c63430008130033","linkReferences":{}},"methodIdentifiers":{"addressOnInheritanceContract(address)":"6c733f74","boolInDeepInheritanceContract()":"129aa45d","bytesOnNextInheritanceContract(bytes16)":"04c80e6a","isEnabled()":"6aa633b6","owner()":"8da5cb5b","ownerId()":"019c08f5"},"id":31}