{"abi":[{"type":"constructor","inputs":[{"name":"_treasury","type":"address","internalType":"address"},{"name":"_owner","type":"address","internalType":"address"}],"stateMutability":"nonpayable"},{"type":"function","name":"INVALID_AMOUNT_MESSAGE","inputs":[],"outputs":[{"name":"","type":"string","internalType":"string"}],"stateMutability":"view"},{"type":"function","name":"allowance","inputs":[{"name":"owner","type":"address","internalType":"address"},{"name":"spender","type":"address","internalType":"address"}],"outputs":[{"name":"","type":"uint256","internalType":"uint256"}],"stateMutability":"view"},{"type":"function","name":"anotherTransfer","inputs":[{"name":"recipientAddress","type":"address","internalType":"address"},{"name":"value","type":"uint256","internalType":"uint256"}],"outputs":[{"name":"","type":"bool","internalType":"bool"}],"stateMutability":"nonpayable"},{"type":"function","name":"approve","inputs":[{"name":"spender","type":"address","internalType":"address"},{"name":"amount","type":"uint256","internalType":"uint256"}],"outputs":[{"name":"","type":"bool","internalType":"bool"}],"stateMutability":"nonpayable"},{"type":"function","name":"balanceOf","inputs":[{"name":"account","type":"address","internalType":"address"}],"outputs":[{"name":"","type":"uint256","internalType":"uint256"}],"stateMutability":"view"},{"type":"function","name":"decimals","inputs":[],"outputs":[{"name":"","type":"uint8","internalType":"uint8"}],"stateMutability":"view"},{"type":"function","name":"decreaseAllowance","inputs":[{"name":"spender","type":"address","internalType":"address"},{"name":"subtractedValue","type":"uint256","internalType":"uint256"}],"outputs":[{"name":"","type":"bool","internalType":"bool"}],"stateMutability":"nonpayable"},{"type":"function","name":"ico","inputs":[],"outputs":[{"name":"","type":"address","internalType":"contract Ico"}],"stateMutability":"view"},{"type":"function","name":"increaseAllowance","inputs":[{"name":"spender","type":"address","internalType":"address"},{"name":"addedValue","type":"uint256","internalType":"uint256"}],"outputs":[{"name":"","type":"bool","internalType":"bool"}],"stateMutability":"nonpayable"},{"type":"function","name":"name","inputs":[],"outputs":[{"name":"","type":"string","internalType":"string"}],"stateMutability":"view"},{"type":"function","name":"owner","inputs":[],"outputs":[{"name":"","type":"address","internalType":"address"}],"stateMutability":"view"},{"type":"function","name":"symbol","inputs":[],"outputs":[{"name":"","type":"string","internalType":"string"}],"stateMutability":"view"},{"type":"function","name":"taxEnabled","inputs":[],"outputs":[{"name":"","type":"bool","internalType":"bool"}],"stateMutability":"view"},{"type":"function","name":"toggleTax","inputs":[],"outputs":[],"stateMutability":"nonpayable"},{"type":"function","name":"totalSupply","inputs":[],"outputs":[{"name":"","type":"uint256","internalType":"uint256"}],"stateMutability":"view"},{"type":"function","name":"transfer","inputs":[{"name":"recipient","type":"address","internalType":"address"},{"name":"transferingamount","type":"uint256","internalType":"uint256"}],"outputs":[{"name":"","type":"bool","internalType":"bool"}],"stateMutability":"nonpayable"},{"type":"function","name":"transferFrom","inputs":[{"name":"from","type":"address","internalType":"address"},{"name":"to","type":"address","internalType":"address"},{"name":"amount","type":"uint256","internalType":"uint256"}],"outputs":[{"name":"","type":"bool","internalType":"bool"}],"stateMutability":"nonpayable"},{"type":"function","name":"treasury","inputs":[],"outputs":[{"name":"","type":"address","internalType":"address"}],"stateMutability":"view"},{"type":"event","name":"Approval","inputs":[{"name":"owner","type":"address","indexed":true,"internalType":"address"},{"name":"spender","type":"address","indexed":true,"internalType":"address"},{"name":"value","type":"uint256","indexed":false,"internalType":"uint256"}],"anonymous":false},{"type":"event","name":"Transfer","inputs":[{"name":"from","type":"address","indexed":true,"internalType":"address"},{"name":"to","type":"address","indexed":true,"internalType":"address"},{"name":"value","type":"uint256","indexed":false,"internalType":"uint256"}],"anonymous":false}],"bytecode":{"object":"0x6006805460ff60a01b1916600160a01b17905560c06040526011608090815270105b5bdd5b9d081a5cc81a5b9d985b1a59607a1b60a052600890620000459082620002c1565b503480156200005357600080fd5b5060405162001118380380620011188339810160408190526200007691620003aa565b6040518060400160405280600981526020016829b830b1b2a1b7b4b760b91b8152506040518060400160405280600381526020016253504360e81b8152508160039081620000c59190620002c1565b506004620000d48282620002c1565b5050600680546001600160a01b038085166001600160a01b0319928316179092556005805492861692909116919091179055506200011d620001133390565b620249f062000152565b60055462000138906001600160a01b03166205573062000152565b5050600780546001600160a01b031916331790556200040a565b6001600160a01b038216620001ad5760405162461bcd60e51b815260206004820152601f60248201527f45524332303a206d696e7420746f20746865207a65726f206164647265737300604482015260640160405180910390fd5b8060026000828254620001c19190620003e2565b90915550506001600160a01b038216600081815260208181526040808320805486019055518481527fddf252ad1be2c89b69c2b068fc378daa952ba7f163c4a11628f55a4df523b3ef910160405180910390a35050565b505050565b634e487b7160e01b600052604160045260246000fd5b600181811c908216806200024857607f821691505b6020821081036200026957634e487b7160e01b600052602260045260246000fd5b50919050565b601f8211156200021857600081815260208120601f850160051c81016020861015620002985750805b601f850160051c820191505b81811015620002b957828155600101620002a4565b505050505050565b81516001600160401b03811115620002dd57620002dd6200021d565b620002f581620002ee845462000233565b846200026f565b602080601f8311600181146200032d5760008415620003145750858301515b600019600386901b1c1916600185901b178555620002b9565b600085815260208120601f198616915b828110156200035e578886015182559484019460019091019084016200033d565b50858210156200037d5787850151600019600388901b60f8161c191681555b5050505050600190811b01905550565b80516001600160a01b0381168114620003a557600080fd5b919050565b60008060408385031215620003be57600080fd5b620003c9836200038d565b9150620003d9602084016200038d565b90509250929050565b808201808211156200040457634e487b7160e01b600052601160045260246000fd5b92915050565b610cfe806200041a6000396000f3fe608060405234801561001057600080fd5b50600436106101165760003560e01c806370a08231116100a2578063a457c2d711610071578063a457c2d714610243578063a9059cbb14610256578063dd62ed3e14610269578063dfc924d51461027c578063e8f208da1461028f57600080fd5b806370a08231146101eb578063870bd30b146102145780638da5cb5b1461022857806395d89b411461023b57600080fd5b806323b872dd116100e957806323b872dd14610178578063313ce5671461018b578063395093511461019a5780635d452201146101ad57806361d027b3146101d857600080fd5b806306fdde031461011b578063095ea7b31461013957806310bf60291461015c57806318160ddd14610166575b600080fd5b610123610297565b6040516101309190610aec565b60405180910390f35b61014c610147366004610b56565b610329565b6040519015158152602001610130565b610164610343565b005b6002545b604051908152602001610130565b61014c610186366004610b80565b6103cd565b60405160128152602001610130565b61014c6101a8366004610b56565b6103f1565b6007546101c0906001600160a01b031681565b6040516001600160a01b039091168152602001610130565b6005546101c0906001600160a01b031681565b61016a6101f9366004610bbc565b6001600160a01b031660009081526020819052604090205490565b60065461014c90600160a01b900460ff1681565b6006546101c0906001600160a01b031681565b610123610413565b61014c610251366004610b56565b610422565b61014c610264366004610b56565b61049d565b61016a610277366004610bde565b610597565b61014c61028a366004610b56565b6105c2565b6101236106d3565b6060600380546102a690610c11565b80601f01602080910402602001604051908101604052809291908181526020018280546102d290610c11565b801561031f5780601f106102f45761010080835404028352916020019161031f565b820191906000526020600020905b81548152906001019060200180831161030257829003601f168201915b5050505050905090565b600033610337818585610761565b60019150505b92915050565b6006546001600160a01b031633146103ac5760405162461bcd60e51b815260206004820152602160248201527f4f6e6c79206f776e65722063616e2063616c6c20746869732066756e6374696f6044820152603760f91b60648201526084015b60405180910390fd5b6006805460ff60a01b198116600160a01b9182900460ff1615909102179055565b6000336103db858285610885565b6103e68585856108ff565b506001949350505050565b6000336103378185856104048383610597565b61040e9190610c61565b610761565b6060600480546102a690610c11565b600033816104308286610597565b9050838110156104905760405162461bcd60e51b815260206004820152602560248201527f45524332303a2064656372656173656420616c6c6f77616e63652062656c6f77604482015264207a65726f60d81b60648201526084016103a3565b6103e68286868403610761565b60008183600082116104f15760405162461bcd60e51b815260206004820152601d60248201527f416d6f756e74206d7573742062652067726561746572207468616e203000000060448201526064016103a3565b6006546001600160a01b0382811691161480159061051d57506005546001600160a01b03828116911614155b6105395760405162461bcd60e51b81526004016103a390610c74565b61054284610aa3565b600654600160a01b900460ff161561058c57600260006105628287610cb5565b905061057a336005546001600160a01b0316846108ff565b6105853388836108ff565b50506103e6565b6103e63386866108ff565b6001600160a01b03918216600090815260016020908152604080832093909416825291909152205490565b60008183600082116106165760405162461bcd60e51b815260206004820152601d60248201527f416d6f756e74206d7573742062652067726561746572207468616e203000000060448201526064016103a3565b6006546001600160a01b0382811691161480159061064257506005546001600160a01b03828116911614155b61065e5760405162461bcd60e51b81526004016103a390610c74565b83606481106106af5760405162461bcd60e51b815260206004820152601a60248201527f416d6f756e74206d757374206265206c657373207468616e203000000000000060448201526064016103a3565b60016106c633886106c1896001610c61565b6108ff565b5060019695505050505050565b600880546106e090610c11565b80601f016020809104026020016040519081016040528092919081815260200182805461070c90610c11565b80156107595780601f1061072e57610100808354040283529160200191610759565b820191906000526020600020905b81548152906001019060200180831161073c57829003601f168201915b505050505081565b6001600160a01b0383166107c35760405162461bcd60e51b8152602060048201526024808201527f45524332303a20617070726f76652066726f6d20746865207a65726f206164646044820152637265737360e01b60648201526084016103a3565b6001600160a01b0382166108245760405162461bcd60e51b815260206004820152602260248201527f45524332303a20617070726f766520746f20746865207a65726f206164647265604482015261737360f01b60648201526084016103a3565b6001600160a01b0383811660008181526001602090815260408083209487168084529482529182902085905590518481527f8c5be1e5ebec7d5bd14f71427d1e84f3dd0314c0f7b2291e5b200ac8c7c3b925910160405180910390a3505050565b60006108918484610597565b905060001981146108f957818110156108ec5760405162461bcd60e51b815260206004820152601d60248201527f45524332303a20696e73756666696369656e7420616c6c6f77616e636500000060448201526064016103a3565b6108f98484848403610761565b50505050565b6001600160a01b0383166109635760405162461bcd60e51b815260206004820152602560248201527f45524332303a207472616e736665722066726f6d20746865207a65726f206164604482015264647265737360d81b60648201526084016103a3565b6001600160a01b0382166109c55760405162461bcd60e51b815260206004820152602360248201527f45524332303a207472616e7366657220746f20746865207a65726f206164647260448201526265737360e81b60648201526084016103a3565b6001600160a01b03831660009081526020819052604090205481811015610a3d5760405162461bcd60e51b815260206004820152602660248201527f45524332303a207472616e7366657220616d6f756e7420657863656564732062604482015265616c616e636560d01b60648201526084016103a3565b6001600160a01b03848116600081815260208181526040808320878703905593871680835291849020805487019055925185815290927fddf252ad1be2c89b69c2b068fc378daa952ba7f163c4a11628f55a4df523b3ef910160405180910390a36108f9565b6064811115610ae95760405162461bcd60e51b8152602060048201526012602482015271082dadeeadce840d2e640e8dede40d0d2ced60731b60448201526064016103a3565b50565b600060208083528351808285015260005b81811015610b1957858101830151858201604001528201610afd565b506000604082860101526040601f19601f8301168501019250505092915050565b80356001600160a01b0381168114610b5157600080fd5b919050565b60008060408385031215610b6957600080fd5b610b7283610b3a565b946020939093013593505050565b600080600060608486031215610b9557600080fd5b610b9e84610b3a565b9250610bac60208501610b3a565b9150604084013590509250925092565b600060208284031215610bce57600080fd5b610bd782610b3a565b9392505050565b60008060408385031215610bf157600080fd5b610bfa83610b3a565b9150610c0860208401610b3a565b90509250929050565b600181811c90821680610c2557607f821691505b602082108103610c4557634e487b7160e01b600052602260045260246000fd5b50919050565b634e487b7160e01b600052601160045260246000fd5b8082018082111561033d5761033d610c4b565b60208082526021908201527f526563697069656e74206d75737420626520612076616c6964206164647265736040820152607360f81b606082015260800190565b8181038181111561033d5761033d610c4b56fea2646970667358221220fecde5ff8a858d809ac9aa9034219ac33a6033d8b97543743b3477995d77924364736f6c63430008130033","linkReferences":{}},"methodIdentifiers":{"INVALID_AMOUNT_MESSAGE()":"e8f208da","allowance(address,address)":"dd62ed3e","anotherTransfer(address,uint256)":"dfc924d5","approve(address,uint256)":"095ea7b3","balanceOf(address)":"70a08231","decimals()":"313ce567","decreaseAllowance(address,uint256)":"a457c2d7","ico()":"5d452201","increaseAllowance(address,uint256)":"39509351","name()":"06fdde03","owner()":"8da5cb5b","symbol()":"95d89b41","taxEnabled()":"870bd30b","toggleTax()":"10bf6029","totalSupply()":"18160ddd","transfer(address,uint256)":"a9059cbb","transferFrom(address,address,uint256)":"23b872dd","treasury()":"61d027b3"},"id":15}