{"abi":[{"type":"function","name":"callingInheritedInnerFunction","inputs":[{"name":"value","type":"uint256","internalType":"uint256"},{"name":"anotherValue","type":"uint256","internalType":"uint256"}],"outputs":[{"name":"","type":"bool","internalType":"bool"}],"stateMutability":"view"},{"type":"function","name":"callingInnerFunctionInsideAnotherInnerFunction","inputs":[{"name":"firstValue","type":"int256","internalType":"int256"},{"name":"secondValue","type":"int256","internalType":"int256"}],"outputs":[{"name":"","type":"bool","internalType":"bool"}],"stateMutability":"view"},{"type":"function","name":"callingInnerFunctionWithArithmeticExpressionInside","inputs":[{"name":"firstValue","type":"int256","internalType":"int256"},{"name":"secondValue","type":"int256","internalType":"int256"}],"outputs":[{"name":"","type":"bool","internalType":"bool"}],"stateMutability":"view"},{"type":"function","name":"callingInnerFunctionWithConditional","inputs":[{"name":"firstValue","type":"uint256","internalType":"uint256"},{"name":"secondValue","type":"uint256","internalType":"uint256"}],"outputs":[{"name":"","type":"bool","internalType":"bool"}],"stateMutability":"view"},{"type":"function","name":"callingInnerFunctionWithLocalVariableAsArgument","inputs":[{"name":"firstValue","type":"int256","internalType":"int256"},{"name":"secondValue","type":"int256","internalType":"int256"}],"outputs":[{"name":"","type":"bool","internalType":"bool"}],"stateMutability":"view"},{"type":"function","name":"callingInnerFunctionWithRequires","inputs":[{"name":"firstValue","type":"uint256","internalType":"uint256"},{"name":"secondValue","type":"uint256","internalType":"uint256"}],"outputs":[{"name":"","type":"uint256","internalType":"uint256"}],"stateMutability":"view"},{"type":"function","name":"innerExternalFunction","inputs":[{"name":"value","type":"uint256","internalType":"uint256"},{"name":"anotherValue","type":"uint256","internalType":"uint256"}],"outputs":[{"name":"","type":"bool","internalType":"bool"}],"stateMutability":"pure"}],"bytecode":{"object":"0x608060405234801561001057600080fd5b5061039b806100206000396000f3fe608060405234801561001057600080fd5b506004361061007d5760003560e01c8063a552109f1161005b578063a552109f146100bd578063aadc2aeb146100d0578063cfcf8356146100e3578063d6b921061461010457600080fd5b8063124f1e631461008257806342e4209f146100825780637465a786146100aa575b600080fd5b6100956100903660046102f2565b610117565b60405190151581526020015b60405180910390f35b6100956100b83660046102f2565b61012e565b6100956100cb3660046102f2565b610151565b6100956100de3660046102f2565b61015e565b6100f66100f13660046102f2565b61016b565b6040519081526020016100a1565b6100956101123660046102f2565b610188565b60008061012484846101ae565b9150505b92915050565b60008061013b838561032a565b90506000610148826101c8565b95945050505050565b60008061012484846101e3565b600080610124848461020f565b60006101778383610229565b6101818284610352565b9392505050565b600060648311806101995750606482115b156101a657506001610128565b506000610128565b60008083118015610199575081156101a657506001610128565b600060648213156101db57506001919050565b506000919050565b6000806101f0838561032a565b905060c8811315610205576001915050610128565b6000915050610128565b60008061021c838561032a565b90506000610148826102de565b6000821161027e5760405162461bcd60e51b815260206004820152601c60248201527f76616c7565206d7573742062652067726561746572207468616e20300000000060448201526064015b60405180910390fd5b600081116102da5760405162461bcd60e51b815260206004820152602360248201527f616e6f7468657256616c7565206d75737420626520677265617465722074686160448201526206e20360ec1b6064820152608401610275565b5050565b60006101f48213156101db57506001919050565b6000806040838503121561030557600080fd5b50508035926020909101359150565b634e487b7160e01b600052601160045260246000fd5b808201828112600083128015821682158216171561034a5761034a610314565b505092915050565b808201808211156101285761012861031456fea264697066735822122037c5ff68bf2a9c42115470fed8386f8c47183d9f2615738a674cb3b3427532ee64736f6c63430008130033","linkReferences":{}},"methodIdentifiers":{"callingInheritedInnerFunction(uint256,uint256)":"124f1e63","callingInnerFunctionInsideAnotherInnerFunction(int256,int256)":"aadc2aeb","callingInnerFunctionWithArithmeticExpressionInside(int256,int256)":"a552109f","callingInnerFunctionWithConditional(uint256,uint256)":"42e4209f","callingInnerFunctionWithLocalVariableAsArgument(int256,int256)":"7465a786","callingInnerFunctionWithRequires(uint256,uint256)":"cfcf8356","innerExternalFunction(uint256,uint256)":"d6b92106"},"id":13}